{
  "contractName": "TokenFarm",
  "abi": [
    {
      "inputs": [
        {
          "internalType": "contract MEthToken",
          "name": "_ethToken",
          "type": "address"
        }
      ],
      "stateMutability": "nonpayable",
      "type": "constructor"
    },
    {
      "anonymous": false,
      "inputs": [
        {
          "indexed": true,
          "internalType": "address",
          "name": "previousOwner",
          "type": "address"
        },
        {
          "indexed": true,
          "internalType": "address",
          "name": "newOwner",
          "type": "address"
        }
      ],
      "name": "OwnershipTransferred",
      "type": "event"
    },
    {
      "anonymous": false,
      "inputs": [
        {
          "indexed": false,
          "internalType": "address",
          "name": "token",
          "type": "address"
        },
        {
          "indexed": false,
          "internalType": "uint256",
          "name": "amount",
          "type": "uint256"
        }
      ],
      "name": "Recovered",
      "type": "event"
    },
    {
      "anonymous": false,
      "inputs": [
        {
          "indexed": false,
          "internalType": "uint256",
          "name": "reward",
          "type": "uint256"
        }
      ],
      "name": "RewardAdded",
      "type": "event"
    },
    {
      "anonymous": false,
      "inputs": [
        {
          "indexed": true,
          "internalType": "address",
          "name": "user",
          "type": "address"
        },
        {
          "indexed": false,
          "internalType": "uint256",
          "name": "reward",
          "type": "uint256"
        }
      ],
      "name": "RewardPaid",
      "type": "event"
    },
    {
      "anonymous": false,
      "inputs": [
        {
          "indexed": false,
          "internalType": "uint256",
          "name": "newDuration",
          "type": "uint256"
        }
      ],
      "name": "RewardsDurationUpdated",
      "type": "event"
    },
    {
      "anonymous": false,
      "inputs": [
        {
          "indexed": true,
          "internalType": "address",
          "name": "user",
          "type": "address"
        },
        {
          "indexed": false,
          "internalType": "uint256",
          "name": "amount",
          "type": "uint256"
        }
      ],
      "name": "Staked",
      "type": "event"
    },
    {
      "anonymous": false,
      "inputs": [
        {
          "indexed": true,
          "internalType": "address",
          "name": "user",
          "type": "address"
        },
        {
          "indexed": false,
          "internalType": "uint256",
          "name": "amount",
          "type": "uint256"
        }
      ],
      "name": "Withdrawn",
      "type": "event"
    },
    {
      "inputs": [],
      "name": "ethToken",
      "outputs": [
        {
          "internalType": "contract MEthToken",
          "name": "",
          "type": "address"
        }
      ],
      "stateMutability": "view",
      "type": "function",
      "constant": true
    },
    {
      "inputs": [
        {
          "internalType": "address",
          "name": "",
          "type": "address"
        }
      ],
      "name": "hasStaked",
      "outputs": [
        {
          "internalType": "bool",
          "name": "",
          "type": "bool"
        }
      ],
      "stateMutability": "view",
      "type": "function",
      "constant": true
    },
    {
      "inputs": [
        {
          "internalType": "address",
          "name": "",
          "type": "address"
        }
      ],
      "name": "isStaking",
      "outputs": [
        {
          "internalType": "bool",
          "name": "",
          "type": "bool"
        }
      ],
      "stateMutability": "view",
      "type": "function",
      "constant": true
    },
    {
      "inputs": [],
      "name": "lastUpdateTime",
      "outputs": [
        {
          "internalType": "uint256",
          "name": "",
          "type": "uint256"
        }
      ],
      "stateMutability": "view",
      "type": "function",
      "constant": true
    },
    {
      "inputs": [],
      "name": "name",
      "outputs": [
        {
          "internalType": "string",
          "name": "",
          "type": "string"
        }
      ],
      "stateMutability": "view",
      "type": "function",
      "constant": true
    },
    {
      "inputs": [],
      "name": "owner",
      "outputs": [
        {
          "internalType": "address",
          "name": "",
          "type": "address"
        }
      ],
      "stateMutability": "view",
      "type": "function",
      "constant": true
    },
    {
      "inputs": [],
      "name": "periodFinish",
      "outputs": [
        {
          "internalType": "uint256",
          "name": "",
          "type": "uint256"
        }
      ],
      "stateMutability": "view",
      "type": "function",
      "constant": true
    },
    {
      "inputs": [],
      "name": "renounceOwnership",
      "outputs": [],
      "stateMutability": "nonpayable",
      "type": "function"
    },
    {
      "inputs": [],
      "name": "rewardPerTokenStored",
      "outputs": [
        {
          "internalType": "uint256",
          "name": "",
          "type": "uint256"
        }
      ],
      "stateMutability": "view",
      "type": "function",
      "constant": true
    },
    {
      "inputs": [],
      "name": "rewardRate",
      "outputs": [
        {
          "internalType": "uint256",
          "name": "",
          "type": "uint256"
        }
      ],
      "stateMutability": "view",
      "type": "function",
      "constant": true
    },
    {
      "inputs": [
        {
          "internalType": "address",
          "name": "",
          "type": "address"
        }
      ],
      "name": "rewards",
      "outputs": [
        {
          "internalType": "uint256",
          "name": "",
          "type": "uint256"
        }
      ],
      "stateMutability": "view",
      "type": "function",
      "constant": true
    },
    {
      "inputs": [],
      "name": "rewardsDuration",
      "outputs": [
        {
          "internalType": "uint256",
          "name": "",
          "type": "uint256"
        }
      ],
      "stateMutability": "view",
      "type": "function",
      "constant": true
    },
    {
      "inputs": [
        {
          "internalType": "uint256",
          "name": "",
          "type": "uint256"
        }
      ],
      "name": "stakers",
      "outputs": [
        {
          "internalType": "address",
          "name": "",
          "type": "address"
        }
      ],
      "stateMutability": "view",
      "type": "function",
      "constant": true
    },
    {
      "inputs": [
        {
          "internalType": "address",
          "name": "",
          "type": "address"
        }
      ],
      "name": "stakingBalance",
      "outputs": [
        {
          "internalType": "uint256",
          "name": "",
          "type": "uint256"
        }
      ],
      "stateMutability": "view",
      "type": "function",
      "constant": true
    },
    {
      "inputs": [],
      "name": "totalRewards",
      "outputs": [
        {
          "internalType": "uint256",
          "name": "",
          "type": "uint256"
        }
      ],
      "stateMutability": "view",
      "type": "function",
      "constant": true
    },
    {
      "inputs": [],
      "name": "totalStaked",
      "outputs": [
        {
          "internalType": "uint256",
          "name": "",
          "type": "uint256"
        }
      ],
      "stateMutability": "view",
      "type": "function",
      "constant": true
    },
    {
      "inputs": [
        {
          "internalType": "address",
          "name": "newOwner",
          "type": "address"
        }
      ],
      "name": "transferOwnership",
      "outputs": [],
      "stateMutability": "nonpayable",
      "type": "function"
    },
    {
      "inputs": [
        {
          "internalType": "address",
          "name": "",
          "type": "address"
        }
      ],
      "name": "userRewardPerTokenPaid",
      "outputs": [
        {
          "internalType": "uint256",
          "name": "",
          "type": "uint256"
        }
      ],
      "stateMutability": "view",
      "type": "function",
      "constant": true
    },
    {
      "inputs": [
        {
          "internalType": "uint256",
          "name": "_amount",
          "type": "uint256"
        }
      ],
      "name": "stakeTokens",
      "outputs": [],
      "stateMutability": "nonpayable",
      "type": "function"
    },
    {
      "inputs": [
        {
          "internalType": "uint256",
          "name": "_amount",
          "type": "uint256"
        }
      ],
      "name": "withdraw",
      "outputs": [],
      "stateMutability": "nonpayable",
      "type": "function"
    },
    {
      "inputs": [],
      "name": "getReward",
      "outputs": [],
      "stateMutability": "nonpayable",
      "type": "function"
    },
    {
      "inputs": [],
      "name": "unstakeTokens",
      "outputs": [],
      "stateMutability": "nonpayable",
      "type": "function"
    },
    {
      "inputs": [],
      "name": "issueTokens",
      "outputs": [],
      "stateMutability": "nonpayable",
      "type": "function"
    },
    {
      "inputs": [
        {
          "internalType": "uint256",
          "name": "reward",
          "type": "uint256"
        }
      ],
      "name": "notifyRewardAmount",
      "outputs": [],
      "stateMutability": "nonpayable",
      "type": "function"
    },
    {
      "inputs": [],
      "name": "totalSupply",
      "outputs": [
        {
          "internalType": "uint256",
          "name": "",
          "type": "uint256"
        }
      ],
      "stateMutability": "view",
      "type": "function",
      "constant": true
    },
    {
      "inputs": [
        {
          "internalType": "address",
          "name": "account",
          "type": "address"
        }
      ],
      "name": "balanceOf",
      "outputs": [
        {
          "internalType": "uint256",
          "name": "",
          "type": "uint256"
        }
      ],
      "stateMutability": "view",
      "type": "function",
      "constant": true
    },
    {
      "inputs": [],
      "name": "lastTimeRewardApplicable",
      "outputs": [
        {
          "internalType": "uint256",
          "name": "",
          "type": "uint256"
        }
      ],
      "stateMutability": "view",
      "type": "function",
      "constant": true
    },
    {
      "inputs": [],
      "name": "rewardPerToken",
      "outputs": [
        {
          "internalType": "uint256",
          "name": "",
          "type": "uint256"
        }
      ],
      "stateMutability": "view",
      "type": "function",
      "constant": true
    },
    {
      "inputs": [
        {
          "internalType": "address",
          "name": "account",
          "type": "address"
        }
      ],
      "name": "earned",
      "outputs": [
        {
          "internalType": "uint256",
          "name": "",
          "type": "uint256"
        }
      ],
      "stateMutability": "view",
      "type": "function",
      "constant": true
    },
    {
      "inputs": [],
      "name": "getRewardForDuration",
      "outputs": [
        {
          "internalType": "uint256",
          "name": "",
          "type": "uint256"
        }
      ],
      "stateMutability": "view",
      "type": "function",
      "constant": true
    }
  ],
  "bytecode": "0x60806040526040518060400160405280601081526020017f457468205374616b696e67204661726d0000000000000000000000000000000081525060029080519060200190620000519291906200019d565b506000600555600060065562093a806007553480156200007057600080fd5b50604051620027f8380380620027f8833981810160405281019062000096919062000264565b6000620000a86200019560201b60201c565b9050806000806101000a81548173ffffffffffffffffffffffffffffffffffffffff021916908373ffffffffffffffffffffffffffffffffffffffff1602179055508073ffffffffffffffffffffffffffffffffffffffff16600073ffffffffffffffffffffffffffffffffffffffff167f8be0079c531659141344cd1fd0a4f28419497f9722a3daafe3b4186f6b6457e060405160405180910390a3506001808190555080600360006101000a81548173ffffffffffffffffffffffffffffffffffffffff021916908373ffffffffffffffffffffffffffffffffffffffff1602179055505062000357565b600033905090565b828054620001ab90620002d8565b90600052602060002090601f016020900481019282620001cf57600085556200021b565b82601f10620001ea57805160ff19168380011785556200021b565b828001600101855582156200021b579182015b828111156200021a578251825591602001919060010190620001fd565b5b5090506200022a91906200022e565b5090565b5b80821115620002495760008160009055506001016200022f565b5090565b6000815190506200025e816200033d565b92915050565b6000602082840312156200027757600080fd5b600062000287848285016200024d565b91505092915050565b60006200029d82620002b8565b9050919050565b6000620002b18262000290565b9050919050565b600073ffffffffffffffffffffffffffffffffffffffff82169050919050565b60006002820490506001821680620002f157607f821691505b602082108114156200030857620003076200030e565b5b50919050565b7f4e487b7100000000000000000000000000000000000000000000000000000000600052602260045260246000fd5b6200034881620002a4565b81146200035457600080fd5b50565b61249180620003676000396000f3fe608060405234801561001057600080fd5b50600436106101d95760003560e01c80637547c7a311610104578063a5ce413b116100a2578063df136d6511610071578063df136d6514610512578063ebe2b12b14610530578063f2fde38b1461054e578063fd5e6dd11461056a576101d9565b8063a5ce413b1461049c578063c8f33c91146104a6578063c93c8f34146104c4578063cd3daf9d146104f4576101d9565b806380faa57d116100de57806380faa57d14610412578063817b1cd2146104305780638b8763471461044e5780638da5cb5b1461047e576101d9565b80637547c7a3146103ba5780637b0a47ee146103d65780637bf1a627146103f4576101d9565b8063386a95251161017c57806360ab58521161014b57806360ab5852146103465780636f49712b1461035057806370a0823114610380578063715018a6146103b0576101d9565b8063386a9525146102d25780633c6b16ab146102f05780633d18b9121461030c57806345bc78ab14610316576101d9565b80630e15561a116101b85780630e15561a1461025c57806318160ddd1461027a5780631c1f78eb146102985780632e1a7d4d146102b6576101d9565b80628cc262146101de57806306fdde031461020e5780630700037d1461022c575b600080fd5b6101f860048036038101906101f39190611c78565b61059a565b6040516102059190611ff6565b60405180910390f35b6102166106b8565b6040516102239190611f14565b60405180910390f35b61024660048036038101906102419190611c78565b610746565b6040516102539190611ff6565b60405180910390f35b61026461075e565b6040516102719190611ff6565b60405180910390f35b610282610764565b60405161028f9190611ff6565b60405180910390f35b6102a061076e565b6040516102ad9190611ff6565b60405180910390f35b6102d060048036038101906102cb9190611cca565b61078c565b005b6102da610aba565b6040516102e79190611ff6565b60405180910390f35b61030a60048036038101906103059190611cca565b610ac0565b005b610314610d96565b005b610330600480360381019061032b9190611c78565b611064565b60405161033d9190611ff6565b60405180910390f35b61034e61107c565b005b61036a60048036038101906103659190611c78565b611287565b6040516103779190611ede565b60405180910390f35b61039a60048036038101906103959190611c78565b6112a7565b6040516103a79190611ff6565b60405180910390f35b6103b86112f0565b005b6103d460048036038101906103cf9190611cca565b61142a565b005b6103de6117d3565b6040516103eb9190611ff6565b60405180910390f35b6103fc6117d9565b6040516104099190611ef9565b60405180910390f35b61041a6117ff565b6040516104279190611ff6565b60405180910390f35b610438611812565b6040516104459190611ff6565b60405180910390f35b61046860048036038101906104639190611c78565b611818565b6040516104759190611ff6565b60405180910390f35b610486611830565b6040516104939190611e63565b60405180910390f35b6104a4611859565b005b6104ae611903565b6040516104bb9190611ff6565b60405180910390f35b6104de60048036038101906104d99190611c78565b611909565b6040516104eb9190611ede565b60405180910390f35b6104fc611929565b6040516105099190611ff6565b60405180910390f35b61051a6119b7565b6040516105279190611ff6565b60405180910390f35b6105386119bd565b6040516105459190611ff6565b60405180910390f35b61056860048036038101906105639190611c78565b6119c3565b005b610584600480360381019061057f9190611cca565b611b6c565b6040516105919190611e63565b60405180910390f35b60006106b1600d60008473ffffffffffffffffffffffffffffffffffffffff1673ffffffffffffffffffffffffffffffffffffffff168152602001908152602001600020546106a3670de0b6b3a7640000610695610647600c60008973ffffffffffffffffffffffffffffffffffffffff1673ffffffffffffffffffffffffffffffffffffffff16815260200190815260200160002054610639611929565b611bab90919063ffffffff16565b600e60008973ffffffffffffffffffffffffffffffffffffffff1673ffffffffffffffffffffffffffffffffffffffff16815260200190815260200160002054611bc190919063ffffffff16565b611bd790919063ffffffff16565b611bed90919063ffffffff16565b9050919050565b600280546106c5906121e1565b80601f01602080910402602001604051908101604052809291908181526020018280546106f1906121e1565b801561073e5780601f106107135761010080835404028352916020019161073e565b820191906000526020600020905b81548152906001019060200180831161072157829003601f168201915b505050505081565b600d6020528060005260406000206000915090505481565b60045481565b6000600a54905090565b6000610787600754600654611bc190919063ffffffff16565b905090565b600260015414156107d2576040517f08c379a00000000000000000000000000000000000000000000000000000000081526004016107c990611fd6565b60405180910390fd5b6002600181905550336107e3611929565b6009819055506107f16117ff565b600881905550600073ffffffffffffffffffffffffffffffffffffffff168173ffffffffffffffffffffffffffffffffffffffff16146108be576108348161059a565b600d60008373ffffffffffffffffffffffffffffffffffffffff1673ffffffffffffffffffffffffffffffffffffffff16815260200190815260200160002081905550600954600c60008373ffffffffffffffffffffffffffffffffffffffff1673ffffffffffffffffffffffffffffffffffffffff168152602001908152602001600020819055505b60008211610901576040517f08c379a00000000000000000000000000000000000000000000000000000000081526004016108f890611f76565b60405180910390fd5b61091682600a54611bab90919063ffffffff16565b600a8190555061096e82600e60003373ffffffffffffffffffffffffffffffffffffffff1673ffffffffffffffffffffffffffffffffffffffff16815260200190815260200160002054611bab90919063ffffffff16565b600e60003373ffffffffffffffffffffffffffffffffffffffff1673ffffffffffffffffffffffffffffffffffffffff16815260200190815260200160002081905550600360009054906101000a900473ffffffffffffffffffffffffffffffffffffffff1673ffffffffffffffffffffffffffffffffffffffff1663a9059cbb33846040518363ffffffff1660e01b8152600401610a0e929190611eb5565b602060405180830381600087803b158015610a2857600080fd5b505af1158015610a3c573d6000803e3d6000fd5b505050506040513d601f19601f82011682018060405250810190610a609190611ca1565b503373ffffffffffffffffffffffffffffffffffffffff167f7084f5476618d8e60b11ef0d7d3f06914655adb8793e28ff7f018d4c76d505d583604051610aa79190611ff6565b60405180910390a2506001808190555050565b60075481565b6000610aca611929565b600981905550610ad86117ff565b600881905550600073ffffffffffffffffffffffffffffffffffffffff168173ffffffffffffffffffffffffffffffffffffffff1614610ba557610b1b8161059a565b600d60008373ffffffffffffffffffffffffffffffffffffffff1673ffffffffffffffffffffffffffffffffffffffff16815260200190815260200160002081905550600954600c60008373ffffffffffffffffffffffffffffffffffffffff1673ffffffffffffffffffffffffffffffffffffffff168152602001908152602001600020819055505b6005544210610bce57610bc360075483611bd790919063ffffffff16565b600681905550610c30565b6000610be542600554611bab90919063ffffffff16565b90506000610bfe60065483611bc190919063ffffffff16565b9050610c27600754610c198387611bed90919063ffffffff16565b611bd790919063ffffffff16565b60068190555050505b6000600360009054906101000a900473ffffffffffffffffffffffffffffffffffffffff1673ffffffffffffffffffffffffffffffffffffffff166370a08231306040518263ffffffff1660e01b8152600401610c8d9190611e63565b60206040518083038186803b158015610ca557600080fd5b505afa158015610cb9573d6000803e3d6000fd5b505050506040513d601f19601f82011682018060405250810190610cdd9190611cf3565b9050610cf460075482611bd790919063ffffffff16565b6006541115610d38576040517f08c379a0000000000000000000000000000000000000000000000000000000008152600401610d2f90611fb6565b60405180910390fd5b42600881905550610d5460075442611bed90919063ffffffff16565b6005819055507fde88a922e0d3b88b24e9623efeb464919c6bf9f66857a65e2bfcf2ce87a9433d83604051610d899190611ff6565b60405180910390a1505050565b60026001541415610ddc576040517f08c379a0000000000000000000000000000000000000000000000000000000008152600401610dd390611fd6565b60405180910390fd5b600260018190555033610ded611929565b600981905550610dfb6117ff565b600881905550600073ffffffffffffffffffffffffffffffffffffffff168173ffffffffffffffffffffffffffffffffffffffff1614610ec857610e3e8161059a565b600d60008373ffffffffffffffffffffffffffffffffffffffff1673ffffffffffffffffffffffffffffffffffffffff16815260200190815260200160002081905550600954600c60008373ffffffffffffffffffffffffffffffffffffffff1673ffffffffffffffffffffffffffffffffffffffff168152602001908152602001600020819055505b6000600d60003373ffffffffffffffffffffffffffffffffffffffff1673ffffffffffffffffffffffffffffffffffffffff1681526020019081526020016000205490506000811115611059576000600d60003373ffffffffffffffffffffffffffffffffffffffff1673ffffffffffffffffffffffffffffffffffffffff16815260200190815260200160002081905550600360009054906101000a900473ffffffffffffffffffffffffffffffffffffffff1673ffffffffffffffffffffffffffffffffffffffff1663a9059cbb33836040518363ffffffff1660e01b8152600401610fb7929190611eb5565b602060405180830381600087803b158015610fd157600080fd5b505af1158015610fe5573d6000803e3d6000fd5b505050506040513d601f19601f820116820180604052508101906110099190611ca1565b503373ffffffffffffffffffffffffffffffffffffffff167fe2403640ba68fed3a2f88b7557551d1993f84b99bb10ff833f0cf8db0c5e0486826040516110509190611ff6565b60405180910390a25b505060018081905550565b600e6020528060005260406000206000915090505481565b611084611c03565b73ffffffffffffffffffffffffffffffffffffffff166110a2611830565b73ffffffffffffffffffffffffffffffffffffffff16146110f8576040517f08c379a00000000000000000000000000000000000000000000000000000000081526004016110ef90611f96565b60405180910390fd5b60005b600b80549050811015611284576000600b8281548110611144577f4e487b7100000000000000000000000000000000000000000000000000000000600052603260045260246000fd5b9060005260206000200160009054906101000a900473ffffffffffffffffffffffffffffffffffffffff1690506000600e60008373ffffffffffffffffffffffffffffffffffffffff1673ffffffffffffffffffffffffffffffffffffffff168152602001908152602001600020549050600081111561126f57600360009054906101000a900473ffffffffffffffffffffffffffffffffffffffff1673ffffffffffffffffffffffffffffffffffffffff1663a9059cbb83836040518363ffffffff1660e01b815260040161121b929190611eb5565b602060405180830381600087803b15801561123557600080fd5b505af1158015611249573d6000803e3d6000fd5b505050506040513d601f19601f8201168201806040525081019061126d9190611ca1565b505b5050808061127c90612213565b9150506110fb565b50565b60106020528060005260406000206000915054906101000a900460ff1681565b6000600e60008373ffffffffffffffffffffffffffffffffffffffff1673ffffffffffffffffffffffffffffffffffffffff168152602001908152602001600020549050919050565b6112f8611c03565b73ffffffffffffffffffffffffffffffffffffffff16611316611830565b73ffffffffffffffffffffffffffffffffffffffff161461136c576040517f08c379a000000000000000000000000000000000000000000000000000000000815260040161136390611f96565b60405180910390fd5b600073ffffffffffffffffffffffffffffffffffffffff1660008054906101000a900473ffffffffffffffffffffffffffffffffffffffff1673ffffffffffffffffffffffffffffffffffffffff167f8be0079c531659141344cd1fd0a4f28419497f9722a3daafe3b4186f6b6457e060405160405180910390a360008060006101000a81548173ffffffffffffffffffffffffffffffffffffffff021916908373ffffffffffffffffffffffffffffffffffffffff160217905550565b60026001541415611470576040517f08c379a000000000000000000000000000000000000000000000000000000000815260040161146790611fd6565b60405180910390fd5b6002600181905550600081116114bb576040517f08c379a00000000000000000000000000000000000000000000000000000000081526004016114b290611f56565b60405180910390fd5b6114d081600a54611bed90919063ffffffff16565b600a8190555080600e60003373ffffffffffffffffffffffffffffffffffffffff1673ffffffffffffffffffffffffffffffffffffffff16815260200190815260200160002054611521919061202d565b600e60003373ffffffffffffffffffffffffffffffffffffffff1673ffffffffffffffffffffffffffffffffffffffff16815260200190815260200160002081905550600f60003373ffffffffffffffffffffffffffffffffffffffff1673ffffffffffffffffffffffffffffffffffffffff16815260200190815260200160002060009054906101000a900460ff1661161957600b339080600181540180825580915050600190039060005260206000200160009091909190916101000a81548173ffffffffffffffffffffffffffffffffffffffff021916908373ffffffffffffffffffffffffffffffffffffffff1602179055505b6001601060003373ffffffffffffffffffffffffffffffffffffffff1673ffffffffffffffffffffffffffffffffffffffff16815260200190815260200160002060006101000a81548160ff0219169083151502179055506001600f60003373ffffffffffffffffffffffffffffffffffffffff1673ffffffffffffffffffffffffffffffffffffffff16815260200190815260200160002060006101000a81548160ff021916908315150217905550600360009054906101000a900473ffffffffffffffffffffffffffffffffffffffff1673ffffffffffffffffffffffffffffffffffffffff166323b872dd3330846040518463ffffffff1660e01b815260040161172893929190611e7e565b602060405180830381600087803b15801561174257600080fd5b505af1158015611756573d6000803e3d6000fd5b505050506040513d601f19601f8201168201806040525081019061177a9190611ca1565b503373ffffffffffffffffffffffffffffffffffffffff167f9e71bc8eea02a63969f509818f2dafb9254532904319f9dbda79b67bd34a5f3d826040516117c19190611ff6565b60405180910390a26001808190555050565b60065481565b600360009054906101000a900473ffffffffffffffffffffffffffffffffffffffff1681565b600061180d42600554611c0b565b905090565b600a5481565b600c6020528060005260406000206000915090505481565b60008060009054906101000a900473ffffffffffffffffffffffffffffffffffffffff16905090565b6000601060003373ffffffffffffffffffffffffffffffffffffffff1673ffffffffffffffffffffffffffffffffffffffff16815260200190815260200160002060006101000a81548160ff0219169083151502179055506118f9600e60003373ffffffffffffffffffffffffffffffffffffffff1673ffffffffffffffffffffffffffffffffffffffff1681526020019081526020016000205461078c565b611901610d96565b565b60085481565b600f6020528060005260406000206000915054906101000a900460ff1681565b600080600a54141561193f5760095490506119b4565b6119b16119a0600a54611992670de0b6b3a76400006119846006546119766008546119686117ff565b611bab90919063ffffffff16565b611bc190919063ffffffff16565b611bc190919063ffffffff16565b611bd790919063ffffffff16565b600954611bed90919063ffffffff16565b90505b90565b60095481565b60055481565b6119cb611c03565b73ffffffffffffffffffffffffffffffffffffffff166119e9611830565b73ffffffffffffffffffffffffffffffffffffffff1614611a3f576040517f08c379a0000000000000000000000000000000000000000000000000000000008152600401611a3690611f96565b60405180910390fd5b600073ffffffffffffffffffffffffffffffffffffffff168173ffffffffffffffffffffffffffffffffffffffff161415611aaf576040517f08c379a0000000000000000000000000000000000000000000000000000000008152600401611aa690611f36565b60405180910390fd5b8073ffffffffffffffffffffffffffffffffffffffff1660008054906101000a900473ffffffffffffffffffffffffffffffffffffffff1673ffffffffffffffffffffffffffffffffffffffff167f8be0079c531659141344cd1fd0a4f28419497f9722a3daafe3b4186f6b6457e060405160405180910390a3806000806101000a81548173ffffffffffffffffffffffffffffffffffffffff021916908373ffffffffffffffffffffffffffffffffffffffff16021790555050565b600b8181548110611b7c57600080fd5b906000526020600020016000915054906101000a900473ffffffffffffffffffffffffffffffffffffffff1681565b60008183611bb9919061210e565b905092915050565b60008183611bcf91906120b4565b905092915050565b60008183611be59190612083565b905092915050565b60008183611bfb919061202d565b905092915050565b600033905090565b6000818310611c1a5781611c1c565b825b905092915050565b600081359050611c3381612416565b92915050565b600081519050611c488161242d565b92915050565b600081359050611c5d81612444565b92915050565b600081519050611c7281612444565b92915050565b600060208284031215611c8a57600080fd5b6000611c9884828501611c24565b91505092915050565b600060208284031215611cb357600080fd5b6000611cc184828501611c39565b91505092915050565b600060208284031215611cdc57600080fd5b6000611cea84828501611c4e565b91505092915050565b600060208284031215611d0557600080fd5b6000611d1384828501611c63565b91505092915050565b611d2581612142565b82525050565b611d3481612154565b82525050565b611d438161218a565b82525050565b6000611d5482612011565b611d5e818561201c565b9350611d6e8185602086016121ae565b611d77816122e9565b840191505092915050565b6000611d8f60268361201c565b9150611d9a826122fa565b604082019050919050565b6000611db2600e8361201c565b9150611dbd82612349565b602082019050919050565b6000611dd560118361201c565b9150611de082612372565b602082019050919050565b6000611df860208361201c565b9150611e038261239b565b602082019050919050565b6000611e1b60188361201c565b9150611e26826123c4565b602082019050919050565b6000611e3e601f8361201c565b9150611e49826123ed565b602082019050919050565b611e5d81612180565b82525050565b6000602082019050611e786000830184611d1c565b92915050565b6000606082019050611e936000830186611d1c565b611ea06020830185611d1c565b611ead6040830184611e54565b949350505050565b6000604082019050611eca6000830185611d1c565b611ed76020830184611e54565b9392505050565b6000602082019050611ef36000830184611d2b565b92915050565b6000602082019050611f0e6000830184611d3a565b92915050565b60006020820190508181036000830152611f2e8184611d49565b905092915050565b60006020820190508181036000830152611f4f81611d82565b9050919050565b60006020820190508181036000830152611f6f81611da5565b9050919050565b60006020820190508181036000830152611f8f81611dc8565b9050919050565b60006020820190508181036000830152611faf81611deb565b9050919050565b60006020820190508181036000830152611fcf81611e0e565b9050919050565b60006020820190508181036000830152611fef81611e31565b9050919050565b600060208201905061200b6000830184611e54565b92915050565b600081519050919050565b600082825260208201905092915050565b600061203882612180565b915061204383612180565b9250827fffffffffffffffffffffffffffffffffffffffffffffffffffffffffffffffff038211156120785761207761225c565b5b828201905092915050565b600061208e82612180565b915061209983612180565b9250826120a9576120a861228b565b5b828204905092915050565b60006120bf82612180565b91506120ca83612180565b9250817fffffffffffffffffffffffffffffffffffffffffffffffffffffffffffffffff04831182151516156121035761210261225c565b5b828202905092915050565b600061211982612180565b915061212483612180565b9250828210156121375761213661225c565b5b828203905092915050565b600061214d82612160565b9050919050565b60008115159050919050565b600073ffffffffffffffffffffffffffffffffffffffff82169050919050565b6000819050919050565b60006121958261219c565b9050919050565b60006121a782612160565b9050919050565b60005b838110156121cc5780820151818401526020810190506121b1565b838111156121db576000848401525b50505050565b600060028204905060018216806121f957607f821691505b6020821081141561220d5761220c6122ba565b5b50919050565b600061221e82612180565b91507fffffffffffffffffffffffffffffffffffffffffffffffffffffffffffffffff8214156122515761225061225c565b5b600182019050919050565b7f4e487b7100000000000000000000000000000000000000000000000000000000600052601160045260246000fd5b7f4e487b7100000000000000000000000000000000000000000000000000000000600052601260045260246000fd5b7f4e487b7100000000000000000000000000000000000000000000000000000000600052602260045260246000fd5b6000601f19601f8301169050919050565b7f4f776e61626c653a206e6577206f776e657220697320746865207a65726f206160008201527f6464726573730000000000000000000000000000000000000000000000000000602082015250565b7f43616e6e6f74207374616b652030000000000000000000000000000000000000600082015250565b7f43616e6e6f742077697468647261772030000000000000000000000000000000600082015250565b7f4f776e61626c653a2063616c6c6572206973206e6f7420746865206f776e6572600082015250565b7f50726f76696465642072657761726420746f6f20686967680000000000000000600082015250565b7f5265656e7472616e637947756172643a207265656e7472616e742063616c6c00600082015250565b61241f81612142565b811461242a57600080fd5b50565b61243681612154565b811461244157600080fd5b50565b61244d81612180565b811461245857600080fd5b5056fea26469706673582212207ecc20751a2e47a065f4fe01edca5360840e4450eb67b661488a2ef9e099bfca64736f6c63430008040033",
  "immutableReferences": {},
  "source": "pragma solidity ^0.8.0;\n\nimport \"./MEthToken.sol\";\nimport \"@openzeppelin/contracts/utils/math/SafeMath.sol\";\nimport \"@openzeppelin/contracts/utils/math/Math.sol\";\nimport \"@openzeppelin/contracts/access/Ownable.sol\";\nimport \"@openzeppelin/contracts/security/ReentrancyGuard.sol\";\n\ncontract TokenFarm is Ownable, ReentrancyGuard{\t\n\n\tusing SafeMath for uint256;\n\n\t/* ========== STATE VARIABLES ========== */\n\n\tstring public name = \"Eth Staking Farm\";\n\tMEthToken public ethToken;\t\n\n\t// total Rewards to be distributed\n\tuint256 public totalRewards;\n\n\t// total reward periods, use up all rewards till the time ends\n\n\t// first staking timestamp is recorded and started the counting\n\n\t// each week, manually call the distributeRewards function which compute each staker's share, and add rewards to their rewards account\n\t// need to check 7 days past the last reward date --> this can be scheduled using etherum alarm clock but takes fees\n\n\n\tuint256 public periodFinish = 0;\n    uint256 public rewardRate = 0;\n    uint256 public rewardsDuration = 7 days;\n    uint256 public lastUpdateTime;\n    uint256 public rewardPerTokenStored;\n\tuint256 public totalStaked;\n\n\taddress[] public stakers;\n\tmapping(address => uint256) public userRewardPerTokenPaid;\n    mapping(address => uint256) public rewards;\n\tmapping(address => uint) public stakingBalance;\n\tmapping(address => bool) public hasStaked;\n\tmapping(address => bool) public isStaking;\n\n\t/* ========== CONSTRUCTOR ========== */\n\n\tconstructor (MEthToken _ethToken) {\n\t\tethToken = _ethToken;\n\t\t//owner = msg.sender;\n\t}\n\n\t/* ========== EVENTS ========== */\n\n    event RewardAdded(uint256 reward);\n    event Staked(address indexed user, uint256 amount);\n    event Withdrawn(address indexed user, uint256 amount);\n    event RewardPaid(address indexed user, uint256 reward);\n    event RewardsDurationUpdated(uint256 newDuration);\n    event Recovered(address token, uint256 amount);\n\n\t/* ========== MODIFIERS ========== */\n\n    modifier updateReward(address account) {\n        rewardPerTokenStored = rewardPerToken();\n        lastUpdateTime = lastTimeRewardApplicable();\n        if (account != address(0)) {\n            rewards[account] = earned(account);\n            userRewardPerTokenPaid[account] = rewardPerTokenStored;\n        }\n        _;\n    }\n\n\t/* ========== MUTATIVE FUNCTIONS ========== */\n\n\t// 1. Stakes Tokens (Deposit): An investor will deposit the DAI into the smart contracts to starting earning rewards\n\tfunction stakeTokens(uint _amount) external nonReentrant {\t\n\n\t\trequire(_amount > 0, \"Cannot stake 0\");\t\n\n\t\t//Update total staked balance\n\t\ttotalStaked = totalStaked.add(_amount);\n\n\t\t// Update staking balance\n\t\tstakingBalance[msg.sender] = stakingBalance[msg.sender] + _amount;\t\t\n\n\t\t// Add user to stakers array *only* if they haven't staked already\n\t\tif(!hasStaked[msg.sender]) {\n\t\t\tstakers.push(msg.sender);\n\t\t}\n\n\t\t// update stakng status\n\t\tisStaking[msg.sender] = true;\n\t\thasStaked[msg.sender] = true;\n\n\t\t// Transfer Mock Eth tokens to this contract for staking\n\t\tethToken.transferFrom(msg.sender, address(this), _amount);\n\n\t\t// emit staked event\n\t\temit Staked(msg.sender, _amount);\n\n\t}\n\n\tfunction withdraw(uint256 _amount) public nonReentrant updateReward(msg.sender) {\n        require(_amount > 0, \"Cannot withdraw 0\");\n        totalStaked = totalStaked.sub(_amount);\n        stakingBalance[msg.sender] = stakingBalance[msg.sender].sub(_amount);\n        ethToken.transfer(msg.sender, _amount);\n        emit Withdrawn(msg.sender, _amount);\n    }\n\n\tfunction getReward() public nonReentrant updateReward(msg.sender) {\n        uint256 reward = rewards[msg.sender];\n        if (reward > 0) {\n            rewards[msg.sender] = 0;\n            ethToken.transfer(msg.sender, reward);\n            emit RewardPaid(msg.sender, reward);\n        }\n    }\n\n\t// Unstaking Tokens (Withdraw): Withdraw money from Dapp\n\tfunction unstakeTokens() public {\n\n\t\t// Update staking status\n\t\tisStaking[msg.sender] = false;\n\n\t\twithdraw(stakingBalance[msg.sender]);\n\n\t\tgetReward();\n\n\t}\n\n\n\t// Issuing Tokens: Earning interest (issuing tokens for people who stake them, distribute dap tokens as interes and also allow the investor to unstake their tokens from the app, give them intereset using the app)\n\tfunction issueTokens() public onlyOwner{\n\n\t\t// Issue tokens to all stakers\n\t\tfor (uint i=0; i<stakers.length; i++) {\n\t\t\taddress recipient = stakers[i];\n\t\t\tuint balance = stakingBalance[recipient];\n\t\t\tif(balance > 0) {\n\t\t\t\tethToken.transfer(recipient, balance);\n\t\t\t}\t\t\t\n\t\t}\n\t}\n\n\t// owner call this function to add reward amount to the total rewards\n\tfunction notifyRewardAmount(uint256 reward) external updateReward(address(0)) {\n        if (block.timestamp >= periodFinish) {\n            rewardRate = reward.div(rewardsDuration);\n        } else {\n            uint256 remaining = periodFinish.sub(block.timestamp);\n            uint256 leftover = remaining.mul(rewardRate);\n            rewardRate = reward.add(leftover).div(rewardsDuration);\n        }\n\n        // Ensure the provided reward amount is not more than the balance in the contract.\n        // This keeps the reward rate in the right range, preventing overflows due to\n        // very high values of rewardRate in the earned and rewardsPerToken functions;\n        // Reward + leftover must be less than 2^256 / 10^18 to avoid overflow.\n        uint balance = ethToken.balanceOf(address(this));\n        require(rewardRate <= balance.div(rewardsDuration), \"Provided reward too high\");\n\n        lastUpdateTime = block.timestamp;\n        periodFinish = block.timestamp.add(rewardsDuration);\n        emit RewardAdded(reward);\n    }\n\n\t /* ========== VIEWS ========== */\n\n\tfunction totalSupply() external view returns (uint256) {\n        return totalStaked;\n    }\n\n\tfunction balanceOf(address account) external view returns (uint256) {\n        return stakingBalance[account];\n    }\n\n    function lastTimeRewardApplicable() public view returns (uint256) {\n        return Math.min(block.timestamp, periodFinish);\n    }\n\n\tfunction rewardPerToken() public view returns (uint256) {\n        if (totalStaked == 0) {\n            return rewardPerTokenStored;\n        }\n        return\n            rewardPerTokenStored.add(\n                lastTimeRewardApplicable().sub(lastUpdateTime).mul(rewardRate).mul(1e18).div(totalStaked)\n            );\n    }\n\n    function earned(address account) public view returns (uint256) {\n        return stakingBalance[account].mul(rewardPerToken().sub(userRewardPerTokenPaid[account])).div(1e18).add(rewards[account]);\n    }\n\n    function getRewardForDuration() external view returns (uint256) {\n        return rewardRate.mul(rewardsDuration);\n    }\n}",
  "sourcePath": "/Users/dingchaoz/Documents/Learning/Blockchain/Solidity/defi_yield_farming-main/src/contracts/TokenFarm.sol",
  "compiler": {
    "name": "solc",
    "version": "0.8.4+commit.c7e474f2.Emscripten.clang"
  },
  "schemaVersion": "3.4.1",
  "updatedAt": "2021-05-23T15:12:51.788Z",
  "networkType": "ethereum",
  "devdoc": {
    "kind": "dev",
    "methods": {
      "owner()": {
        "details": "Returns the address of the current owner."
      },
      "renounceOwnership()": {
        "details": "Leaves the contract without owner. It will not be possible to call `onlyOwner` functions anymore. Can only be called by the current owner. NOTE: Renouncing ownership will leave the contract without an owner, thereby removing any functionality that is only available to the owner."
      },
      "transferOwnership(address)": {
        "details": "Transfers ownership of the contract to a new account (`newOwner`). Can only be called by the current owner."
      }
    },
    "version": 1
  },
  "userdoc": {
    "kind": "user",
    "methods": {},
    "version": 1
  }
}