{
  "contractName": "TokenFarm",
  "abi": [
    {
      "inputs": [
        {
          "internalType": "contract DaiToken",
          "name": "_daiToken",
          "type": "address"
        }
      ],
      "stateMutability": "nonpayable",
      "type": "constructor"
    },
    {
      "inputs": [],
      "name": "daiToken",
      "outputs": [
        {
          "internalType": "contract DaiToken",
          "name": "",
          "type": "address"
        }
      ],
      "stateMutability": "view",
      "type": "function",
      "constant": true
    },
    {
      "inputs": [
        {
          "internalType": "address",
          "name": "",
          "type": "address"
        }
      ],
      "name": "hasStaked",
      "outputs": [
        {
          "internalType": "bool",
          "name": "",
          "type": "bool"
        }
      ],
      "stateMutability": "view",
      "type": "function",
      "constant": true
    },
    {
      "inputs": [
        {
          "internalType": "address",
          "name": "",
          "type": "address"
        }
      ],
      "name": "isStaking",
      "outputs": [
        {
          "internalType": "bool",
          "name": "",
          "type": "bool"
        }
      ],
      "stateMutability": "view",
      "type": "function",
      "constant": true
    },
    {
      "inputs": [],
      "name": "name",
      "outputs": [
        {
          "internalType": "string",
          "name": "",
          "type": "string"
        }
      ],
      "stateMutability": "view",
      "type": "function",
      "constant": true
    },
    {
      "inputs": [],
      "name": "owner",
      "outputs": [
        {
          "internalType": "address",
          "name": "",
          "type": "address"
        }
      ],
      "stateMutability": "view",
      "type": "function",
      "constant": true
    },
    {
      "inputs": [
        {
          "internalType": "uint256",
          "name": "",
          "type": "uint256"
        }
      ],
      "name": "stakers",
      "outputs": [
        {
          "internalType": "address",
          "name": "",
          "type": "address"
        }
      ],
      "stateMutability": "view",
      "type": "function",
      "constant": true
    },
    {
      "inputs": [
        {
          "internalType": "address",
          "name": "",
          "type": "address"
        }
      ],
      "name": "stakingBalance",
      "outputs": [
        {
          "internalType": "uint256",
          "name": "",
          "type": "uint256"
        }
      ],
      "stateMutability": "view",
      "type": "function",
      "constant": true
    },
    {
      "inputs": [
        {
          "internalType": "uint256",
          "name": "_amount",
          "type": "uint256"
        }
      ],
      "name": "stakeTokens",
      "outputs": [],
      "stateMutability": "nonpayable",
      "type": "function"
    },
    {
      "inputs": [],
      "name": "unstakeTokens",
      "outputs": [],
      "stateMutability": "nonpayable",
      "type": "function"
    },
    {
      "inputs": [],
      "name": "issueTokens",
      "outputs": [],
      "stateMutability": "nonpayable",
      "type": "function"
    }
  ],
  "bytecode": "0x60806040526040518060400160405280600f81526020017f4461707020546f6b656e204661726d000000000000000000000000000000000081525060009080519060200190620000519291906200010e565b503480156200005f57600080fd5b506040516200123f3803806200123f8339818101604052810190620000859190620001d5565b80600260006101000a81548173ffffffffffffffffffffffffffffffffffffffff021916908373ffffffffffffffffffffffffffffffffffffffff16021790555033600160006101000a81548173ffffffffffffffffffffffffffffffffffffffff021916908373ffffffffffffffffffffffffffffffffffffffff16021790555050620002c8565b8280546200011c9062000249565b90600052602060002090601f0160209004810192826200014057600085556200018c565b82601f106200015b57805160ff19168380011785556200018c565b828001600101855582156200018c579182015b828111156200018b5782518255916020019190600101906200016e565b5b5090506200019b91906200019f565b5090565b5b80821115620001ba576000816000905550600101620001a0565b5090565b600081519050620001cf81620002ae565b92915050565b600060208284031215620001e857600080fd5b6000620001f884828501620001be565b91505092915050565b60006200020e8262000229565b9050919050565b6000620002228262000201565b9050919050565b600073ffffffffffffffffffffffffffffffffffffffff82169050919050565b600060028204905060018216806200026257607f821691505b602082108114156200027957620002786200027f565b5b50919050565b7f4e487b7100000000000000000000000000000000000000000000000000000000600052602260045260246000fd5b620002b98162000215565b8114620002c557600080fd5b50565b610f6780620002d86000396000f3fe608060405234801561001057600080fd5b506004361061009e5760003560e01c80638da5cb5b116100665780638da5cb5b14610147578063a5ce413b14610165578063be22f5461461016f578063c93c8f341461018d578063fd5e6dd1146101bd5761009e565b806306fdde03146100a357806345bc78ab146100c157806360ab5852146100f15780636f49712b146100fb5780637547c7a31461012b575b600080fd5b6100ab6101ed565b6040516100b89190610c22565b60405180910390f35b6100db60048036038101906100d69190610a3b565b61027b565b6040516100e89190610c84565b60405180910390f35b6100f9610293565b005b61011560048036038101906101109190610a3b565b6104b2565b6040516101229190610bec565b60405180910390f35b61014560048036038101906101409190610a8d565b6104d2565b005b61014f61077a565b60405161015c9190610b71565b60405180910390f35b61016d6107a0565b005b610177610977565b6040516101849190610c07565b60405180910390f35b6101a760048036038101906101a29190610a3b565b61099d565b6040516101b49190610bec565b60405180910390f35b6101d760048036038101906101d29190610a8d565b6109bd565b6040516101e49190610b71565b60405180910390f35b600080546101fa90610db0565b80601f016020809104026020016040519081016040528092919081815260200182805461022690610db0565b80156102735780601f1061024857610100808354040283529160200191610273565b820191906000526020600020905b81548152906001019060200180831161025657829003601f168201915b505050505081565b60046020528060005260406000206000915090505481565b600160009054906101000a900473ffffffffffffffffffffffffffffffffffffffff1673ffffffffffffffffffffffffffffffffffffffff163373ffffffffffffffffffffffffffffffffffffffff1614610323576040517f08c379a000000000000000000000000000000000000000000000000000000000815260040161031a90610c44565b60405180910390fd5b60005b6003805490508110156104af5760006003828154811061036f577f4e487b7100000000000000000000000000000000000000000000000000000000600052603260045260246000fd5b9060005260206000200160009054906101000a900473ffffffffffffffffffffffffffffffffffffffff1690506000600460008373ffffffffffffffffffffffffffffffffffffffff1673ffffffffffffffffffffffffffffffffffffffff168152602001908152602001600020549050600081111561049a57600260009054906101000a900473ffffffffffffffffffffffffffffffffffffffff1673ffffffffffffffffffffffffffffffffffffffff1663a9059cbb83836040518363ffffffff1660e01b8152600401610446929190610bc3565b602060405180830381600087803b15801561046057600080fd5b505af1158015610474573d6000803e3d6000fd5b505050506040513d601f19601f820116820180604052508101906104989190610a64565b505b505080806104a790610de2565b915050610326565b50565b60066020528060005260406000206000915054906101000a900460ff1681565b600260009054906101000a900473ffffffffffffffffffffffffffffffffffffffff1673ffffffffffffffffffffffffffffffffffffffff166323b872dd3330846040518463ffffffff1660e01b815260040161053193929190610b8c565b602060405180830381600087803b15801561054b57600080fd5b505af115801561055f573d6000803e3d6000fd5b505050506040513d601f19601f820116820180604052508101906105839190610a64565b5080600460003373ffffffffffffffffffffffffffffffffffffffff1673ffffffffffffffffffffffffffffffffffffffff168152602001908152602001600020546105cf9190610cbb565b600460003373ffffffffffffffffffffffffffffffffffffffff1673ffffffffffffffffffffffffffffffffffffffff16815260200190815260200160002081905550600560003373ffffffffffffffffffffffffffffffffffffffff1673ffffffffffffffffffffffffffffffffffffffff16815260200190815260200160002060009054906101000a900460ff166106c7576003339080600181540180825580915050600190039060005260206000200160009091909190916101000a81548173ffffffffffffffffffffffffffffffffffffffff021916908373ffffffffffffffffffffffffffffffffffffffff1602179055505b6001600660003373ffffffffffffffffffffffffffffffffffffffff1673ffffffffffffffffffffffffffffffffffffffff16815260200190815260200160002060006101000a81548160ff0219169083151502179055506001600560003373ffffffffffffffffffffffffffffffffffffffff1673ffffffffffffffffffffffffffffffffffffffff16815260200190815260200160002060006101000a81548160ff02191690831515021790555050565b600160009054906101000a900473ffffffffffffffffffffffffffffffffffffffff1681565b6000600460003373ffffffffffffffffffffffffffffffffffffffff1673ffffffffffffffffffffffffffffffffffffffff16815260200190815260200160002054905060008111610827576040517f08c379a000000000000000000000000000000000000000000000000000000000815260040161081e90610c64565b60405180910390fd5b600260009054906101000a900473ffffffffffffffffffffffffffffffffffffffff1673ffffffffffffffffffffffffffffffffffffffff1663a9059cbb33836040518363ffffffff1660e01b8152600401610884929190610bc3565b602060405180830381600087803b15801561089e57600080fd5b505af11580156108b2573d6000803e3d6000fd5b505050506040513d601f19601f820116820180604052508101906108d69190610a64565b506000600460003373ffffffffffffffffffffffffffffffffffffffff1673ffffffffffffffffffffffffffffffffffffffff168152602001908152602001600020819055506000600660003373ffffffffffffffffffffffffffffffffffffffff1673ffffffffffffffffffffffffffffffffffffffff16815260200190815260200160002060006101000a81548160ff02191690831515021790555050565b600260009054906101000a900473ffffffffffffffffffffffffffffffffffffffff1681565b60056020528060005260406000206000915054906101000a900460ff1681565b600381815481106109cd57600080fd5b906000526020600020016000915054906101000a900473ffffffffffffffffffffffffffffffffffffffff1681565b600081359050610a0b81610eec565b92915050565b600081519050610a2081610f03565b92915050565b600081359050610a3581610f1a565b92915050565b600060208284031215610a4d57600080fd5b6000610a5b848285016109fc565b91505092915050565b600060208284031215610a7657600080fd5b6000610a8484828501610a11565b91505092915050565b600060208284031215610a9f57600080fd5b6000610aad84828501610a26565b91505092915050565b610abf81610d11565b82525050565b610ace81610d23565b82525050565b610add81610d59565b82525050565b6000610aee82610c9f565b610af88185610caa565b9350610b08818560208601610d7d565b610b1181610e89565b840191505092915050565b6000610b29601883610caa565b9150610b3482610e9a565b602082019050919050565b6000610b4c601b83610caa565b9150610b5782610ec3565b602082019050919050565b610b6b81610d4f565b82525050565b6000602082019050610b866000830184610ab6565b92915050565b6000606082019050610ba16000830186610ab6565b610bae6020830185610ab6565b610bbb6040830184610b62565b949350505050565b6000604082019050610bd86000830185610ab6565b610be56020830184610b62565b9392505050565b6000602082019050610c016000830184610ac5565b92915050565b6000602082019050610c1c6000830184610ad4565b92915050565b60006020820190508181036000830152610c3c8184610ae3565b905092915050565b60006020820190508181036000830152610c5d81610b1c565b9050919050565b60006020820190508181036000830152610c7d81610b3f565b9050919050565b6000602082019050610c996000830184610b62565b92915050565b600081519050919050565b600082825260208201905092915050565b6000610cc682610d4f565b9150610cd183610d4f565b9250827fffffffffffffffffffffffffffffffffffffffffffffffffffffffffffffffff03821115610d0657610d05610e2b565b5b828201905092915050565b6000610d1c82610d2f565b9050919050565b60008115159050919050565b600073ffffffffffffffffffffffffffffffffffffffff82169050919050565b6000819050919050565b6000610d6482610d6b565b9050919050565b6000610d7682610d2f565b9050919050565b60005b83811015610d9b578082015181840152602081019050610d80565b83811115610daa576000848401525b50505050565b60006002820490506001821680610dc857607f821691505b60208210811415610ddc57610ddb610e5a565b5b50919050565b6000610ded82610d4f565b91507fffffffffffffffffffffffffffffffffffffffffffffffffffffffffffffffff821415610e2057610e1f610e2b565b5b600182019050919050565b7f4e487b7100000000000000000000000000000000000000000000000000000000600052601160045260246000fd5b7f4e487b7100000000000000000000000000000000000000000000000000000000600052602260045260246000fd5b6000601f19601f8301169050919050565b7f63616c6c6572206d75737420626520746865206f776e65720000000000000000600082015250565b7f7374616b696e672062616c616e63652063616e6e6f7420626520300000000000600082015250565b610ef581610d11565b8114610f0057600080fd5b50565b610f0c81610d23565b8114610f1757600080fd5b50565b610f2381610d4f565b8114610f2e57600080fd5b5056fea26469706673582212205ec139917da76eceb5ec2c3ef8ec1f3b21fd18ced9ab18eb8faf6f6822f4945f64736f6c63430008040033",
  "immutableReferences": {},
  "source": "pragma solidity ^0.8.0;\n\nimport \"./DaiToken.sol\";\n\ncontract TokenFarm {\t\t\n\tstring public name = \"Dapp Token Farm\";\n\taddress public owner;\n\tDaiToken public daiToken;\t\n\n\taddress[] public stakers;\n\tmapping(address => uint) public stakingBalance;\n\tmapping(address => bool) public hasStaked;\n\tmapping(address => bool) public isStaking;\n\n\tconstructor (DaiToken _daiToken) {\n\t\tdaiToken = _daiToken;\n\t\towner = msg.sender;\n\t}\n\n\t// 1. Stakes Tokens (Deposit): An investor will deposit the DAI into the smart contracts to starting earning rewards\n\tfunction stakeTokens(uint _amount) public {\t\t\n\t\t// core thing: transfer the DAI tokens from the investor's wallet to this smart contract...\n\n\t\t// Transfer Mock DAI tokens to this contract for staking\n\t\tdaiToken.transferFrom(msg.sender, address(this), _amount);\n\n\t\t// Update staking balance\n\t\tstakingBalance[msg.sender] = stakingBalance[msg.sender] + _amount;\t\t\n\n\t\t// Add user to stakers array *only* if they haven't staked already\n\t\tif(!hasStaked[msg.sender]) {\n\t\t\tstakers.push(msg.sender);\n\t\t}\n\n\t\t// update stakng status\n\t\tisStaking[msg.sender] = true;\n\t\thasStaked[msg.sender] = true;\n\n\t}\n\n\t// Unstaking Tokens (Withdraw): Withdraw money from Dapp\n\tfunction unstakeTokens() public {\n\t\t// Fetch staking balance\n\t\tuint balance = stakingBalance[msg.sender];\n\n\t\t// Require amount greter than 0\n\t\trequire(balance > 0, \"staking balance cannot be 0\");\n\n\t\t// Transfer Mock Dai tokens to this contract for staking\n\t\tdaiToken.transfer(msg.sender, balance);\n\n\t\t// Reset staking balance\n\t\tstakingBalance[msg.sender] = 0;\n\n\t\t// Update staking status\n\t\tisStaking[msg.sender] = false;\n\t}\n\n\n\t// Issuing Tokens: Earning interest (issuing tokens for people who stake them, distribute dap tokens as interes and also allow the investor to unstake their tokens from the app, give them intereset using the app)\n\tfunction issueTokens() public {\n\t\t// Only owner can call this function\n\t\trequire(msg.sender == owner, \"caller must be the owner\");\n\n\t\t// Issue tokens to all stakers\n\t\tfor (uint i=0; i<stakers.length; i++) {\n\t\t\taddress recipient = stakers[i];\n\t\t\tuint balance = stakingBalance[recipient];\n\t\t\tif(balance > 0) {\n\t\t\t\tdaiToken.transfer(recipient, balance);\n\t\t\t}\t\t\t\n\t\t}\n\t}\n\n\n}",
  "sourcePath": "/Users/dingchaoz/Documents/Learning/Blockchain/Solidity/defi_yield_farming-main/src/contracts/TokenFarm.sol",
  "compiler": {
    "name": "solc",
    "version": "0.8.4+commit.c7e474f2.Emscripten.clang"
  },
  "schemaVersion": "3.4.1",
  "updatedAt": "2021-05-21T11:15:08.343Z",
  "networkType": "ethereum",
  "devdoc": {
    "kind": "dev",
    "methods": {},
    "version": 1
  },
  "userdoc": {
    "kind": "user",
    "methods": {},
    "version": 1
  }
}