{
  "contractName": "MEthToken",
  "abi": [
    {
      "inputs": [],
      "stateMutability": "nonpayable",
      "type": "constructor"
    },
    {
      "anonymous": false,
      "inputs": [
        {
          "indexed": true,
          "internalType": "address",
          "name": "owner",
          "type": "address"
        },
        {
          "indexed": true,
          "internalType": "address",
          "name": "spender",
          "type": "address"
        },
        {
          "indexed": false,
          "internalType": "uint256",
          "name": "value",
          "type": "uint256"
        }
      ],
      "name": "Approval",
      "type": "event"
    },
    {
      "anonymous": false,
      "inputs": [
        {
          "indexed": true,
          "internalType": "address",
          "name": "from",
          "type": "address"
        },
        {
          "indexed": true,
          "internalType": "address",
          "name": "to",
          "type": "address"
        },
        {
          "indexed": false,
          "internalType": "uint256",
          "name": "value",
          "type": "uint256"
        }
      ],
      "name": "Transfer",
      "type": "event"
    },
    {
      "inputs": [],
      "name": "DECIMALS",
      "outputs": [
        {
          "internalType": "uint256",
          "name": "",
          "type": "uint256"
        }
      ],
      "stateMutability": "view",
      "type": "function"
    },
    {
      "inputs": [],
      "name": "INITIAL_SUPPLY",
      "outputs": [
        {
          "internalType": "uint256",
          "name": "",
          "type": "uint256"
        }
      ],
      "stateMutability": "view",
      "type": "function"
    },
    {
      "inputs": [
        {
          "internalType": "address",
          "name": "owner",
          "type": "address"
        },
        {
          "internalType": "address",
          "name": "spender",
          "type": "address"
        }
      ],
      "name": "allowance",
      "outputs": [
        {
          "internalType": "uint256",
          "name": "",
          "type": "uint256"
        }
      ],
      "stateMutability": "view",
      "type": "function"
    },
    {
      "inputs": [
        {
          "internalType": "address",
          "name": "spender",
          "type": "address"
        },
        {
          "internalType": "uint256",
          "name": "amount",
          "type": "uint256"
        }
      ],
      "name": "approve",
      "outputs": [
        {
          "internalType": "bool",
          "name": "",
          "type": "bool"
        }
      ],
      "stateMutability": "nonpayable",
      "type": "function"
    },
    {
      "inputs": [
        {
          "internalType": "address",
          "name": "account",
          "type": "address"
        }
      ],
      "name": "balanceOf",
      "outputs": [
        {
          "internalType": "uint256",
          "name": "",
          "type": "uint256"
        }
      ],
      "stateMutability": "view",
      "type": "function"
    },
    {
      "inputs": [],
      "name": "decimals",
      "outputs": [
        {
          "internalType": "uint8",
          "name": "",
          "type": "uint8"
        }
      ],
      "stateMutability": "view",
      "type": "function"
    },
    {
      "inputs": [
        {
          "internalType": "address",
          "name": "spender",
          "type": "address"
        },
        {
          "internalType": "uint256",
          "name": "subtractedValue",
          "type": "uint256"
        }
      ],
      "name": "decreaseAllowance",
      "outputs": [
        {
          "internalType": "bool",
          "name": "",
          "type": "bool"
        }
      ],
      "stateMutability": "nonpayable",
      "type": "function"
    },
    {
      "inputs": [
        {
          "internalType": "address",
          "name": "spender",
          "type": "address"
        },
        {
          "internalType": "uint256",
          "name": "addedValue",
          "type": "uint256"
        }
      ],
      "name": "increaseAllowance",
      "outputs": [
        {
          "internalType": "bool",
          "name": "",
          "type": "bool"
        }
      ],
      "stateMutability": "nonpayable",
      "type": "function"
    },
    {
      "inputs": [],
      "name": "name",
      "outputs": [
        {
          "internalType": "string",
          "name": "",
          "type": "string"
        }
      ],
      "stateMutability": "view",
      "type": "function"
    },
    {
      "inputs": [],
      "name": "symbol",
      "outputs": [
        {
          "internalType": "string",
          "name": "",
          "type": "string"
        }
      ],
      "stateMutability": "view",
      "type": "function"
    },
    {
      "inputs": [],
      "name": "totalSupply",
      "outputs": [
        {
          "internalType": "uint256",
          "name": "",
          "type": "uint256"
        }
      ],
      "stateMutability": "view",
      "type": "function"
    },
    {
      "inputs": [
        {
          "internalType": "address",
          "name": "recipient",
          "type": "address"
        },
        {
          "internalType": "uint256",
          "name": "amount",
          "type": "uint256"
        }
      ],
      "name": "transfer",
      "outputs": [
        {
          "internalType": "bool",
          "name": "",
          "type": "bool"
        }
      ],
      "stateMutability": "nonpayable",
      "type": "function"
    },
    {
      "inputs": [
        {
          "internalType": "address",
          "name": "sender",
          "type": "address"
        },
        {
          "internalType": "address",
          "name": "recipient",
          "type": "address"
        },
        {
          "internalType": "uint256",
          "name": "amount",
          "type": "uint256"
        }
      ],
      "name": "transferFrom",
      "outputs": [
        {
          "internalType": "bool",
          "name": "",
          "type": "bool"
        }
      ],
      "stateMutability": "nonpayable",
      "type": "function"
    }
  ],
  "bytecode": "0x60806040523480156200001157600080fd5b506040518060400160405280600981526020017f4d457468546f6b656e00000000000000000000000000000000000000000000008152506040518060400160405280600481526020017f4d4574680000000000000000000000000000000000000000000000000000000081525081600390805190602001906200009692919062000253565b508060049080519060200190620000af92919062000253565b505050620000e3336012600a620000c7919062000443565b62989680620000d7919062000580565b620000e960201b60201c565b620006b5565b600073ffffffffffffffffffffffffffffffffffffffff168273ffffffffffffffffffffffffffffffffffffffff1614156200015c576040517f08c379a000000000000000000000000000000000000000000000000000000000815260040162000153906200033b565b60405180910390fd5b62000170600083836200024e60201b60201c565b80600260008282546200018491906200038b565b92505081905550806000808473ffffffffffffffffffffffffffffffffffffffff1673ffffffffffffffffffffffffffffffffffffffff1681526020019081526020016000206000828254620001db91906200038b565b925050819055508173ffffffffffffffffffffffffffffffffffffffff16600073ffffffffffffffffffffffffffffffffffffffff167fddf252ad1be2c89b69c2b068fc378daa952ba7f163c4a11628f55a4df523b3ef836040516200024291906200035d565b60405180910390a35050565b505050565b8280546200026190620005eb565b90600052602060002090601f016020900481019282620002855760008555620002d1565b82601f10620002a057805160ff1916838001178555620002d1565b82800160010185558215620002d1579182015b82811115620002d0578251825591602001919060010190620002b3565b5b509050620002e09190620002e4565b5090565b5b80821115620002ff576000816000905550600101620002e5565b5090565b600062000312601f836200037a565b91506200031f826200068c565b602082019050919050565b6200033581620005e1565b82525050565b60006020820190508181036000830152620003568162000303565b9050919050565b60006020820190506200037460008301846200032a565b92915050565b600082825260208201905092915050565b60006200039882620005e1565b9150620003a583620005e1565b9250827fffffffffffffffffffffffffffffffffffffffffffffffffffffffffffffffff03821115620003dd57620003dc62000621565b5b828201905092915050565b6000808291508390505b60018511156200043a5780860481111562000412576200041162000621565b5b6001851615620004225780820291505b808102905062000432856200067f565b9450620003f2565b94509492505050565b60006200045082620005e1565b91506200045d83620005e1565b92506200048c7fffffffffffffffffffffffffffffffffffffffffffffffffffffffffffffffff848462000494565b905092915050565b600082620004a6576001905062000579565b81620004b6576000905062000579565b8160018114620004cf5760028114620004da5762000510565b600191505062000579565b60ff841115620004ef57620004ee62000621565b5b8360020a91508482111562000509576200050862000621565b5b5062000579565b5060208310610133831016604e8410600b84101617156200054a5782820a90508381111562000544576200054362000621565b5b62000579565b620005598484846001620003e8565b9250905081840481111562000573576200057262000621565b5b81810290505b9392505050565b60006200058d82620005e1565b91506200059a83620005e1565b9250817fffffffffffffffffffffffffffffffffffffffffffffffffffffffffffffffff0483118215151615620005d657620005d562000621565b5b828202905092915050565b6000819050919050565b600060028204905060018216806200060457607f821691505b602082108114156200061b576200061a62000650565b5b50919050565b7f4e487b7100000000000000000000000000000000000000000000000000000000600052601160045260246000fd5b7f4e487b7100000000000000000000000000000000000000000000000000000000600052602260045260246000fd5b60008160011c9050919050565b7f45524332303a206d696e7420746f20746865207a65726f206164647265737300600082015250565b61163280620006c56000396000f3fe608060405234801561001057600080fd5b50600436106100cf5760003560e01c8063313ce5671161008c57806395d89b411161006657806395d89b411461022a578063a457c2d714610248578063a9059cbb14610278578063dd62ed3e146102a8576100cf565b8063313ce567146101ac57806339509351146101ca57806370a08231146101fa576100cf565b806306fdde03146100d4578063095ea7b3146100f257806318160ddd1461012257806323b872dd146101405780632e0f2625146101705780632ff2e9dc1461018e575b600080fd5b6100dc6102d8565b6040516100e99190610ec6565b60405180910390f35b61010c60048036038101906101079190610d14565b61036a565b6040516101199190610eab565b60405180910390f35b61012a610388565b6040516101379190610fc8565b60405180910390f35b61015a60048036038101906101559190610cc5565b610392565b6040516101679190610eab565b60405180910390f35b610178610493565b6040516101859190610fc8565b60405180910390f35b610196610498565b6040516101a39190610fc8565b60405180910390f35b6101b46104b7565b6040516101c19190610fe3565b60405180910390f35b6101e460048036038101906101df9190610d14565b6104c0565b6040516101f19190610eab565b60405180910390f35b610214600480360381019061020f9190610c60565b61056c565b6040516102219190610fc8565b60405180910390f35b6102326105b4565b60405161023f9190610ec6565b60405180910390f35b610262600480360381019061025d9190610d14565b610646565b60405161026f9190610eab565b60405180910390f35b610292600480360381019061028d9190610d14565b61073a565b60405161029f9190610eab565b60405180910390f35b6102c260048036038101906102bd9190610c89565b610758565b6040516102cf9190610fc8565b60405180910390f35b6060600380546102e7906112f7565b80601f0160208091040260200160405190810160405280929190818152602001828054610313906112f7565b80156103605780601f1061033557610100808354040283529160200191610360565b820191906000526020600020905b81548152906001019060200180831161034357829003601f168201915b5050505050905090565b600061037e6103776107df565b84846107e7565b6001905092915050565b6000600254905090565b600061039f8484846109b2565b6000600160008673ffffffffffffffffffffffffffffffffffffffff1673ffffffffffffffffffffffffffffffffffffffff16815260200190815260200160002060006103ea6107df565b73ffffffffffffffffffffffffffffffffffffffff1673ffffffffffffffffffffffffffffffffffffffff1681526020019081526020016000205490508281101561046a576040517f08c379a000000000000000000000000000000000000000000000000000000000815260040161046190610f48565b60405180910390fd5b610487856104766107df565b8584610482919061123b565b6107e7565b60019150509392505050565b601281565b6012600a6104a691906110c3565b629896806104b491906111e1565b81565b60006012905090565b60006105626104cd6107df565b8484600160006104db6107df565b73ffffffffffffffffffffffffffffffffffffffff1673ffffffffffffffffffffffffffffffffffffffff16815260200190815260200160002060008873ffffffffffffffffffffffffffffffffffffffff1673ffffffffffffffffffffffffffffffffffffffff1681526020019081526020016000205461055d919061101a565b6107e7565b6001905092915050565b60008060008373ffffffffffffffffffffffffffffffffffffffff1673ffffffffffffffffffffffffffffffffffffffff168152602001908152602001600020549050919050565b6060600480546105c3906112f7565b80601f01602080910402602001604051908101604052809291908181526020018280546105ef906112f7565b801561063c5780601f106106115761010080835404028352916020019161063c565b820191906000526020600020905b81548152906001019060200180831161061f57829003601f168201915b5050505050905090565b600080600160006106556107df565b73ffffffffffffffffffffffffffffffffffffffff1673ffffffffffffffffffffffffffffffffffffffff16815260200190815260200160002060008573ffffffffffffffffffffffffffffffffffffffff1673ffffffffffffffffffffffffffffffffffffffff16815260200190815260200160002054905082811015610712576040517f08c379a000000000000000000000000000000000000000000000000000000000815260040161070990610fa8565b60405180910390fd5b61072f61071d6107df565b85858461072a919061123b565b6107e7565b600191505092915050565b600061074e6107476107df565b84846109b2565b6001905092915050565b6000600160008473ffffffffffffffffffffffffffffffffffffffff1673ffffffffffffffffffffffffffffffffffffffff16815260200190815260200160002060008373ffffffffffffffffffffffffffffffffffffffff1673ffffffffffffffffffffffffffffffffffffffff16815260200190815260200160002054905092915050565b600033905090565b600073ffffffffffffffffffffffffffffffffffffffff168373ffffffffffffffffffffffffffffffffffffffff161415610857576040517f08c379a000000000000000000000000000000000000000000000000000000000815260040161084e90610f88565b60405180910390fd5b600073ffffffffffffffffffffffffffffffffffffffff168273ffffffffffffffffffffffffffffffffffffffff1614156108c7576040517f08c379a00000000000000000000000000000000000000000000000000000000081526004016108be90610f08565b60405180910390fd5b80600160008573ffffffffffffffffffffffffffffffffffffffff1673ffffffffffffffffffffffffffffffffffffffff16815260200190815260200160002060008473ffffffffffffffffffffffffffffffffffffffff1673ffffffffffffffffffffffffffffffffffffffff168152602001908152602001600020819055508173ffffffffffffffffffffffffffffffffffffffff168373ffffffffffffffffffffffffffffffffffffffff167f8c5be1e5ebec7d5bd14f71427d1e84f3dd0314c0f7b2291e5b200ac8c7c3b925836040516109a59190610fc8565b60405180910390a3505050565b600073ffffffffffffffffffffffffffffffffffffffff168373ffffffffffffffffffffffffffffffffffffffff161415610a22576040517f08c379a0000000000000000000000000000000000000000000000000000000008152600401610a1990610f68565b60405180910390fd5b600073ffffffffffffffffffffffffffffffffffffffff168273ffffffffffffffffffffffffffffffffffffffff161415610a92576040517f08c379a0000000000000000000000000000000000000000000000000000000008152600401610a8990610ee8565b60405180910390fd5b610a9d838383610c31565b60008060008573ffffffffffffffffffffffffffffffffffffffff1673ffffffffffffffffffffffffffffffffffffffff16815260200190815260200160002054905081811015610b23576040517f08c379a0000000000000000000000000000000000000000000000000000000008152600401610b1a90610f28565b60405180910390fd5b8181610b2f919061123b565b6000808673ffffffffffffffffffffffffffffffffffffffff1673ffffffffffffffffffffffffffffffffffffffff16815260200190815260200160002081905550816000808573ffffffffffffffffffffffffffffffffffffffff1673ffffffffffffffffffffffffffffffffffffffff1681526020019081526020016000206000828254610bbf919061101a565b925050819055508273ffffffffffffffffffffffffffffffffffffffff168473ffffffffffffffffffffffffffffffffffffffff167fddf252ad1be2c89b69c2b068fc378daa952ba7f163c4a11628f55a4df523b3ef84604051610c239190610fc8565b60405180910390a350505050565b505050565b600081359050610c45816115ce565b92915050565b600081359050610c5a816115e5565b92915050565b600060208284031215610c7257600080fd5b6000610c8084828501610c36565b91505092915050565b60008060408385031215610c9c57600080fd5b6000610caa85828601610c36565b9250506020610cbb85828601610c36565b9150509250929050565b600080600060608486031215610cda57600080fd5b6000610ce886828701610c36565b9350506020610cf986828701610c36565b9250506040610d0a86828701610c4b565b9150509250925092565b60008060408385031215610d2757600080fd5b6000610d3585828601610c36565b9250506020610d4685828601610c4b565b9150509250929050565b610d5981611281565b82525050565b6000610d6a82610ffe565b610d748185611009565b9350610d848185602086016112c4565b610d8d81611387565b840191505092915050565b6000610da5602383611009565b9150610db0826113a5565b604082019050919050565b6000610dc8602283611009565b9150610dd3826113f4565b604082019050919050565b6000610deb602683611009565b9150610df682611443565b604082019050919050565b6000610e0e602883611009565b9150610e1982611492565b604082019050919050565b6000610e31602583611009565b9150610e3c826114e1565b604082019050919050565b6000610e54602483611009565b9150610e5f82611530565b604082019050919050565b6000610e77602583611009565b9150610e828261157f565b604082019050919050565b610e96816112ad565b82525050565b610ea5816112b7565b82525050565b6000602082019050610ec06000830184610d50565b92915050565b60006020820190508181036000830152610ee08184610d5f565b905092915050565b60006020820190508181036000830152610f0181610d98565b9050919050565b60006020820190508181036000830152610f2181610dbb565b9050919050565b60006020820190508181036000830152610f4181610dde565b9050919050565b60006020820190508181036000830152610f6181610e01565b9050919050565b60006020820190508181036000830152610f8181610e24565b9050919050565b60006020820190508181036000830152610fa181610e47565b9050919050565b60006020820190508181036000830152610fc181610e6a565b9050919050565b6000602082019050610fdd6000830184610e8d565b92915050565b6000602082019050610ff86000830184610e9c565b92915050565b600081519050919050565b600082825260208201905092915050565b6000611025826112ad565b9150611030836112ad565b9250827fffffffffffffffffffffffffffffffffffffffffffffffffffffffffffffffff0382111561106557611064611329565b5b828201905092915050565b6000808291508390505b60018511156110ba5780860481111561109657611095611329565b5b60018516156110a55780820291505b80810290506110b385611398565b945061107a565b94509492505050565b60006110ce826112ad565b91506110d9836112ad565b92506111067fffffffffffffffffffffffffffffffffffffffffffffffffffffffffffffffff848461110e565b905092915050565b60008261111e57600190506111da565b8161112c57600090506111da565b8160018114611142576002811461114c5761117b565b60019150506111da565b60ff84111561115e5761115d611329565b5b8360020a91508482111561117557611174611329565b5b506111da565b5060208310610133831016604e8410600b84101617156111b05782820a9050838111156111ab576111aa611329565b5b6111da565b6111bd8484846001611070565b925090508184048111156111d4576111d3611329565b5b81810290505b9392505050565b60006111ec826112ad565b91506111f7836112ad565b9250817fffffffffffffffffffffffffffffffffffffffffffffffffffffffffffffffff04831182151516156112305761122f611329565b5b828202905092915050565b6000611246826112ad565b9150611251836112ad565b92508282101561126457611263611329565b5b828203905092915050565b600061127a8261128d565b9050919050565b60008115159050919050565b600073ffffffffffffffffffffffffffffffffffffffff82169050919050565b6000819050919050565b600060ff82169050919050565b60005b838110156112e25780820151818401526020810190506112c7565b838111156112f1576000848401525b50505050565b6000600282049050600182168061130f57607f821691505b6020821081141561132357611322611358565b5b50919050565b7f4e487b7100000000000000000000000000000000000000000000000000000000600052601160045260246000fd5b7f4e487b7100000000000000000000000000000000000000000000000000000000600052602260045260246000fd5b6000601f19601f8301169050919050565b60008160011c9050919050565b7f45524332303a207472616e7366657220746f20746865207a65726f206164647260008201527f6573730000000000000000000000000000000000000000000000000000000000602082015250565b7f45524332303a20617070726f766520746f20746865207a65726f20616464726560008201527f7373000000000000000000000000000000000000000000000000000000000000602082015250565b7f45524332303a207472616e7366657220616d6f756e742065786365656473206260008201527f616c616e63650000000000000000000000000000000000000000000000000000602082015250565b7f45524332303a207472616e7366657220616d6f756e742065786365656473206160008201527f6c6c6f77616e6365000000000000000000000000000000000000000000000000602082015250565b7f45524332303a207472616e736665722066726f6d20746865207a65726f20616460008201527f6472657373000000000000000000000000000000000000000000000000000000602082015250565b7f45524332303a20617070726f76652066726f6d20746865207a65726f2061646460008201527f7265737300000000000000000000000000000000000000000000000000000000602082015250565b7f45524332303a2064656372656173656420616c6c6f77616e63652062656c6f7760008201527f207a65726f000000000000000000000000000000000000000000000000000000602082015250565b6115d78161126f565b81146115e257600080fd5b50565b6115ee816112ad565b81146115f957600080fd5b5056fea2646970667358221220fc5634039913e71b96690381bfdafbde8baf8f678a1b78108e56c5fb7ccd5fff64736f6c63430008040033",
  "immutableReferences": {},
  "source": "//SPDX-License-Identifier: MIT\npragma solidity ^0.8.0;\n\nimport \"@openzeppelin/contracts/token/ERC20/ERC20.sol\";\nimport \"@openzeppelin/contracts/utils/math/SafeMath.sol\";\n\ncontract MEthToken is ERC20 {\n    using SafeMath for uint256;\n\n    uint256 public constant DECIMALS = 18;\n    uint256 public constant INITIAL_SUPPLY = 10000000 * (10**uint256(DECIMALS)); // 10 million tokens\n\n    constructor() ERC20(\"MEthToken\", \"MEth\") {\n        _mint(msg.sender, INITIAL_SUPPLY);\n    }\n}\n",
  "sourcePath": "/Users/dingchaoz/Documents/Learning/Blockchain/Solidity/defi_yield_farming-main/src/contracts/MEthToken.sol",
  "compiler": {
    "name": "solc",
    "version": "0.8.4+commit.c7e474f2.Emscripten.clang"
  },
  "schemaVersion": "3.3.3",
  "updatedAt": "2021-05-30T05:43:23.568Z",
  "devdoc": {
    "kind": "dev",
    "methods": {
      "allowance(address,address)": {
        "details": "See {IERC20-allowance}."
      },
      "approve(address,uint256)": {
        "details": "See {IERC20-approve}. Requirements: - `spender` cannot be the zero address."
      },
      "balanceOf(address)": {
        "details": "See {IERC20-balanceOf}."
      },
      "decimals()": {
        "details": "Returns the number of decimals used to get its user representation. For example, if `decimals` equals `2`, a balance of `505` tokens should be displayed to a user as `5,05` (`505 / 10 ** 2`). Tokens usually opt for a value of 18, imitating the relationship between Ether and Wei. This is the value {ERC20} uses, unless this function is overridden; NOTE: This information is only used for _display_ purposes: it in no way affects any of the arithmetic of the contract, including {IERC20-balanceOf} and {IERC20-transfer}."
      },
      "decreaseAllowance(address,uint256)": {
        "details": "Atomically decreases the allowance granted to `spender` by the caller. This is an alternative to {approve} that can be used as a mitigation for problems described in {IERC20-approve}. Emits an {Approval} event indicating the updated allowance. Requirements: - `spender` cannot be the zero address. - `spender` must have allowance for the caller of at least `subtractedValue`."
      },
      "increaseAllowance(address,uint256)": {
        "details": "Atomically increases the allowance granted to `spender` by the caller. This is an alternative to {approve} that can be used as a mitigation for problems described in {IERC20-approve}. Emits an {Approval} event indicating the updated allowance. Requirements: - `spender` cannot be the zero address."
      },
      "name()": {
        "details": "Returns the name of the token."
      },
      "symbol()": {
        "details": "Returns the symbol of the token, usually a shorter version of the name."
      },
      "totalSupply()": {
        "details": "See {IERC20-totalSupply}."
      },
      "transfer(address,uint256)": {
        "details": "See {IERC20-transfer}. Requirements: - `recipient` cannot be the zero address. - the caller must have a balance of at least `amount`."
      },
      "transferFrom(address,address,uint256)": {
        "details": "See {IERC20-transferFrom}. Emits an {Approval} event indicating the updated allowance. This is not required by the EIP. See the note at the beginning of {ERC20}. Requirements: - `sender` and `recipient` cannot be the zero address. - `sender` must have a balance of at least `amount`. - the caller must have allowance for ``sender``'s tokens of at least `amount`."
      }
    },
    "version": 1
  },
  "userdoc": {
    "kind": "user",
    "methods": {},
    "version": 1
  }
}