{
  "contractName": "TokenFarm",
  "abi": [
    {
      "inputs": [
        {
          "internalType": "contract MEthToken",
          "name": "_ethToken",
          "type": "address"
        }
      ],
      "stateMutability": "nonpayable",
      "type": "constructor"
    },
    {
      "anonymous": false,
      "inputs": [
        {
          "indexed": true,
          "internalType": "address",
          "name": "previousOwner",
          "type": "address"
        },
        {
          "indexed": true,
          "internalType": "address",
          "name": "newOwner",
          "type": "address"
        }
      ],
      "name": "OwnershipTransferred",
      "type": "event"
    },
    {
      "anonymous": false,
      "inputs": [
        {
          "indexed": false,
          "internalType": "address",
          "name": "token",
          "type": "address"
        },
        {
          "indexed": false,
          "internalType": "uint256",
          "name": "amount",
          "type": "uint256"
        }
      ],
      "name": "Recovered",
      "type": "event"
    },
    {
      "anonymous": false,
      "inputs": [
        {
          "indexed": false,
          "internalType": "uint256",
          "name": "reward",
          "type": "uint256"
        }
      ],
      "name": "RewardAdded",
      "type": "event"
    },
    {
      "anonymous": false,
      "inputs": [
        {
          "indexed": true,
          "internalType": "address",
          "name": "user",
          "type": "address"
        },
        {
          "indexed": false,
          "internalType": "uint256",
          "name": "reward",
          "type": "uint256"
        }
      ],
      "name": "RewardPaid",
      "type": "event"
    },
    {
      "anonymous": false,
      "inputs": [
        {
          "indexed": false,
          "internalType": "uint256",
          "name": "newDuration",
          "type": "uint256"
        }
      ],
      "name": "RewardsDurationUpdated",
      "type": "event"
    },
    {
      "anonymous": false,
      "inputs": [
        {
          "indexed": true,
          "internalType": "address",
          "name": "user",
          "type": "address"
        },
        {
          "indexed": false,
          "internalType": "uint256",
          "name": "amount",
          "type": "uint256"
        }
      ],
      "name": "Staked",
      "type": "event"
    },
    {
      "anonymous": false,
      "inputs": [
        {
          "indexed": true,
          "internalType": "address",
          "name": "user",
          "type": "address"
        },
        {
          "indexed": false,
          "internalType": "uint256",
          "name": "amount",
          "type": "uint256"
        }
      ],
      "name": "Withdrawn",
      "type": "event"
    },
    {
      "inputs": [],
      "name": "NAME",
      "outputs": [
        {
          "internalType": "bytes32",
          "name": "",
          "type": "bytes32"
        }
      ],
      "stateMutability": "view",
      "type": "function"
    },
    {
      "inputs": [],
      "name": "ethToken",
      "outputs": [
        {
          "internalType": "contract MEthToken",
          "name": "",
          "type": "address"
        }
      ],
      "stateMutability": "view",
      "type": "function"
    },
    {
      "inputs": [
        {
          "internalType": "address",
          "name": "",
          "type": "address"
        }
      ],
      "name": "hasStaked",
      "outputs": [
        {
          "internalType": "bool",
          "name": "",
          "type": "bool"
        }
      ],
      "stateMutability": "view",
      "type": "function"
    },
    {
      "inputs": [
        {
          "internalType": "address",
          "name": "",
          "type": "address"
        }
      ],
      "name": "isStaking",
      "outputs": [
        {
          "internalType": "bool",
          "name": "",
          "type": "bool"
        }
      ],
      "stateMutability": "view",
      "type": "function"
    },
    {
      "inputs": [],
      "name": "lastUpdateTime",
      "outputs": [
        {
          "internalType": "uint256",
          "name": "",
          "type": "uint256"
        }
      ],
      "stateMutability": "view",
      "type": "function"
    },
    {
      "inputs": [],
      "name": "owner",
      "outputs": [
        {
          "internalType": "address",
          "name": "",
          "type": "address"
        }
      ],
      "stateMutability": "view",
      "type": "function"
    },
    {
      "inputs": [],
      "name": "periodFinish",
      "outputs": [
        {
          "internalType": "uint256",
          "name": "",
          "type": "uint256"
        }
      ],
      "stateMutability": "view",
      "type": "function"
    },
    {
      "inputs": [],
      "name": "renounceOwnership",
      "outputs": [],
      "stateMutability": "nonpayable",
      "type": "function"
    },
    {
      "inputs": [],
      "name": "rewardPerTokenStored",
      "outputs": [
        {
          "internalType": "uint256",
          "name": "",
          "type": "uint256"
        }
      ],
      "stateMutability": "view",
      "type": "function"
    },
    {
      "inputs": [],
      "name": "rewardRate",
      "outputs": [
        {
          "internalType": "uint256",
          "name": "",
          "type": "uint256"
        }
      ],
      "stateMutability": "view",
      "type": "function"
    },
    {
      "inputs": [
        {
          "internalType": "address",
          "name": "",
          "type": "address"
        }
      ],
      "name": "rewards",
      "outputs": [
        {
          "internalType": "uint256",
          "name": "",
          "type": "uint256"
        }
      ],
      "stateMutability": "view",
      "type": "function"
    },
    {
      "inputs": [
        {
          "internalType": "uint256",
          "name": "",
          "type": "uint256"
        }
      ],
      "name": "stakers",
      "outputs": [
        {
          "internalType": "address",
          "name": "",
          "type": "address"
        }
      ],
      "stateMutability": "view",
      "type": "function"
    },
    {
      "inputs": [
        {
          "internalType": "address",
          "name": "",
          "type": "address"
        }
      ],
      "name": "stakingBalance",
      "outputs": [
        {
          "internalType": "uint256",
          "name": "",
          "type": "uint256"
        }
      ],
      "stateMutability": "view",
      "type": "function"
    },
    {
      "inputs": [],
      "name": "totalStaked",
      "outputs": [
        {
          "internalType": "uint256",
          "name": "",
          "type": "uint256"
        }
      ],
      "stateMutability": "view",
      "type": "function"
    },
    {
      "inputs": [
        {
          "internalType": "address",
          "name": "newOwner",
          "type": "address"
        }
      ],
      "name": "transferOwnership",
      "outputs": [],
      "stateMutability": "nonpayable",
      "type": "function"
    },
    {
      "inputs": [
        {
          "internalType": "address",
          "name": "",
          "type": "address"
        }
      ],
      "name": "userRewardPerTokenPaid",
      "outputs": [
        {
          "internalType": "uint256",
          "name": "",
          "type": "uint256"
        }
      ],
      "stateMutability": "view",
      "type": "function"
    },
    {
      "inputs": [
        {
          "internalType": "uint256",
          "name": "amount",
          "type": "uint256"
        }
      ],
      "name": "stakeTokens",
      "outputs": [],
      "stateMutability": "nonpayable",
      "type": "function"
    },
    {
      "inputs": [
        {
          "internalType": "uint256",
          "name": "amount",
          "type": "uint256"
        }
      ],
      "name": "withdraw",
      "outputs": [],
      "stateMutability": "nonpayable",
      "type": "function"
    },
    {
      "inputs": [],
      "name": "getReward",
      "outputs": [],
      "stateMutability": "nonpayable",
      "type": "function"
    },
    {
      "inputs": [],
      "name": "unstakeTokens",
      "outputs": [],
      "stateMutability": "nonpayable",
      "type": "function"
    },
    {
      "inputs": [],
      "name": "issueTokens",
      "outputs": [],
      "stateMutability": "nonpayable",
      "type": "function"
    },
    {
      "inputs": [
        {
          "internalType": "uint256",
          "name": "reward",
          "type": "uint256"
        }
      ],
      "name": "notifyRewardAmount",
      "outputs": [],
      "stateMutability": "nonpayable",
      "type": "function"
    },
    {
      "inputs": [],
      "name": "name",
      "outputs": [
        {
          "internalType": "bytes32",
          "name": "",
          "type": "bytes32"
        }
      ],
      "stateMutability": "pure",
      "type": "function"
    },
    {
      "inputs": [],
      "name": "rewardsDuration",
      "outputs": [
        {
          "internalType": "uint256",
          "name": "",
          "type": "uint256"
        }
      ],
      "stateMutability": "pure",
      "type": "function"
    },
    {
      "inputs": [],
      "name": "totalSupply",
      "outputs": [
        {
          "internalType": "uint256",
          "name": "",
          "type": "uint256"
        }
      ],
      "stateMutability": "view",
      "type": "function"
    },
    {
      "inputs": [
        {
          "internalType": "address",
          "name": "account",
          "type": "address"
        }
      ],
      "name": "balanceOf",
      "outputs": [
        {
          "internalType": "uint256",
          "name": "",
          "type": "uint256"
        }
      ],
      "stateMutability": "view",
      "type": "function"
    },
    {
      "inputs": [],
      "name": "lastTimeRewardApplicable",
      "outputs": [
        {
          "internalType": "uint256",
          "name": "",
          "type": "uint256"
        }
      ],
      "stateMutability": "view",
      "type": "function"
    },
    {
      "inputs": [],
      "name": "rewardPerToken",
      "outputs": [
        {
          "internalType": "uint256",
          "name": "",
          "type": "uint256"
        }
      ],
      "stateMutability": "view",
      "type": "function"
    },
    {
      "inputs": [
        {
          "internalType": "address",
          "name": "account",
          "type": "address"
        }
      ],
      "name": "earned",
      "outputs": [
        {
          "internalType": "uint256",
          "name": "",
          "type": "uint256"
        }
      ],
      "stateMutability": "view",
      "type": "function"
    },
    {
      "inputs": [],
      "name": "getRewardForDuration",
      "outputs": [
        {
          "internalType": "uint256",
          "name": "",
          "type": "uint256"
        }
      ],
      "stateMutability": "view",
      "type": "function"
    }
  ],
  "bytecode": "0x6080604052600060035560006004553480156200001b57600080fd5b506040516200265e3803806200265e83398181016040528101906200004191906200015f565b6000620000536200014060201b60201c565b9050806000806101000a81548173ffffffffffffffffffffffffffffffffffffffff021916908373ffffffffffffffffffffffffffffffffffffffff1602179055508073ffffffffffffffffffffffffffffffffffffffff16600073ffffffffffffffffffffffffffffffffffffffff167f8be0079c531659141344cd1fd0a4f28419497f9722a3daafe3b4186f6b6457e060405160405180910390a3506001808190555080600260006101000a81548173ffffffffffffffffffffffffffffffffffffffff021916908373ffffffffffffffffffffffffffffffffffffffff16021790555050620001ed565b600033905090565b6000815190506200015981620001d3565b92915050565b6000602082840312156200017257600080fd5b6000620001828482850162000148565b91505092915050565b60006200019882620001b3565b9050919050565b6000620001ac826200018b565b9050919050565b600073ffffffffffffffffffffffffffffffffffffffff82169050919050565b620001de816200019f565b8114620001ea57600080fd5b50565b61246180620001fd6000396000f3fe608060405234801561001057600080fd5b50600436106101d95760003560e01c80637b0a47ee11610104578063a5ce413b116100a2578063df136d6511610071578063df136d6514610512578063ebe2b12b14610530578063f2fde38b1461054e578063fd5e6dd11461056a576101d9565b8063a5ce413b1461049c578063c8f33c91146104a6578063c93c8f34146104c4578063cd3daf9d146104f4576101d9565b8063817b1cd2116100de578063817b1cd2146104125780638b876347146104305780638da5cb5b14610460578063a3f4df7e1461047e576101d9565b80637b0a47ee146103b85780637bf1a627146103d657806380faa57d146103f4576101d9565b80633c6b16ab1161017c5780636f49712b1161014b5780636f49712b1461033257806370a0823114610362578063715018a6146103925780637547c7a31461039c576101d9565b80633c6b16ab146102d25780633d18b912146102ee57806345bc78ab146102f857806360ab585214610328576101d9565b806318160ddd116101b857806318160ddd1461025c5780631c1f78eb1461027a5780632e1a7d4d14610298578063386a9525146102b4576101d9565b80628cc262146101de57806306fdde031461020e5780630700037d1461022c575b600080fd5b6101f860048036038101906101f39190611d1f565b61059a565b604051610205919061206c565b60405180910390f35b6102166106b8565b6040516102239190611f76565b60405180910390f35b61024660048036038101906102419190611d1f565b6106e0565b604051610253919061206c565b60405180910390f35b6102646106f8565b604051610271919061206c565b60405180910390f35b610282610702565b60405161028f919061206c565b60405180910390f35b6102b260048036038101906102ad9190611d71565b610721565b005b6102bc610a4f565b6040516102c9919061206c565b60405180910390f35b6102ec60048036038101906102e79190611d71565b610a5a565b005b6102f6610d34565b005b610312600480360381019061030d9190611d1f565b611002565b60405161031f919061206c565b60405180910390f35b61033061101a565b005b61034c60048036038101906103479190611d1f565b611225565b6040516103599190611f5b565b60405180910390f35b61037c60048036038101906103779190611d1f565b611245565b604051610389919061206c565b60405180910390f35b61039a61128e565b005b6103b660048036038101906103b19190611d71565b6113c8565b005b6103c0611856565b6040516103cd919061206c565b60405180910390f35b6103de61185c565b6040516103eb9190611f91565b60405180910390f35b6103fc611882565b604051610409919061206c565b60405180910390f35b61041a611895565b604051610427919061206c565b60405180910390f35b61044a60048036038101906104459190611d1f565b61189b565b604051610457919061206c565b60405180910390f35b6104686118b3565b6040516104759190611ee0565b60405180910390f35b6104866118dc565b6040516104939190611f76565b60405180910390f35b6104a4611900565b005b6104ae6119aa565b6040516104bb919061206c565b60405180910390f35b6104de60048036038101906104d99190611d1f565b6119b0565b6040516104eb9190611f5b565b60405180910390f35b6104fc6119d0565b604051610509919061206c565b60405180910390f35b61051a611a5e565b604051610527919061206c565b60405180910390f35b610538611a64565b604051610545919061206c565b60405180910390f35b61056860048036038101906105639190611d1f565b611a6a565b005b610584600480360381019061057f9190611d71565b611c13565b6040516105919190611ee0565b60405180910390f35b60006106b1600a60008473ffffffffffffffffffffffffffffffffffffffff1673ffffffffffffffffffffffffffffffffffffffff168152602001908152602001600020546106a3670de0b6b3a7640000610695610647600960008973ffffffffffffffffffffffffffffffffffffffff1673ffffffffffffffffffffffffffffffffffffffff168152602001908152602001600020546106396119d0565b611c5290919063ffffffff16565b600b60008973ffffffffffffffffffffffffffffffffffffffff1673ffffffffffffffffffffffffffffffffffffffff16815260200190815260200160002054611c6890919063ffffffff16565b611c7e90919063ffffffff16565b611c9490919063ffffffff16565b9050919050565b60007f5374616b696e67204661726d0000000000000000000000000000000000000000905090565b600a6020528060005260406000206000915090505481565b6000600754905090565b600061071c62093a80600454611c6890919063ffffffff16565b905090565b60026001541415610767576040517f08c379a000000000000000000000000000000000000000000000000000000000815260040161075e9061204c565b60405180910390fd5b6002600181905550336107786119d0565b600681905550610786611882565b600581905550600073ffffffffffffffffffffffffffffffffffffffff168173ffffffffffffffffffffffffffffffffffffffff1614610853576107c98161059a565b600a60008373ffffffffffffffffffffffffffffffffffffffff1673ffffffffffffffffffffffffffffffffffffffff16815260200190815260200160002081905550600654600960008373ffffffffffffffffffffffffffffffffffffffff1673ffffffffffffffffffffffffffffffffffffffff168152602001908152602001600020819055505b60008211610896576040517f08c379a000000000000000000000000000000000000000000000000000000000815260040161088d90611fec565b60405180910390fd5b6108ab82600754611c5290919063ffffffff16565b60078190555061090382600b60003373ffffffffffffffffffffffffffffffffffffffff1673ffffffffffffffffffffffffffffffffffffffff16815260200190815260200160002054611c5290919063ffffffff16565b600b60003373ffffffffffffffffffffffffffffffffffffffff1673ffffffffffffffffffffffffffffffffffffffff16815260200190815260200160002081905550600260009054906101000a900473ffffffffffffffffffffffffffffffffffffffff1673ffffffffffffffffffffffffffffffffffffffff1663a9059cbb33846040518363ffffffff1660e01b81526004016109a3929190611f32565b602060405180830381600087803b1580156109bd57600080fd5b505af11580156109d1573d6000803e3d6000fd5b505050506040513d601f19601f820116820180604052508101906109f59190611d48565b503373ffffffffffffffffffffffffffffffffffffffff167f7084f5476618d8e60b11ef0d7d3f06914655adb8793e28ff7f018d4c76d505d583604051610a3c919061206c565b60405180910390a2506001808190555050565b600062093a80905090565b6000610a646119d0565b600681905550610a72611882565b600581905550600073ffffffffffffffffffffffffffffffffffffffff168173ffffffffffffffffffffffffffffffffffffffff1614610b3f57610ab58161059a565b600a60008373ffffffffffffffffffffffffffffffffffffffff1673ffffffffffffffffffffffffffffffffffffffff16815260200190815260200160002081905550600654600960008373ffffffffffffffffffffffffffffffffffffffff1673ffffffffffffffffffffffffffffffffffffffff168152602001908152602001600020819055505b6003544210610b6957610b5e62093a8083611c7e90919063ffffffff16565b600481905550610bcc565b6000610b8042600354611c5290919063ffffffff16565b90506000610b9960045483611c6890919063ffffffff16565b9050610bc362093a80610bb58387611c9490919063ffffffff16565b611c7e90919063ffffffff16565b60048190555050505b6000600260009054906101000a900473ffffffffffffffffffffffffffffffffffffffff1673ffffffffffffffffffffffffffffffffffffffff166370a08231306040518263ffffffff1660e01b8152600401610c299190611ee0565b60206040518083038186803b158015610c4157600080fd5b505afa158015610c55573d6000803e3d6000fd5b505050506040513d601f19601f82011682018060405250810190610c799190611d9a565b9050610c9162093a8082611c7e90919063ffffffff16565b6004541115610cd5576040517f08c379a0000000000000000000000000000000000000000000000000000000008152600401610ccc9061202c565b60405180910390fd5b42600581905550610cf262093a8042611c9490919063ffffffff16565b6003819055507fde88a922e0d3b88b24e9623efeb464919c6bf9f66857a65e2bfcf2ce87a9433d83604051610d27919061206c565b60405180910390a1505050565b60026001541415610d7a576040517f08c379a0000000000000000000000000000000000000000000000000000000008152600401610d719061204c565b60405180910390fd5b600260018190555033610d8b6119d0565b600681905550610d99611882565b600581905550600073ffffffffffffffffffffffffffffffffffffffff168173ffffffffffffffffffffffffffffffffffffffff1614610e6657610ddc8161059a565b600a60008373ffffffffffffffffffffffffffffffffffffffff1673ffffffffffffffffffffffffffffffffffffffff16815260200190815260200160002081905550600654600960008373ffffffffffffffffffffffffffffffffffffffff1673ffffffffffffffffffffffffffffffffffffffff168152602001908152602001600020819055505b6000600a60003373ffffffffffffffffffffffffffffffffffffffff1673ffffffffffffffffffffffffffffffffffffffff1681526020019081526020016000205490506000811115610ff7576000600a60003373ffffffffffffffffffffffffffffffffffffffff1673ffffffffffffffffffffffffffffffffffffffff16815260200190815260200160002081905550600260009054906101000a900473ffffffffffffffffffffffffffffffffffffffff1673ffffffffffffffffffffffffffffffffffffffff1663a9059cbb33836040518363ffffffff1660e01b8152600401610f55929190611f32565b602060405180830381600087803b158015610f6f57600080fd5b505af1158015610f83573d6000803e3d6000fd5b505050506040513d601f19601f82011682018060405250810190610fa79190611d48565b503373ffffffffffffffffffffffffffffffffffffffff167fe2403640ba68fed3a2f88b7557551d1993f84b99bb10ff833f0cf8db0c5e048682604051610fee919061206c565b60405180910390a25b505060018081905550565b600b6020528060005260406000206000915090505481565b611022611caa565b73ffffffffffffffffffffffffffffffffffffffff166110406118b3565b73ffffffffffffffffffffffffffffffffffffffff1614611096576040517f08c379a000000000000000000000000000000000000000000000000000000000815260040161108d9061200c565b60405180910390fd5b60005b600880549050811015611222576000600882815481106110e2577f4e487b7100000000000000000000000000000000000000000000000000000000600052603260045260246000fd5b9060005260206000200160009054906101000a900473ffffffffffffffffffffffffffffffffffffffff1690506000600b60008373ffffffffffffffffffffffffffffffffffffffff1673ffffffffffffffffffffffffffffffffffffffff168152602001908152602001600020549050600081111561120d57600260009054906101000a900473ffffffffffffffffffffffffffffffffffffffff1673ffffffffffffffffffffffffffffffffffffffff1663a9059cbb83836040518363ffffffff1660e01b81526004016111b9929190611f32565b602060405180830381600087803b1580156111d357600080fd5b505af11580156111e7573d6000803e3d6000fd5b505050506040513d601f19601f8201168201806040525081019061120b9190611d48565b505b5050808061121a90612223565b915050611099565b50565b600d6020528060005260406000206000915054906101000a900460ff1681565b6000600b60008373ffffffffffffffffffffffffffffffffffffffff1673ffffffffffffffffffffffffffffffffffffffff168152602001908152602001600020549050919050565b611296611caa565b73ffffffffffffffffffffffffffffffffffffffff166112b46118b3565b73ffffffffffffffffffffffffffffffffffffffff161461130a576040517f08c379a00000000000000000000000000000000000000000000000000000000081526004016113019061200c565b60405180910390fd5b600073ffffffffffffffffffffffffffffffffffffffff1660008054906101000a900473ffffffffffffffffffffffffffffffffffffffff1673ffffffffffffffffffffffffffffffffffffffff167f8be0079c531659141344cd1fd0a4f28419497f9722a3daafe3b4186f6b6457e060405160405180910390a360008060006101000a81548173ffffffffffffffffffffffffffffffffffffffff021916908373ffffffffffffffffffffffffffffffffffffffff160217905550565b6002600154141561140e576040517f08c379a00000000000000000000000000000000000000000000000000000000081526004016114059061204c565b60405180910390fd5b60026001819055503361141f6119d0565b60068190555061142d611882565b600581905550600073ffffffffffffffffffffffffffffffffffffffff168173ffffffffffffffffffffffffffffffffffffffff16146114fa576114708161059a565b600a60008373ffffffffffffffffffffffffffffffffffffffff1673ffffffffffffffffffffffffffffffffffffffff16815260200190815260200160002081905550600654600960008373ffffffffffffffffffffffffffffffffffffffff1673ffffffffffffffffffffffffffffffffffffffff168152602001908152602001600020819055505b6000821161153d576040517f08c379a000000000000000000000000000000000000000000000000000000000815260040161153490611fcc565b60405180910390fd5b61155282600754611c9490919063ffffffff16565b60078190555081600b60003373ffffffffffffffffffffffffffffffffffffffff1673ffffffffffffffffffffffffffffffffffffffff168152602001908152602001600020546115a39190612098565b600b60003373ffffffffffffffffffffffffffffffffffffffff1673ffffffffffffffffffffffffffffffffffffffff16815260200190815260200160002081905550600c60003373ffffffffffffffffffffffffffffffffffffffff1673ffffffffffffffffffffffffffffffffffffffff16815260200190815260200160002060009054906101000a900460ff1661169b576008339080600181540180825580915050600190039060005260206000200160009091909190916101000a81548173ffffffffffffffffffffffffffffffffffffffff021916908373ffffffffffffffffffffffffffffffffffffffff1602179055505b6001600d60003373ffffffffffffffffffffffffffffffffffffffff1673ffffffffffffffffffffffffffffffffffffffff16815260200190815260200160002060006101000a81548160ff0219169083151502179055506001600c60003373ffffffffffffffffffffffffffffffffffffffff1673ffffffffffffffffffffffffffffffffffffffff16815260200190815260200160002060006101000a81548160ff021916908315150217905550600260009054906101000a900473ffffffffffffffffffffffffffffffffffffffff1673ffffffffffffffffffffffffffffffffffffffff166323b872dd3330856040518463ffffffff1660e01b81526004016117aa93929190611efb565b602060405180830381600087803b1580156117c457600080fd5b505af11580156117d8573d6000803e3d6000fd5b505050506040513d601f19601f820116820180604052508101906117fc9190611d48565b503373ffffffffffffffffffffffffffffffffffffffff167f9e71bc8eea02a63969f509818f2dafb9254532904319f9dbda79b67bd34a5f3d83604051611843919061206c565b60405180910390a2506001808190555050565b60045481565b600260009054906101000a900473ffffffffffffffffffffffffffffffffffffffff1681565b600061189042600354611cb2565b905090565b60075481565b60096020528060005260406000206000915090505481565b60008060009054906101000a900473ffffffffffffffffffffffffffffffffffffffff16905090565b7f5374616b696e67204661726d000000000000000000000000000000000000000081565b6000600d60003373ffffffffffffffffffffffffffffffffffffffff1673ffffffffffffffffffffffffffffffffffffffff16815260200190815260200160002060006101000a81548160ff0219169083151502179055506119a0600b60003373ffffffffffffffffffffffffffffffffffffffff1673ffffffffffffffffffffffffffffffffffffffff16815260200190815260200160002054610721565b6119a8610d34565b565b60055481565b600c6020528060005260406000206000915054906101000a900460ff1681565b60008060075414156119e6576006549050611a5b565b611a58611a47600754611a39670de0b6b3a7640000611a2b600454611a1d600554611a0f611882565b611c5290919063ffffffff16565b611c6890919063ffffffff16565b611c6890919063ffffffff16565b611c7e90919063ffffffff16565b600654611c9490919063ffffffff16565b90505b90565b60065481565b60035481565b611a72611caa565b73ffffffffffffffffffffffffffffffffffffffff16611a906118b3565b73ffffffffffffffffffffffffffffffffffffffff1614611ae6576040517f08c379a0000000000000000000000000000000000000000000000000000000008152600401611add9061200c565b60405180910390fd5b600073ffffffffffffffffffffffffffffffffffffffff168173ffffffffffffffffffffffffffffffffffffffff161415611b56576040517f08c379a0000000000000000000000000000000000000000000000000000000008152600401611b4d90611fac565b60405180910390fd5b8073ffffffffffffffffffffffffffffffffffffffff1660008054906101000a900473ffffffffffffffffffffffffffffffffffffffff1673ffffffffffffffffffffffffffffffffffffffff167f8be0079c531659141344cd1fd0a4f28419497f9722a3daafe3b4186f6b6457e060405160405180910390a3806000806101000a81548173ffffffffffffffffffffffffffffffffffffffff021916908373ffffffffffffffffffffffffffffffffffffffff16021790555050565b60088181548110611c2357600080fd5b906000526020600020016000915054906101000a900473ffffffffffffffffffffffffffffffffffffffff1681565b60008183611c609190612179565b905092915050565b60008183611c76919061211f565b905092915050565b60008183611c8c91906120ee565b905092915050565b60008183611ca29190612098565b905092915050565b600033905090565b6000818310611cc15781611cc3565b825b905092915050565b600081359050611cda816123e6565b92915050565b600081519050611cef816123fd565b92915050565b600081359050611d0481612414565b92915050565b600081519050611d1981612414565b92915050565b600060208284031215611d3157600080fd5b6000611d3f84828501611ccb565b91505092915050565b600060208284031215611d5a57600080fd5b6000611d6884828501611ce0565b91505092915050565b600060208284031215611d8357600080fd5b6000611d9184828501611cf5565b91505092915050565b600060208284031215611dac57600080fd5b6000611dba84828501611d0a565b91505092915050565b611dcc816121ad565b82525050565b611ddb816121bf565b82525050565b611dea816121cb565b82525050565b611df9816121ff565b82525050565b6000611e0c602683612087565b9150611e17826122ca565b604082019050919050565b6000611e2f600e83612087565b9150611e3a82612319565b602082019050919050565b6000611e52601183612087565b9150611e5d82612342565b602082019050919050565b6000611e75602083612087565b9150611e808261236b565b602082019050919050565b6000611e98601883612087565b9150611ea382612394565b602082019050919050565b6000611ebb601f83612087565b9150611ec6826123bd565b602082019050919050565b611eda816121f5565b82525050565b6000602082019050611ef56000830184611dc3565b92915050565b6000606082019050611f106000830186611dc3565b611f1d6020830185611dc3565b611f2a6040830184611ed1565b949350505050565b6000604082019050611f476000830185611dc3565b611f546020830184611ed1565b9392505050565b6000602082019050611f706000830184611dd2565b92915050565b6000602082019050611f8b6000830184611de1565b92915050565b6000602082019050611fa66000830184611df0565b92915050565b60006020820190508181036000830152611fc581611dff565b9050919050565b60006020820190508181036000830152611fe581611e22565b9050919050565b6000602082019050818103600083015261200581611e45565b9050919050565b6000602082019050818103600083015261202581611e68565b9050919050565b6000602082019050818103600083015261204581611e8b565b9050919050565b6000602082019050818103600083015261206581611eae565b9050919050565b60006020820190506120816000830184611ed1565b92915050565b600082825260208201905092915050565b60006120a3826121f5565b91506120ae836121f5565b9250827fffffffffffffffffffffffffffffffffffffffffffffffffffffffffffffffff038211156120e3576120e261226c565b5b828201905092915050565b60006120f9826121f5565b9150612104836121f5565b9250826121145761211361229b565b5b828204905092915050565b600061212a826121f5565b9150612135836121f5565b9250817fffffffffffffffffffffffffffffffffffffffffffffffffffffffffffffffff048311821515161561216e5761216d61226c565b5b828202905092915050565b6000612184826121f5565b915061218f836121f5565b9250828210156121a2576121a161226c565b5b828203905092915050565b60006121b8826121d5565b9050919050565b60008115159050919050565b6000819050919050565b600073ffffffffffffffffffffffffffffffffffffffff82169050919050565b6000819050919050565b600061220a82612211565b9050919050565b600061221c826121d5565b9050919050565b600061222e826121f5565b91507fffffffffffffffffffffffffffffffffffffffffffffffffffffffffffffffff8214156122615761226061226c565b5b600182019050919050565b7f4e487b7100000000000000000000000000000000000000000000000000000000600052601160045260246000fd5b7f4e487b7100000000000000000000000000000000000000000000000000000000600052601260045260246000fd5b7f4f776e61626c653a206e6577206f776e657220697320746865207a65726f206160008201527f6464726573730000000000000000000000000000000000000000000000000000602082015250565b7f43616e6e6f74207374616b652030000000000000000000000000000000000000600082015250565b7f43616e6e6f742077697468647261772030000000000000000000000000000000600082015250565b7f4f776e61626c653a2063616c6c6572206973206e6f7420746865206f776e6572600082015250565b7f50726f76696465642072657761726420746f6f20686967680000000000000000600082015250565b7f5265656e7472616e637947756172643a207265656e7472616e742063616c6c00600082015250565b6123ef816121ad565b81146123fa57600080fd5b50565b612406816121bf565b811461241157600080fd5b50565b61241d816121f5565b811461242857600080fd5b5056fea26469706673582212201ece025fb0933d6d8cf9fafc36048598b9d41b2270cb63af433d4f4d8ed3b37c64736f6c63430008040033",
  "immutableReferences": {},
  "source": "//SPDX-License-Identifier: MIT\npragma solidity ^0.8.0;\n\nimport \"./MEthToken.sol\";\nimport \"@openzeppelin/contracts/utils/math/SafeMath.sol\";\nimport \"@openzeppelin/contracts/utils/math/Math.sol\";\nimport \"@openzeppelin/contracts/access/Ownable.sol\";\nimport \"@openzeppelin/contracts/security/ReentrancyGuard.sol\";\n\ncontract TokenFarm is Ownable, ReentrancyGuard {\n    using SafeMath for uint256;\n\n    /* ========== STATE VARIABLES ========== */\n\n    bytes32 public constant NAME = \"Staking Farm\";\n    MEthToken public ethToken;\n\n    // total Rewards to be distributed\n    // uint256 public totalRewards;\n\n    uint256 public periodFinish = 0;\n    uint256 public rewardRate = 0;\n    uint256 constant REWARDSDURATION = 7 days;\n    uint256 public lastUpdateTime;\n    uint256 public rewardPerTokenStored;\n    uint256 public totalStaked;\n\n    address[] public stakers;\n    mapping(address => uint256) public userRewardPerTokenPaid;\n    mapping(address => uint256) public rewards;\n    mapping(address => uint256) public stakingBalance;\n    mapping(address => bool) public hasStaked;\n    mapping(address => bool) public isStaking;\n\n    /* ========== CONSTRUCTOR ========== */\n\n    constructor(MEthToken _ethToken) {\n        ethToken = _ethToken;\n        //owner = msg.sender;\n    }\n\n    /* ========== EVENTS ========== */\n\n    event RewardAdded(uint256 reward);\n    event Staked(address indexed user, uint256 amount);\n    event Withdrawn(address indexed user, uint256 amount);\n    event RewardPaid(address indexed user, uint256 reward);\n    event RewardsDurationUpdated(uint256 newDuration);\n    event Recovered(address token, uint256 amount);\n\n    /* ========== MODIFIERS ========== */\n\n    modifier updateReward(address account) {\n        rewardPerTokenStored = rewardPerToken();\n        lastUpdateTime = lastTimeRewardApplicable();\n        if (account != address(0)) {\n            rewards[account] = earned(account);\n            userRewardPerTokenPaid[account] = rewardPerTokenStored;\n        }\n        _;\n    }\n\n    /* ========== MUTATIVE FUNCTIONS ========== */\n\n    // 1. Stakes Tokens (Deposit): An investor will deposit the Token into the smart contracts to starting earning rewards\n    function stakeTokens(uint256 amount)\n        external\n        nonReentrant\n        updateReward(msg.sender)\n    {\n        require(amount > 0, \"Cannot stake 0\");\n\n        //Update total staked balance\n        totalStaked = totalStaked.add(amount);\n\n        // Update staking balance\n        stakingBalance[msg.sender] = stakingBalance[msg.sender] + amount;\n\n        // Add user to stakers array *only* if they haven't staked already\n        if (!hasStaked[msg.sender]) {\n            stakers.push(msg.sender);\n        }\n\n        // update stakng status\n        isStaking[msg.sender] = true;\n        hasStaked[msg.sender] = true;\n\n        // Transfer Mock Eth tokens to this contract for staking\n        // Several tokens do not revert in case of failure and return false. If one of these tokens is used in MyBank, deposit will not revert if the transfer fails, and an attacker can call deposit for free..\n        // Recommendation\n        // Use SafeERC20, or ensure that the transfer/transferFrom return value is checked.\n        ethToken.transferFrom(msg.sender, address(this), amount);\n\n        // emit staked event\n        emit Staked(msg.sender, amount);\n    }\n\n    function withdraw(uint256 amount)\n        public\n        nonReentrant\n        updateReward(msg.sender)\n    {\n        require(amount > 0, \"Cannot withdraw 0\");\n        totalStaked = totalStaked.sub(amount);\n        stakingBalance[msg.sender] = stakingBalance[msg.sender].sub(amount);\n        ethToken.transfer(msg.sender, amount);\n        emit Withdrawn(msg.sender, amount);\n    }\n\n    function getReward() public nonReentrant updateReward(msg.sender) {\n        uint256 reward = rewards[msg.sender];\n        if (reward > 0) {\n            rewards[msg.sender] = 0;\n            ethToken.transfer(msg.sender, reward);\n            emit RewardPaid(msg.sender, reward);\n        }\n    }\n\n    // Unstaking Tokens (Withdraw): Withdraw money from Dapp\n    function unstakeTokens() public {\n        // Update staking status\n        isStaking[msg.sender] = false;\n\n        withdraw(stakingBalance[msg.sender]);\n\n        getReward();\n    }\n\n    // Issuing Tokens: Earning interest (issuing tokens for people who stake them, distribute dap tokens as interes and also allow the investor to unstake their tokens from the app, give them intereset using the app)\n    function issueTokens() external onlyOwner {\n        // Issue tokens to all stakers\n        for (uint256 i = 0; i < stakers.length; i++) {\n            address recipient = stakers[i];\n            uint256 balance = stakingBalance[recipient];\n            if (balance > 0) {\n                ethToken.transfer(recipient, balance);\n            }\n        }\n    }\n\n    // owner call this function to add reward amount to the total rewards\n    // Solidity integer division might truncate. As a result, performing multiplication before division can sometimes avoid loss of precision.\n    function notifyRewardAmount(uint256 reward)\n        external\n        updateReward(address(0))\n    {\n        if (block.timestamp >= periodFinish) {\n            rewardRate = reward.div(REWARDSDURATION);\n        } else {\n            uint256 remaining = periodFinish.sub(block.timestamp);\n            uint256 leftover = remaining.mul(rewardRate);\n            rewardRate = reward.add(leftover).div(REWARDSDURATION);\n        }\n\n        // Ensure the provided reward amount is not more than the balance in the contract.\n        // This keeps the reward rate in the right range, preventing overflows due to\n        // very high values of rewardRate in the earned and rewardsPerToken functions;\n        // Reward + leftover must be less than 2^256 / 10^18 to avoid overflow.\n        uint256 balance = ethToken.balanceOf(address(this));\n        require(\n            rewardRate <= balance.div(REWARDSDURATION),\n            \"Provided reward too high\"\n        );\n\n        lastUpdateTime = block.timestamp;\n        periodFinish = block.timestamp.add(REWARDSDURATION);\n        emit RewardAdded(reward);\n    }\n\n    /* ========== VIEWS ========== */\n\n\n    function name() public pure returns (bytes32) {\n        return NAME;\n    }\n\n    function rewardsDuration() public pure returns (uint256) {\n        return REWARDSDURATION;\n    }\n    function totalSupply() external view returns (uint256) {\n        return totalStaked;\n    }\n\n    function balanceOf(address account) external view returns (uint256) {\n        return stakingBalance[account];\n    }\n\n    function lastTimeRewardApplicable() public view returns (uint256) {\n        return Math.min(block.timestamp, periodFinish);\n    }\n\n    function rewardPerToken() public view returns (uint256) {\n        if (totalStaked == 0) {\n            return rewardPerTokenStored;\n        }\n        return\n            rewardPerTokenStored.add(\n                lastTimeRewardApplicable()\n                    .sub(lastUpdateTime)\n                    .mul(rewardRate)\n                    .mul(1e18)\n                    .div(totalStaked)\n            );\n    }\n\n    function earned(address account) public view returns (uint256) {\n        return\n            stakingBalance[account]\n                .mul(rewardPerToken().sub(userRewardPerTokenPaid[account]))\n                .div(1e18)\n                .add(rewards[account]);\n    }\n\n    function getRewardForDuration() external view returns (uint256) {\n        return rewardRate.mul(REWARDSDURATION);\n    }\n}\n",
  "sourcePath": "/Users/dingchaoz/Documents/Learning/Blockchain/Solidity/defi_yield_farming-main/src/contracts/TokenFarm.sol",
  "compiler": {
    "name": "solc",
    "version": "0.8.4+commit.c7e474f2.Emscripten.clang"
  },
  "schemaVersion": "3.4.1",
  "updatedAt": "2021-05-29T23:13:40.460Z",
  "devdoc": {
    "kind": "dev",
    "methods": {
      "owner()": {
        "details": "Returns the address of the current owner."
      },
      "renounceOwnership()": {
        "details": "Leaves the contract without owner. It will not be possible to call `onlyOwner` functions anymore. Can only be called by the current owner. NOTE: Renouncing ownership will leave the contract without an owner, thereby removing any functionality that is only available to the owner."
      },
      "transferOwnership(address)": {
        "details": "Transfers ownership of the contract to a new account (`newOwner`). Can only be called by the current owner."
      }
    },
    "version": 1
  },
  "userdoc": {
    "kind": "user",
    "methods": {},
    "version": 1
  }
}