{
  "contractName": "TokenFarm",
  "abi": [
    {
      "inputs": [
        {
          "internalType": "contract MEthToken",
          "name": "_ethToken",
          "type": "address"
        }
      ],
      "stateMutability": "nonpayable",
      "type": "constructor"
    },
    {
      "anonymous": false,
      "inputs": [
        {
          "indexed": true,
          "internalType": "address",
          "name": "previousOwner",
          "type": "address"
        },
        {
          "indexed": true,
          "internalType": "address",
          "name": "newOwner",
          "type": "address"
        }
      ],
      "name": "OwnershipTransferred",
      "type": "event"
    },
    {
      "anonymous": false,
      "inputs": [
        {
          "indexed": false,
          "internalType": "uint256",
          "name": "amount",
          "type": "uint256"
        }
      ],
      "name": "RewardAdded",
      "type": "event"
    },
    {
      "anonymous": false,
      "inputs": [
        {
          "indexed": true,
          "internalType": "address",
          "name": "user",
          "type": "address"
        },
        {
          "indexed": false,
          "internalType": "uint256",
          "name": "amount",
          "type": "uint256"
        }
      ],
      "name": "RewardPaid",
      "type": "event"
    },
    {
      "anonymous": false,
      "inputs": [
        {
          "indexed": true,
          "internalType": "address",
          "name": "user",
          "type": "address"
        },
        {
          "indexed": false,
          "internalType": "uint256",
          "name": "amount",
          "type": "uint256"
        }
      ],
      "name": "Staked",
      "type": "event"
    },
    {
      "anonymous": false,
      "inputs": [
        {
          "indexed": true,
          "internalType": "address",
          "name": "user",
          "type": "address"
        },
        {
          "indexed": false,
          "internalType": "uint256",
          "name": "amount",
          "type": "uint256"
        }
      ],
      "name": "Withdrawn",
      "type": "event"
    },
    {
      "inputs": [],
      "name": "NAME",
      "outputs": [
        {
          "internalType": "bytes32",
          "name": "",
          "type": "bytes32"
        }
      ],
      "stateMutability": "view",
      "type": "function",
      "constant": true
    },
    {
      "inputs": [
        {
          "internalType": "address",
          "name": "",
          "type": "address"
        }
      ],
      "name": "hasStaked",
      "outputs": [
        {
          "internalType": "bool",
          "name": "",
          "type": "bool"
        }
      ],
      "stateMutability": "view",
      "type": "function",
      "constant": true
    },
    {
      "inputs": [],
      "name": "lastUpdateTime",
      "outputs": [
        {
          "internalType": "uint256",
          "name": "",
          "type": "uint256"
        }
      ],
      "stateMutability": "view",
      "type": "function",
      "constant": true
    },
    {
      "inputs": [],
      "name": "mToken",
      "outputs": [
        {
          "internalType": "contract MEthToken",
          "name": "",
          "type": "address"
        }
      ],
      "stateMutability": "view",
      "type": "function",
      "constant": true
    },
    {
      "inputs": [],
      "name": "owner",
      "outputs": [
        {
          "internalType": "address",
          "name": "",
          "type": "address"
        }
      ],
      "stateMutability": "view",
      "type": "function",
      "constant": true
    },
    {
      "inputs": [],
      "name": "periodFinish",
      "outputs": [
        {
          "internalType": "uint256",
          "name": "",
          "type": "uint256"
        }
      ],
      "stateMutability": "view",
      "type": "function",
      "constant": true
    },
    {
      "inputs": [],
      "name": "renounceOwnership",
      "outputs": [],
      "stateMutability": "nonpayable",
      "type": "function"
    },
    {
      "inputs": [],
      "name": "rewardPerTokenStored",
      "outputs": [
        {
          "internalType": "uint256",
          "name": "",
          "type": "uint256"
        }
      ],
      "stateMutability": "view",
      "type": "function",
      "constant": true
    },
    {
      "inputs": [],
      "name": "rewardRate",
      "outputs": [
        {
          "internalType": "uint256",
          "name": "",
          "type": "uint256"
        }
      ],
      "stateMutability": "view",
      "type": "function",
      "constant": true
    },
    {
      "inputs": [
        {
          "internalType": "address",
          "name": "",
          "type": "address"
        }
      ],
      "name": "rewards",
      "outputs": [
        {
          "internalType": "uint256",
          "name": "",
          "type": "uint256"
        }
      ],
      "stateMutability": "view",
      "type": "function",
      "constant": true
    },
    {
      "inputs": [
        {
          "internalType": "uint256",
          "name": "",
          "type": "uint256"
        }
      ],
      "name": "stakers",
      "outputs": [
        {
          "internalType": "address",
          "name": "",
          "type": "address"
        }
      ],
      "stateMutability": "view",
      "type": "function",
      "constant": true
    },
    {
      "inputs": [
        {
          "internalType": "address",
          "name": "",
          "type": "address"
        }
      ],
      "name": "stakingBalance",
      "outputs": [
        {
          "internalType": "uint256",
          "name": "",
          "type": "uint256"
        }
      ],
      "stateMutability": "view",
      "type": "function",
      "constant": true
    },
    {
      "inputs": [],
      "name": "token",
      "outputs": [
        {
          "internalType": "contract IERC20",
          "name": "",
          "type": "address"
        }
      ],
      "stateMutability": "view",
      "type": "function",
      "constant": true
    },
    {
      "inputs": [],
      "name": "totalStaked",
      "outputs": [
        {
          "internalType": "uint256",
          "name": "",
          "type": "uint256"
        }
      ],
      "stateMutability": "view",
      "type": "function",
      "constant": true
    },
    {
      "inputs": [
        {
          "internalType": "address",
          "name": "newOwner",
          "type": "address"
        }
      ],
      "name": "transferOwnership",
      "outputs": [],
      "stateMutability": "nonpayable",
      "type": "function"
    },
    {
      "inputs": [
        {
          "internalType": "address",
          "name": "",
          "type": "address"
        }
      ],
      "name": "userRewardPerTokenPaid",
      "outputs": [
        {
          "internalType": "uint256",
          "name": "",
          "type": "uint256"
        }
      ],
      "stateMutability": "view",
      "type": "function",
      "constant": true
    },
    {
      "inputs": [
        {
          "internalType": "uint256",
          "name": "amount",
          "type": "uint256"
        }
      ],
      "name": "stakeTokens",
      "outputs": [],
      "stateMutability": "nonpayable",
      "type": "function"
    },
    {
      "inputs": [
        {
          "internalType": "uint256",
          "name": "amount",
          "type": "uint256"
        }
      ],
      "name": "withdraw",
      "outputs": [],
      "stateMutability": "nonpayable",
      "type": "function"
    },
    {
      "inputs": [],
      "name": "getReward",
      "outputs": [],
      "stateMutability": "nonpayable",
      "type": "function"
    },
    {
      "inputs": [],
      "name": "unstakeTokens",
      "outputs": [],
      "stateMutability": "nonpayable",
      "type": "function"
    },
    {
      "inputs": [
        {
          "internalType": "uint256",
          "name": "amount",
          "type": "uint256"
        }
      ],
      "name": "notifyRewardAmount",
      "outputs": [],
      "stateMutability": "nonpayable",
      "type": "function"
    },
    {
      "inputs": [],
      "name": "refundTokens",
      "outputs": [],
      "stateMutability": "nonpayable",
      "type": "function"
    },
    {
      "inputs": [],
      "name": "rewardsDuration",
      "outputs": [
        {
          "internalType": "uint256",
          "name": "",
          "type": "uint256"
        }
      ],
      "stateMutability": "pure",
      "type": "function",
      "constant": true
    },
    {
      "inputs": [],
      "name": "lastTimeRewardApplicable",
      "outputs": [
        {
          "internalType": "uint256",
          "name": "",
          "type": "uint256"
        }
      ],
      "stateMutability": "view",
      "type": "function",
      "constant": true
    },
    {
      "inputs": [],
      "name": "totalSupply",
      "outputs": [
        {
          "internalType": "uint256",
          "name": "",
          "type": "uint256"
        }
      ],
      "stateMutability": "view",
      "type": "function",
      "constant": true
    },
    {
      "inputs": [
        {
          "internalType": "address",
          "name": "account",
          "type": "address"
        }
      ],
      "name": "balanceOf",
      "outputs": [
        {
          "internalType": "uint256",
          "name": "",
          "type": "uint256"
        }
      ],
      "stateMutability": "view",
      "type": "function",
      "constant": true
    },
    {
      "inputs": [],
      "name": "rewardPerToken",
      "outputs": [
        {
          "internalType": "uint256",
          "name": "",
          "type": "uint256"
        }
      ],
      "stateMutability": "view",
      "type": "function",
      "constant": true
    },
    {
      "inputs": [
        {
          "internalType": "address",
          "name": "account",
          "type": "address"
        }
      ],
      "name": "earned",
      "outputs": [
        {
          "internalType": "uint256",
          "name": "",
          "type": "uint256"
        }
      ],
      "stateMutability": "view",
      "type": "function",
      "constant": true
    },
    {
      "inputs": [],
      "name": "getRewardForDuration",
      "outputs": [
        {
          "internalType": "uint256",
          "name": "",
          "type": "uint256"
        }
      ],
      "stateMutability": "view",
      "type": "function",
      "constant": true
    },
    {
      "inputs": [],
      "name": "name",
      "outputs": [
        {
          "internalType": "bytes32",
          "name": "",
          "type": "bytes32"
        }
      ],
      "stateMutability": "pure",
      "type": "function",
      "constant": true
    }
  ],
  "bytecode": "0x6080604052600060045560006005553480156200001b57600080fd5b5060405162002b6f38038062002b6f8339818101604052810190620000419190620001c2565b600062000053620001a360201b60201c565b9050806000806101000a81548173ffffffffffffffffffffffffffffffffffffffff021916908373ffffffffffffffffffffffffffffffffffffffff1602179055508073ffffffffffffffffffffffffffffffffffffffff16600073ffffffffffffffffffffffffffffffffffffffff167f8be0079c531659141344cd1fd0a4f28419497f9722a3daafe3b4186f6b6457e060405160405180910390a3506001808190555080600360006101000a81548173ffffffffffffffffffffffffffffffffffffffff021916908373ffffffffffffffffffffffffffffffffffffffff160217905550600360009054906101000a900473ffffffffffffffffffffffffffffffffffffffff16600260006101000a81548173ffffffffffffffffffffffffffffffffffffffff021916908373ffffffffffffffffffffffffffffffffffffffff1602179055505062000250565b600033905090565b600081519050620001bc8162000236565b92915050565b600060208284031215620001d557600080fd5b6000620001e584828501620001ab565b91505092915050565b6000620001fb8262000216565b9050919050565b60006200020f82620001ee565b9050919050565b600073ffffffffffffffffffffffffffffffffffffffff82169050919050565b620002418162000202565b81146200024d57600080fd5b50565b61290f80620002606000396000f3fe608060405234801561001057600080fd5b50600436106101d95760003560e01c806380faa57d11610104578063c8f33c91116100a2578063ebe2b12b11610071578063ebe2b12b14610500578063f2fde38b1461051e578063fc0c546a1461053a578063fd5e6dd114610558576101d9565b8063c8f33c9114610476578063c93c8f3414610494578063cd3daf9d146104c4578063df136d65146104e2576101d9565b80638da5cb5b116100de5780638da5cb5b14610412578063a3f4df7e14610430578063a5ce413b1461044e578063c3b6f93914610458576101d9565b806380faa57d146103a6578063817b1cd2146103c45780638b876347146103e2576101d9565b80633c6b16ab1161017c578063710075091161014b5780637100750914610358578063715018a6146103625780637547c7a31461036c5780637b0a47ee14610388576101d9565b80633c6b16ab146102d25780633d18b912146102ee57806345bc78ab146102f857806370a0823114610328576101d9565b806318160ddd116101b857806318160ddd1461025c5780631c1f78eb1461027a5780632e1a7d4d14610298578063386a9525146102b4576101d9565b80628cc262146101de57806306fdde031461020e5780630700037d1461022c575b600080fd5b6101f860048036038101906101f39190611ee7565b610588565b60405161020591906123ca565b60405180910390f35b6102166106a6565b6040516102239190612237565b60405180910390f35b61024660048036038101906102419190611ee7565b6106ce565b60405161025391906123ca565b60405180910390f35b6102646106e6565b60405161027191906123ca565b60405180910390f35b6102826106f0565b60405161028f91906123ca565b60405180910390f35b6102b260048036038101906102ad9190611f39565b61070f565b005b6102bc6109da565b6040516102c991906123ca565b60405180910390f35b6102ec60048036038101906102e79190611f39565b6109e5565b005b6102f6610d4f565b005b610312600480360381019061030d9190611ee7565b610fba565b60405161031f91906123ca565b60405180910390f35b610342600480360381019061033d9190611ee7565b610fd2565b60405161034f91906123ca565b60405180910390f35b61036061101b565b005b61036a611208565b005b61038660048036038101906103819190611f39565b611342565b005b6103906116bd565b60405161039d91906123ca565b60405180910390f35b6103ae6116c3565b6040516103bb91906123ca565b60405180910390f35b6103cc6116d6565b6040516103d991906123ca565b60405180910390f35b6103fc60048036038101906103f79190611ee7565b6116dc565b60405161040991906123ca565b60405180910390f35b61041a6116f4565b60405161042791906121a1565b60405180910390f35b61043861171d565b6040516104459190612237565b60405180910390f35b610456611741565b005b610460611793565b60405161046d919061226d565b60405180910390f35b61047e6117b9565b60405161048b91906123ca565b60405180910390f35b6104ae60048036038101906104a99190611ee7565b6117bf565b6040516104bb919061221c565b60405180910390f35b6104cc6117df565b6040516104d991906123ca565b60405180910390f35b6104ea61186d565b6040516104f791906123ca565b60405180910390f35b610508611873565b60405161051591906123ca565b60405180910390f35b61053860048036038101906105339190611ee7565b611879565b005b610542611a22565b60405161054f9190612252565b60405180910390f35b610572600480360381019061056d9190611f39565b611a48565b60405161057f91906121a1565b60405180910390f35b600061069f600b60008473ffffffffffffffffffffffffffffffffffffffff1673ffffffffffffffffffffffffffffffffffffffff16815260200190815260200160002054610691670de0b6b3a7640000610683610635600a60008973ffffffffffffffffffffffffffffffffffffffff1673ffffffffffffffffffffffffffffffffffffffff168152602001908152602001600020546106276117df565b611a8790919063ffffffff16565b600c60008973ffffffffffffffffffffffffffffffffffffffff1673ffffffffffffffffffffffffffffffffffffffff16815260200190815260200160002054611a9d90919063ffffffff16565b611ab390919063ffffffff16565b611ac990919063ffffffff16565b9050919050565b60007f5374616b696e67204661726d0000000000000000000000000000000000000000905090565b600b6020528060005260406000206000915090505481565b6000600854905090565b600061070a62093a80600554611a9d90919063ffffffff16565b905090565b60026001541415610755576040517f08c379a000000000000000000000000000000000000000000000000000000000815260040161074c906123aa565b60405180910390fd5b6002600181905550336107666117df565b6007819055506107746116c3565b600681905550600073ffffffffffffffffffffffffffffffffffffffff168173ffffffffffffffffffffffffffffffffffffffff1614610841576107b781610588565b600b60008373ffffffffffffffffffffffffffffffffffffffff1673ffffffffffffffffffffffffffffffffffffffff16815260200190815260200160002081905550600754600a60008373ffffffffffffffffffffffffffffffffffffffff1673ffffffffffffffffffffffffffffffffffffffff168152602001908152602001600020819055505b60008211610884576040517f08c379a000000000000000000000000000000000000000000000000000000000815260040161087b9061230a565b60405180910390fd5b61089982600854611a8790919063ffffffff16565b6008819055506108f182600c60003373ffffffffffffffffffffffffffffffffffffffff1673ffffffffffffffffffffffffffffffffffffffff16815260200190815260200160002054611a8790919063ffffffff16565b600c60003373ffffffffffffffffffffffffffffffffffffffff1673ffffffffffffffffffffffffffffffffffffffff168152602001908152602001600020819055506109813383600260009054906101000a900473ffffffffffffffffffffffffffffffffffffffff1673ffffffffffffffffffffffffffffffffffffffff16611adf9092919063ffffffff16565b3373ffffffffffffffffffffffffffffffffffffffff167f7084f5476618d8e60b11ef0d7d3f06914655adb8793e28ff7f018d4c76d505d5836040516109c791906123ca565b60405180910390a2506001808190555050565b600062093a80905090565b6109ed611b65565b73ffffffffffffffffffffffffffffffffffffffff16610a0b6116f4565b73ffffffffffffffffffffffffffffffffffffffff1614610a61576040517f08c379a0000000000000000000000000000000000000000000000000000000008152600401610a589061232a565b60405180910390fd5b6000610a6b6117df565b600781905550610a796116c3565b600681905550600073ffffffffffffffffffffffffffffffffffffffff168173ffffffffffffffffffffffffffffffffffffffff1614610b4657610abc81610588565b600b60008373ffffffffffffffffffffffffffffffffffffffff1673ffffffffffffffffffffffffffffffffffffffff16815260200190815260200160002081905550600754600a60008373ffffffffffffffffffffffffffffffffffffffff1673ffffffffffffffffffffffffffffffffffffffff168152602001908152602001600020819055505b600454421015610bca576000610b6742600454611a8790919063ffffffff16565b90506000610b9362093a80610b858685611a9d90919063ffffffff16565b611ab390919063ffffffff16565b9050610bbd62093a80610baf8387611ac990919063ffffffff16565b611ab390919063ffffffff16565b6005819055505050610be7565b610be062093a8083611ab390919063ffffffff16565b6005819055505b6000600260009054906101000a900473ffffffffffffffffffffffffffffffffffffffff1673ffffffffffffffffffffffffffffffffffffffff166370a08231306040518263ffffffff1660e01b8152600401610c4491906121a1565b60206040518083038186803b158015610c5c57600080fd5b505afa158015610c70573d6000803e3d6000fd5b505050506040513d601f19601f82011682018060405250810190610c949190611f62565b9050610cac62093a8082611ab390919063ffffffff16565b6005541115610cf0576040517f08c379a0000000000000000000000000000000000000000000000000000000008152600401610ce79061234a565b60405180910390fd5b42600681905550610d0d62093a8042611ac990919063ffffffff16565b6004819055507fde88a922e0d3b88b24e9623efeb464919c6bf9f66857a65e2bfcf2ce87a9433d83604051610d4291906123ca565b60405180910390a1505050565b60026001541415610d95576040517f08c379a0000000000000000000000000000000000000000000000000000000008152600401610d8c906123aa565b60405180910390fd5b600260018190555033610da66117df565b600781905550610db46116c3565b600681905550600073ffffffffffffffffffffffffffffffffffffffff168173ffffffffffffffffffffffffffffffffffffffff1614610e8157610df781610588565b600b60008373ffffffffffffffffffffffffffffffffffffffff1673ffffffffffffffffffffffffffffffffffffffff16815260200190815260200160002081905550600754600a60008373ffffffffffffffffffffffffffffffffffffffff1673ffffffffffffffffffffffffffffffffffffffff168152602001908152602001600020819055505b6000600b60003373ffffffffffffffffffffffffffffffffffffffff1673ffffffffffffffffffffffffffffffffffffffff1681526020019081526020016000205490506000811115610faf576000600b60003373ffffffffffffffffffffffffffffffffffffffff1673ffffffffffffffffffffffffffffffffffffffff16815260200190815260200160002081905550610f603382600260009054906101000a900473ffffffffffffffffffffffffffffffffffffffff1673ffffffffffffffffffffffffffffffffffffffff16611adf9092919063ffffffff16565b3373ffffffffffffffffffffffffffffffffffffffff167fe2403640ba68fed3a2f88b7557551d1993f84b99bb10ff833f0cf8db0c5e048682604051610fa691906123ca565b60405180910390a25b505060018081905550565b600c6020528060005260406000206000915090505481565b6000600c60008373ffffffffffffffffffffffffffffffffffffffff1673ffffffffffffffffffffffffffffffffffffffff168152602001908152602001600020549050919050565b611023611b65565b73ffffffffffffffffffffffffffffffffffffffff166110416116f4565b73ffffffffffffffffffffffffffffffffffffffff1614611097576040517f08c379a000000000000000000000000000000000000000000000000000000000815260040161108e9061232a565b60405180910390fd5b60005b600d80549050811015611205576000600d82815481106110e3577f4e487b7100000000000000000000000000000000000000000000000000000000600052603260045260246000fd5b9060005260206000200160009054906101000a900473ffffffffffffffffffffffffffffffffffffffff1690506000600c60008373ffffffffffffffffffffffffffffffffffffffff1673ffffffffffffffffffffffffffffffffffffffff16815260200190815260200160002054905060008111156111f0576000600c60003373ffffffffffffffffffffffffffffffffffffffff1673ffffffffffffffffffffffffffffffffffffffff168152602001908152602001600020819055506111ef8282600260009054906101000a900473ffffffffffffffffffffffffffffffffffffffff1673ffffffffffffffffffffffffffffffffffffffff16611adf9092919063ffffffff16565b5b505080806111fd906125f9565b91505061109a565b50565b611210611b65565b73ffffffffffffffffffffffffffffffffffffffff1661122e6116f4565b73ffffffffffffffffffffffffffffffffffffffff1614611284576040517f08c379a000000000000000000000000000000000000000000000000000000000815260040161127b9061232a565b60405180910390fd5b600073ffffffffffffffffffffffffffffffffffffffff1660008054906101000a900473ffffffffffffffffffffffffffffffffffffffff1673ffffffffffffffffffffffffffffffffffffffff167f8be0079c531659141344cd1fd0a4f28419497f9722a3daafe3b4186f6b6457e060405160405180910390a360008060006101000a81548173ffffffffffffffffffffffffffffffffffffffff021916908373ffffffffffffffffffffffffffffffffffffffff160217905550565b60026001541415611388576040517f08c379a000000000000000000000000000000000000000000000000000000000815260040161137f906123aa565b60405180910390fd5b6002600181905550336113996117df565b6007819055506113a76116c3565b600681905550600073ffffffffffffffffffffffffffffffffffffffff168173ffffffffffffffffffffffffffffffffffffffff1614611474576113ea81610588565b600b60008373ffffffffffffffffffffffffffffffffffffffff1673ffffffffffffffffffffffffffffffffffffffff16815260200190815260200160002081905550600754600a60008373ffffffffffffffffffffffffffffffffffffffff1673ffffffffffffffffffffffffffffffffffffffff168152602001908152602001600020819055505b600082116114b7576040517f08c379a00000000000000000000000000000000000000000000000000000000081526004016114ae906122ca565b60405180910390fd5b6114cc82600854611ac990919063ffffffff16565b60088190555081600c60003373ffffffffffffffffffffffffffffffffffffffff1673ffffffffffffffffffffffffffffffffffffffff1681526020019081526020016000205461151d9190612417565b600c60003373ffffffffffffffffffffffffffffffffffffffff1673ffffffffffffffffffffffffffffffffffffffff16815260200190815260200160002081905550600960003373ffffffffffffffffffffffffffffffffffffffff1673ffffffffffffffffffffffffffffffffffffffff16815260200190815260200160002060009054906101000a900460ff1661161557600d339080600181540180825580915050600190039060005260206000200160009091909190916101000a81548173ffffffffffffffffffffffffffffffffffffffff021916908373ffffffffffffffffffffffffffffffffffffffff1602179055505b611664333084600260009054906101000a900473ffffffffffffffffffffffffffffffffffffffff1673ffffffffffffffffffffffffffffffffffffffff16611b6d909392919063ffffffff16565b3373ffffffffffffffffffffffffffffffffffffffff167f9e71bc8eea02a63969f509818f2dafb9254532904319f9dbda79b67bd34a5f3d836040516116aa91906123ca565b60405180910390a2506001808190555050565b60055481565b60006116d142600454611bf6565b905090565b60085481565b600a6020528060005260406000206000915090505481565b60008060009054906101000a900473ffffffffffffffffffffffffffffffffffffffff16905090565b7f5374616b696e67204661726d000000000000000000000000000000000000000081565b611749610d4f565b611791600c60003373ffffffffffffffffffffffffffffffffffffffff1673ffffffffffffffffffffffffffffffffffffffff1681526020019081526020016000205461070f565b565b600360009054906101000a900473ffffffffffffffffffffffffffffffffffffffff1681565b60065481565b60096020528060005260406000206000915054906101000a900460ff1681565b60008060085414156117f557600754905061186a565b611867611856600854611848670de0b6b3a764000061183a60055461182c60065461181e6116c3565b611a8790919063ffffffff16565b611a9d90919063ffffffff16565b611a9d90919063ffffffff16565b611ab390919063ffffffff16565b600754611ac990919063ffffffff16565b90505b90565b60075481565b60045481565b611881611b65565b73ffffffffffffffffffffffffffffffffffffffff1661189f6116f4565b73ffffffffffffffffffffffffffffffffffffffff16146118f5576040517f08c379a00000000000000000000000000000000000000000000000000000000081526004016118ec9061232a565b60405180910390fd5b600073ffffffffffffffffffffffffffffffffffffffff168173ffffffffffffffffffffffffffffffffffffffff161415611965576040517f08c379a000000000000000000000000000000000000000000000000000000000815260040161195c906122aa565b60405180910390fd5b8073ffffffffffffffffffffffffffffffffffffffff1660008054906101000a900473ffffffffffffffffffffffffffffffffffffffff1673ffffffffffffffffffffffffffffffffffffffff167f8be0079c531659141344cd1fd0a4f28419497f9722a3daafe3b4186f6b6457e060405160405180910390a3806000806101000a81548173ffffffffffffffffffffffffffffffffffffffff021916908373ffffffffffffffffffffffffffffffffffffffff16021790555050565b600260009054906101000a900473ffffffffffffffffffffffffffffffffffffffff1681565b600d8181548110611a5857600080fd5b906000526020600020016000915054906101000a900473ffffffffffffffffffffffffffffffffffffffff1681565b60008183611a9591906124f8565b905092915050565b60008183611aab919061249e565b905092915050565b60008183611ac1919061246d565b905092915050565b60008183611ad79190612417565b905092915050565b611b608363a9059cbb60e01b8484604051602401611afe9291906121f3565b604051602081830303815290604052907bffffffffffffffffffffffffffffffffffffffffffffffffffffffff19166020820180517bffffffffffffffffffffffffffffffffffffffffffffffffffffffff8381831617835250505050611c0f565b505050565b600033905090565b611bf0846323b872dd60e01b858585604051602401611b8e939291906121bc565b604051602081830303815290604052907bffffffffffffffffffffffffffffffffffffffffffffffffffffffff19166020820180517bffffffffffffffffffffffffffffffffffffffffffffffffffffffff8381831617835250505050611c0f565b50505050565b6000818310611c055781611c07565b825b905092915050565b6000611c71826040518060400160405280602081526020017f5361666545524332303a206c6f772d6c6576656c2063616c6c206661696c65648152508573ffffffffffffffffffffffffffffffffffffffff16611cd69092919063ffffffff16565b9050600081511115611cd15780806020019051810190611c919190611f10565b611cd0576040517f08c379a0000000000000000000000000000000000000000000000000000000008152600401611cc79061238a565b60405180910390fd5b5b505050565b6060611ce58484600085611cee565b90509392505050565b6060823073ffffffffffffffffffffffffffffffffffffffff16311015611d4a576040517f08c379a0000000000000000000000000000000000000000000000000000000008152600401611d41906122ea565b60405180910390fd5b611d5385611e19565b611d92576040517f08c379a0000000000000000000000000000000000000000000000000000000008152600401611d899061236a565b60405180910390fd5b6000808673ffffffffffffffffffffffffffffffffffffffff168587604051611dbb919061218a565b60006040518083038185875af1925050503d8060008114611df8576040519150601f19603f3d011682016040523d82523d6000602084013e611dfd565b606091505b5091509150611e0d828286611e2c565b92505050949350505050565b600080823b905060008111915050919050565b60608315611e3c57829050611e8c565b600083511115611e4f5782518084602001fd5b816040517f08c379a0000000000000000000000000000000000000000000000000000000008152600401611e839190612288565b60405180910390fd5b9392505050565b600081359050611ea281612894565b92915050565b600081519050611eb7816128ab565b92915050565b600081359050611ecc816128c2565b92915050565b600081519050611ee1816128c2565b92915050565b600060208284031215611ef957600080fd5b6000611f0784828501611e93565b91505092915050565b600060208284031215611f2257600080fd5b6000611f3084828501611ea8565b91505092915050565b600060208284031215611f4b57600080fd5b6000611f5984828501611ebd565b91505092915050565b600060208284031215611f7457600080fd5b6000611f8284828501611ed2565b91505092915050565b611f948161252c565b82525050565b611fa38161253e565b82525050565b611fb28161254a565b82525050565b6000611fc3826123e5565b611fcd81856123fb565b9350611fdd8185602086016125c6565b80840191505092915050565b611ff28161257e565b82525050565b612001816125a2565b82525050565b6000612012826123f0565b61201c8185612406565b935061202c8185602086016125c6565b612035816126a0565b840191505092915050565b600061204d602683612406565b9150612058826126b1565b604082019050919050565b6000612070600e83612406565b915061207b82612700565b602082019050919050565b6000612093602683612406565b915061209e82612729565b604082019050919050565b60006120b6601183612406565b91506120c182612778565b602082019050919050565b60006120d9602083612406565b91506120e4826127a1565b602082019050919050565b60006120fc601883612406565b9150612107826127ca565b602082019050919050565b600061211f601d83612406565b915061212a826127f3565b602082019050919050565b6000612142602a83612406565b915061214d8261281c565b604082019050919050565b6000612165601f83612406565b91506121708261286b565b602082019050919050565b61218481612574565b82525050565b60006121968284611fb8565b915081905092915050565b60006020820190506121b66000830184611f8b565b92915050565b60006060820190506121d16000830186611f8b565b6121de6020830185611f8b565b6121eb604083018461217b565b949350505050565b60006040820190506122086000830185611f8b565b612215602083018461217b565b9392505050565b60006020820190506122316000830184611f9a565b92915050565b600060208201905061224c6000830184611fa9565b92915050565b60006020820190506122676000830184611fe9565b92915050565b60006020820190506122826000830184611ff8565b92915050565b600060208201905081810360008301526122a28184612007565b905092915050565b600060208201905081810360008301526122c381612040565b9050919050565b600060208201905081810360008301526122e381612063565b9050919050565b6000602082019050818103600083015261230381612086565b9050919050565b60006020820190508181036000830152612323816120a9565b9050919050565b60006020820190508181036000830152612343816120cc565b9050919050565b60006020820190508181036000830152612363816120ef565b9050919050565b6000602082019050818103600083015261238381612112565b9050919050565b600060208201905081810360008301526123a381612135565b9050919050565b600060208201905081810360008301526123c381612158565b9050919050565b60006020820190506123df600083018461217b565b92915050565b600081519050919050565b600081519050919050565b600081905092915050565b600082825260208201905092915050565b600061242282612574565b915061242d83612574565b9250827fffffffffffffffffffffffffffffffffffffffffffffffffffffffffffffffff0382111561246257612461612642565b5b828201905092915050565b600061247882612574565b915061248383612574565b92508261249357612492612671565b5b828204905092915050565b60006124a982612574565b91506124b483612574565b9250817fffffffffffffffffffffffffffffffffffffffffffffffffffffffffffffffff04831182151516156124ed576124ec612642565b5b828202905092915050565b600061250382612574565b915061250e83612574565b92508282101561252157612520612642565b5b828203905092915050565b600061253782612554565b9050919050565b60008115159050919050565b6000819050919050565b600073ffffffffffffffffffffffffffffffffffffffff82169050919050565b6000819050919050565b600061258982612590565b9050919050565b600061259b82612554565b9050919050565b60006125ad826125b4565b9050919050565b60006125bf82612554565b9050919050565b60005b838110156125e45780820151818401526020810190506125c9565b838111156125f3576000848401525b50505050565b600061260482612574565b91507fffffffffffffffffffffffffffffffffffffffffffffffffffffffffffffffff82141561263757612636612642565b5b600182019050919050565b7f4e487b7100000000000000000000000000000000000000000000000000000000600052601160045260246000fd5b7f4e487b7100000000000000000000000000000000000000000000000000000000600052601260045260246000fd5b6000601f19601f8301169050919050565b7f4f776e61626c653a206e6577206f776e657220697320746865207a65726f206160008201527f6464726573730000000000000000000000000000000000000000000000000000602082015250565b7f43616e6e6f74207374616b652030000000000000000000000000000000000000600082015250565b7f416464726573733a20696e73756666696369656e742062616c616e636520666f60008201527f722063616c6c0000000000000000000000000000000000000000000000000000602082015250565b7f43616e6e6f742077697468647261772030000000000000000000000000000000600082015250565b7f4f776e61626c653a2063616c6c6572206973206e6f7420746865206f776e6572600082015250565b7f50726f76696465642072657761726420746f6f20686967680000000000000000600082015250565b7f416464726573733a2063616c6c20746f206e6f6e2d636f6e7472616374000000600082015250565b7f5361666545524332303a204552433230206f7065726174696f6e20646964206e60008201527f6f74207375636365656400000000000000000000000000000000000000000000602082015250565b7f5265656e7472616e637947756172643a207265656e7472616e742063616c6c00600082015250565b61289d8161252c565b81146128a857600080fd5b50565b6128b48161253e565b81146128bf57600080fd5b50565b6128cb81612574565b81146128d657600080fd5b5056fea2646970667358221220c2b117a27a3490cf76f56de0aad2526dbad44bc0a7091e5f46981302ed30369764736f6c63430008040033",
  "immutableReferences": {},
  "source": "//SPDX-License-Identifier: MIT\npragma solidity ^0.8.0;\n\nimport \"./MEthToken.sol\";\nimport \"@openzeppelin/contracts/utils/math/SafeMath.sol\";\nimport \"@openzeppelin/contracts/utils/math/Math.sol\";\nimport \"@openzeppelin/contracts/access/Ownable.sol\";\nimport \"@openzeppelin/contracts/security/ReentrancyGuard.sol\";\nimport \"@openzeppelin/contracts/token/ERC20/IERC20.sol\";\nimport \"@openzeppelin/contracts/token/ERC20/utils/SafeERC20.sol\";\n\n/**\n * @title Token Staking Farm contract\n */\ncontract TokenFarm is Ownable, ReentrancyGuard {\n    using SafeMath for uint256;\n    using SafeERC20 for IERC20;\n\n    /* ========== STATE VARIABLES ========== */\n\n    IERC20 public token;\n    MEthToken public mToken;\n\n    // contrac name\n    bytes32 public constant NAME = \"Staking Farm\";\n\n    // time when current reward period finishes\n    uint256 public periodFinish = 0;\n\n    // reward rate: reward rate * reward remaining time = reward remained\n    uint256 public rewardRate = 0;\n\n    // rewards duration every 7 days\n    uint256 constant REWARDSDURATION = 7 days;\n\n    // last time reward rate is updated\n    uint256 public lastUpdateTime;\n\n    // reward per token staked: rewardPerTokenStored * token staked = reward \n    uint256 public rewardPerTokenStored;\n\n    // total staked token amount\n    uint256 public totalStaked;\n\n    // record if an user staked or not\n    mapping(address => bool) public hasStaked;\n\n    // mapping record each user's reward per token, storing rewardPerTokenStored per user account\n    mapping(address => uint256) public userRewardPerTokenPaid;\n\n    // mapping record each user's reward\n    mapping(address => uint256) public rewards;\n\n    // mapping record each user's staking balance\n    mapping(address => uint256) public stakingBalance;\n\n    // stakers array\n    // Improvement idea: replace array with struct\n    address[] public stakers;\n\n\n    /* ========== CONSTRUCTOR ========== */\n\n    constructor(MEthToken _ethToken) {\n        mToken = _ethToken;\n\n        // Safe ERC20 wrapped to make safe interaction with otehr ERC20 \n        // such as using safeTransfer that throws on failure\n        token = IERC20(mToken);\n    }\n\n    /* ========== EVENTS ========== */\n\n    /**\n     * @dev Emitted when reward `amount` is added to the pool.\n     */\n    event RewardAdded(uint256 amount);\n\n    /**\n     * @dev Emitted when `user` staked token `amount`.\n     */\n    event Staked(address indexed user, uint256 amount);\n\n    /**\n     * @dev Emitted when `user` withdrawn token `amount`.\n     */\n    event Withdrawn(address indexed user, uint256 amount);\n\n    /**\n     * @dev Emitted when reward `amount` is distribtued to `user`.\n     */\n    event RewardPaid(address indexed user, uint256 amount);\n\n\n    /* ========== MODIFIERS ========== */\n\n    /**\n     * @dev Update reward per token, rewards balance for each user\n     * @param account user account address\n     */\n\n     // Improvement ideas: make it as a function instead, since Modifier code is usually executed\n     // before function body, so any state chagnes or external calls violate the Checks-Effects-Interactions pattern\n    modifier updateReward(address account) {\n        rewardPerTokenStored = rewardPerToken();\n        lastUpdateTime = lastTimeRewardApplicable();\n        if (account != address(0)) {\n            rewards[account] = earned(account);\n            userRewardPerTokenPaid[account] = rewardPerTokenStored;\n        }\n        _;\n    }\n\n    /* ========== MUTATIVE FUNCTIONS ========== */\n\n   \n    /**\n     * @dev stake tokens into contract\n     * @param amount token amount staked\n     */\n    function stakeTokens(uint256 amount)\n        external\n        nonReentrant\n        updateReward(msg.sender)\n    {\n        require(amount > 0, \"Cannot stake 0\");\n\n        //Update total staked balance\n        totalStaked = totalStaked.add(amount);\n\n        // Update staking balance\n        stakingBalance[msg.sender] = stakingBalance[msg.sender] + amount;\n\n        // Add user to stakers array *only* if they haven't staked already\n        if (!hasStaked[msg.sender]) {\n            stakers.push(msg.sender);\n        }\n\n        // safeTransferFrom from user to contract\n        token.safeTransferFrom(msg.sender, address(this), amount);\n\n        // emit staked event\n        emit Staked(msg.sender, amount);\n    }\n\n    /**\n     * @dev withdraw tokens out from contract\n     * @param amount token amount withdrawn\n     */\n    function withdraw(uint256 amount)\n        public\n        nonReentrant\n        updateReward(msg.sender)\n    {\n        require(amount > 0, \"Cannot withdraw 0\");\n        totalStaked = totalStaked.sub(amount);\n        stakingBalance[msg.sender] = stakingBalance[msg.sender].sub(amount);\n        token.safeTransfer(msg.sender, amount);\n        emit Withdrawn(msg.sender, amount);\n    }\n\n    /**\n     * @dev distribute reward\n     */\n    function getReward() public nonReentrant updateReward(msg.sender) {\n        uint256 amount = rewards[msg.sender];\n        if (amount > 0) {\n            rewards[msg.sender] = 0;\n            token.safeTransfer(msg.sender, amount);\n            emit RewardPaid(msg.sender, amount);\n        }\n    }\n\n    /**\n     * @dev unstake tokens, all deposited will be withdrawn and reward will also be distributed\n     */\n    function unstakeTokens() external {\n\n        getReward();\n\n        withdraw(stakingBalance[msg.sender]);\n\n        \n    }\n\n\n    /* ========== RESTRICTED FUNCTIONS ========== */\n\n    /**\n     * @dev add reward tokens to the contract by owner\n     * @param amount reward token amount\n     */\n    function notifyRewardAmount(uint256 amount)\n        external\n        onlyOwner\n        updateReward(address(0))\n    {\n\n        // if stil in the current reward period, update reward rate by adding reward amount evenly spreaded across remaining time\n        if (block.timestamp < periodFinish) {\n            uint256 remaining = periodFinish.sub(block.timestamp);\n\n            // amount/rewards duration is reward rate\n            // considering solidity integer division might truncate, performing multiplication before division \n            uint256 leftover = remaining.mul(amount).div(REWARDSDURATION);\n            rewardRate = amount.add(leftover).div(REWARDSDURATION);\n            \n        } else {\n            rewardRate = amount.div(REWARDSDURATION);\n        }\n\n        // Ensure the provided reward amount is not more than the balance in the contract.\n        // This keeps the reward rate in the right range, preventing overflows due to\n        // very high values of rewardRate in the earned and rewardsPerToken functions;\n        // Reward + leftover must be less than 2^256 / 10^18 to avoid overflow.\n        uint256 balance = token.balanceOf(address(this));\n        require(\n            rewardRate <= balance.div(REWARDSDURATION),\n            \"Provided reward too high\"\n        );\n\n\n        // update reward period starting time and finishing time\n        // reward calculation can arguably maintain integrity if timestamp varies by 15 seconds\n        lastUpdateTime = block.timestamp;\n        periodFinish = block.timestamp.add(REWARDSDURATION);\n        emit RewardAdded(amount);\n    }\n\n    /**\n     * @dev refund tokens to users, all deposited will be withdrawn\n     */\n    // Improvement ideas: remove this function as Pull is better than Push\n    // We should shift the transfering risk: fallback function call, running out of gas, etc to user\n    function refundTokens() external onlyOwner {\n        // Issue tokens to all stakers\n        for (uint256 i = 0; i < stakers.length; i++) {\n            address recipient = stakers[i];\n            uint256 balance = stakingBalance[recipient];\n            if (balance > 0) {\n                stakingBalance[msg.sender] = 0;\n                token.safeTransfer(recipient, balance);\n            }\n        }\n    }\n\n\n    /* ========== VIEWS ========== */\n\n    /**\n     * @dev get rewards duration\n     */\n    function rewardsDuration() public pure returns (uint256) {\n        return REWARDSDURATION;\n    }\n\n    /**\n     * @dev get last time the reward applicable\n     */\n    function lastTimeRewardApplicable() public view returns (uint256) {\n        return Math.min(block.timestamp, periodFinish);\n    }\n\n    /**\n     * @dev get total staked supply\n     */\n    function totalSupply() external view returns (uint256) {\n        return totalStaked;\n    }\n\n    /**\n     * @dev get stake balance \n     * @param account user account\n     */\n    function balanceOf(address account) external view returns (uint256) {\n        return stakingBalance[account];\n    }\n\n    /**\n     * @dev compute reward per token staked 10^18fixed-point multiplication to ensure accuracy\n     */\n    function rewardPerToken() public view returns (uint256) {\n        if (totalStaked == 0) {\n            return rewardPerTokenStored;\n        }\n        return\n            rewardPerTokenStored.add(\n                lastTimeRewardApplicable()\n                    .sub(lastUpdateTime)\n                    .mul(rewardRate)\n                    .mul(1e18)\n                    .div(totalStaked)\n            );\n    }\n\n    /**\n     * @dev return reward earned per user account\n     * @param account user address 10^18fixed-point division to ensure accuracy\n     */\n    function earned(address account) public view returns (uint256) {\n        return\n            stakingBalance[account]\n                .mul(rewardPerToken().sub(userRewardPerTokenPaid[account]))\n                .div(1e18)\n                .add(rewards[account]);\n    }\n\n    /**\n     * @dev return reward for a given duration\n     */\n    function getRewardForDuration() external view returns (uint256) {\n        return rewardRate.mul(REWARDSDURATION);\n    }\n\n    /**\n     * @dev get name of the contract \n     */\n    function name() public pure returns (bytes32) {\n        return NAME;\n    }\n}\n\n",
  "sourcePath": "/Users/dingchaoz/Documents/Learning/Blockchain/Solidity/defi_yield_farming-main/src/contracts/TokenFarm.sol",
  "compiler": {
    "name": "solc",
    "version": "0.8.4+commit.c7e474f2.Emscripten.clang"
  },
  "schemaVersion": "3.4.1",
  "updatedAt": "2021-05-31T19:45:02.869Z",
  "networkType": "ethereum",
  "devdoc": {
    "events": {
      "RewardAdded(uint256)": {
        "details": "Emitted when reward `amount` is added to the pool."
      },
      "RewardPaid(address,uint256)": {
        "details": "Emitted when reward `amount` is distribtued to `user`."
      },
      "Staked(address,uint256)": {
        "details": "Emitted when `user` staked token `amount`."
      },
      "Withdrawn(address,uint256)": {
        "details": "Emitted when `user` withdrawn token `amount`."
      }
    },
    "kind": "dev",
    "methods": {
      "balanceOf(address)": {
        "details": "get stake balance ",
        "params": {
          "account": "user account"
        }
      },
      "earned(address)": {
        "details": "return reward earned per user account",
        "params": {
          "account": "user address 10^18fixed-point division to ensure accuracy"
        }
      },
      "getReward()": {
        "details": "distribute reward"
      },
      "getRewardForDuration()": {
        "details": "return reward for a given duration"
      },
      "lastTimeRewardApplicable()": {
        "details": "get last time the reward applicable"
      },
      "name()": {
        "details": "get name of the contract "
      },
      "notifyRewardAmount(uint256)": {
        "details": "add reward tokens to the contract by owner",
        "params": {
          "amount": "reward token amount"
        }
      },
      "owner()": {
        "details": "Returns the address of the current owner."
      },
      "refundTokens()": {
        "details": "refund tokens to users, all deposited will be withdrawn"
      },
      "renounceOwnership()": {
        "details": "Leaves the contract without owner. It will not be possible to call `onlyOwner` functions anymore. Can only be called by the current owner. NOTE: Renouncing ownership will leave the contract without an owner, thereby removing any functionality that is only available to the owner."
      },
      "rewardPerToken()": {
        "details": "compute reward per token staked 10^18fixed-point multiplication to ensure accuracy"
      },
      "rewardsDuration()": {
        "details": "get rewards duration"
      },
      "stakeTokens(uint256)": {
        "details": "stake tokens into contract",
        "params": {
          "amount": "token amount staked"
        }
      },
      "totalSupply()": {
        "details": "get total staked supply"
      },
      "transferOwnership(address)": {
        "details": "Transfers ownership of the contract to a new account (`newOwner`). Can only be called by the current owner."
      },
      "unstakeTokens()": {
        "details": "unstake tokens, all deposited will be withdrawn and reward will also be distributed"
      },
      "withdraw(uint256)": {
        "details": "withdraw tokens out from contract",
        "params": {
          "amount": "token amount withdrawn"
        }
      }
    },
    "title": "Token Staking Farm contract",
    "version": 1
  },
  "userdoc": {
    "kind": "user",
    "methods": {},
    "version": 1
  }
}