{
  "contractName": "TokenFarm",
  "abi": [
    {
      "inputs": [
        {
          "internalType": "contract MEthToken",
          "name": "_ethToken",
          "type": "address"
        }
      ],
      "stateMutability": "nonpayable",
      "type": "constructor"
    },
    {
      "anonymous": false,
      "inputs": [
        {
          "indexed": true,
          "internalType": "address",
          "name": "previousOwner",
          "type": "address"
        },
        {
          "indexed": true,
          "internalType": "address",
          "name": "newOwner",
          "type": "address"
        }
      ],
      "name": "OwnershipTransferred",
      "type": "event"
    },
    {
      "anonymous": false,
      "inputs": [
        {
          "indexed": false,
          "internalType": "address",
          "name": "token",
          "type": "address"
        },
        {
          "indexed": false,
          "internalType": "uint256",
          "name": "amount",
          "type": "uint256"
        }
      ],
      "name": "Recovered",
      "type": "event"
    },
    {
      "anonymous": false,
      "inputs": [
        {
          "indexed": false,
          "internalType": "uint256",
          "name": "reward",
          "type": "uint256"
        }
      ],
      "name": "RewardAdded",
      "type": "event"
    },
    {
      "anonymous": false,
      "inputs": [
        {
          "indexed": true,
          "internalType": "address",
          "name": "user",
          "type": "address"
        },
        {
          "indexed": false,
          "internalType": "uint256",
          "name": "reward",
          "type": "uint256"
        }
      ],
      "name": "RewardPaid",
      "type": "event"
    },
    {
      "anonymous": false,
      "inputs": [
        {
          "indexed": false,
          "internalType": "uint256",
          "name": "newDuration",
          "type": "uint256"
        }
      ],
      "name": "RewardsDurationUpdated",
      "type": "event"
    },
    {
      "anonymous": false,
      "inputs": [
        {
          "indexed": true,
          "internalType": "address",
          "name": "user",
          "type": "address"
        },
        {
          "indexed": false,
          "internalType": "uint256",
          "name": "amount",
          "type": "uint256"
        }
      ],
      "name": "Staked",
      "type": "event"
    },
    {
      "anonymous": false,
      "inputs": [
        {
          "indexed": true,
          "internalType": "address",
          "name": "user",
          "type": "address"
        },
        {
          "indexed": false,
          "internalType": "uint256",
          "name": "amount",
          "type": "uint256"
        }
      ],
      "name": "Withdrawn",
      "type": "event"
    },
    {
      "inputs": [],
      "name": "ethToken",
      "outputs": [
        {
          "internalType": "contract MEthToken",
          "name": "",
          "type": "address"
        }
      ],
      "stateMutability": "view",
      "type": "function"
    },
    {
      "inputs": [
        {
          "internalType": "address",
          "name": "",
          "type": "address"
        }
      ],
      "name": "hasStaked",
      "outputs": [
        {
          "internalType": "bool",
          "name": "",
          "type": "bool"
        }
      ],
      "stateMutability": "view",
      "type": "function"
    },
    {
      "inputs": [
        {
          "internalType": "address",
          "name": "",
          "type": "address"
        }
      ],
      "name": "isStaking",
      "outputs": [
        {
          "internalType": "bool",
          "name": "",
          "type": "bool"
        }
      ],
      "stateMutability": "view",
      "type": "function"
    },
    {
      "inputs": [],
      "name": "lastUpdateTime",
      "outputs": [
        {
          "internalType": "uint256",
          "name": "",
          "type": "uint256"
        }
      ],
      "stateMutability": "view",
      "type": "function"
    },
    {
      "inputs": [],
      "name": "name",
      "outputs": [
        {
          "internalType": "string",
          "name": "",
          "type": "string"
        }
      ],
      "stateMutability": "view",
      "type": "function"
    },
    {
      "inputs": [],
      "name": "owner",
      "outputs": [
        {
          "internalType": "address",
          "name": "",
          "type": "address"
        }
      ],
      "stateMutability": "view",
      "type": "function"
    },
    {
      "inputs": [],
      "name": "periodFinish",
      "outputs": [
        {
          "internalType": "uint256",
          "name": "",
          "type": "uint256"
        }
      ],
      "stateMutability": "view",
      "type": "function"
    },
    {
      "inputs": [],
      "name": "renounceOwnership",
      "outputs": [],
      "stateMutability": "nonpayable",
      "type": "function"
    },
    {
      "inputs": [],
      "name": "rewardPerTokenStored",
      "outputs": [
        {
          "internalType": "uint256",
          "name": "",
          "type": "uint256"
        }
      ],
      "stateMutability": "view",
      "type": "function"
    },
    {
      "inputs": [],
      "name": "rewardRate",
      "outputs": [
        {
          "internalType": "uint256",
          "name": "",
          "type": "uint256"
        }
      ],
      "stateMutability": "view",
      "type": "function"
    },
    {
      "inputs": [
        {
          "internalType": "address",
          "name": "",
          "type": "address"
        }
      ],
      "name": "rewards",
      "outputs": [
        {
          "internalType": "uint256",
          "name": "",
          "type": "uint256"
        }
      ],
      "stateMutability": "view",
      "type": "function"
    },
    {
      "inputs": [],
      "name": "rewardsDuration",
      "outputs": [
        {
          "internalType": "uint256",
          "name": "",
          "type": "uint256"
        }
      ],
      "stateMutability": "view",
      "type": "function"
    },
    {
      "inputs": [
        {
          "internalType": "uint256",
          "name": "",
          "type": "uint256"
        }
      ],
      "name": "stakers",
      "outputs": [
        {
          "internalType": "address",
          "name": "",
          "type": "address"
        }
      ],
      "stateMutability": "view",
      "type": "function"
    },
    {
      "inputs": [
        {
          "internalType": "address",
          "name": "",
          "type": "address"
        }
      ],
      "name": "stakingBalance",
      "outputs": [
        {
          "internalType": "uint256",
          "name": "",
          "type": "uint256"
        }
      ],
      "stateMutability": "view",
      "type": "function"
    },
    {
      "inputs": [],
      "name": "totalRewards",
      "outputs": [
        {
          "internalType": "uint256",
          "name": "",
          "type": "uint256"
        }
      ],
      "stateMutability": "view",
      "type": "function"
    },
    {
      "inputs": [],
      "name": "totalStaked",
      "outputs": [
        {
          "internalType": "uint256",
          "name": "",
          "type": "uint256"
        }
      ],
      "stateMutability": "view",
      "type": "function"
    },
    {
      "inputs": [
        {
          "internalType": "address",
          "name": "newOwner",
          "type": "address"
        }
      ],
      "name": "transferOwnership",
      "outputs": [],
      "stateMutability": "nonpayable",
      "type": "function"
    },
    {
      "inputs": [
        {
          "internalType": "address",
          "name": "",
          "type": "address"
        }
      ],
      "name": "userRewardPerTokenPaid",
      "outputs": [
        {
          "internalType": "uint256",
          "name": "",
          "type": "uint256"
        }
      ],
      "stateMutability": "view",
      "type": "function"
    },
    {
      "inputs": [
        {
          "internalType": "uint256",
          "name": "_amount",
          "type": "uint256"
        }
      ],
      "name": "stakeTokens",
      "outputs": [],
      "stateMutability": "nonpayable",
      "type": "function"
    },
    {
      "inputs": [
        {
          "internalType": "uint256",
          "name": "_amount",
          "type": "uint256"
        }
      ],
      "name": "withdraw",
      "outputs": [],
      "stateMutability": "nonpayable",
      "type": "function"
    },
    {
      "inputs": [],
      "name": "getReward",
      "outputs": [],
      "stateMutability": "nonpayable",
      "type": "function"
    },
    {
      "inputs": [],
      "name": "unstakeTokens",
      "outputs": [],
      "stateMutability": "nonpayable",
      "type": "function"
    },
    {
      "inputs": [],
      "name": "issueTokens",
      "outputs": [],
      "stateMutability": "nonpayable",
      "type": "function"
    },
    {
      "inputs": [
        {
          "internalType": "uint256",
          "name": "reward",
          "type": "uint256"
        }
      ],
      "name": "notifyRewardAmount",
      "outputs": [],
      "stateMutability": "nonpayable",
      "type": "function"
    },
    {
      "inputs": [],
      "name": "totalSupply",
      "outputs": [
        {
          "internalType": "uint256",
          "name": "",
          "type": "uint256"
        }
      ],
      "stateMutability": "view",
      "type": "function"
    },
    {
      "inputs": [
        {
          "internalType": "address",
          "name": "account",
          "type": "address"
        }
      ],
      "name": "balanceOf",
      "outputs": [
        {
          "internalType": "uint256",
          "name": "",
          "type": "uint256"
        }
      ],
      "stateMutability": "view",
      "type": "function"
    },
    {
      "inputs": [],
      "name": "lastTimeRewardApplicable",
      "outputs": [
        {
          "internalType": "uint256",
          "name": "",
          "type": "uint256"
        }
      ],
      "stateMutability": "view",
      "type": "function"
    },
    {
      "inputs": [],
      "name": "rewardPerToken",
      "outputs": [
        {
          "internalType": "uint256",
          "name": "",
          "type": "uint256"
        }
      ],
      "stateMutability": "view",
      "type": "function"
    },
    {
      "inputs": [
        {
          "internalType": "address",
          "name": "account",
          "type": "address"
        }
      ],
      "name": "earned",
      "outputs": [
        {
          "internalType": "uint256",
          "name": "",
          "type": "uint256"
        }
      ],
      "stateMutability": "view",
      "type": "function"
    },
    {
      "inputs": [],
      "name": "getRewardForDuration",
      "outputs": [
        {
          "internalType": "uint256",
          "name": "",
          "type": "uint256"
        }
      ],
      "stateMutability": "view",
      "type": "function"
    }
  ],
  "bytecode": "0x60806040526040518060400160405280601081526020017f457468205374616b696e67204661726d0000000000000000000000000000000081525060029080519060200190620000519291906200019d565b506000600555600060065562093a806007553480156200007057600080fd5b50604051620028dd380380620028dd833981810160405281019062000096919062000264565b6000620000a86200019560201b60201c565b9050806000806101000a81548173ffffffffffffffffffffffffffffffffffffffff021916908373ffffffffffffffffffffffffffffffffffffffff1602179055508073ffffffffffffffffffffffffffffffffffffffff16600073ffffffffffffffffffffffffffffffffffffffff167f8be0079c531659141344cd1fd0a4f28419497f9722a3daafe3b4186f6b6457e060405160405180910390a3506001808190555080600360006101000a81548173ffffffffffffffffffffffffffffffffffffffff021916908373ffffffffffffffffffffffffffffffffffffffff1602179055505062000357565b600033905090565b828054620001ab90620002d8565b90600052602060002090601f016020900481019282620001cf57600085556200021b565b82601f10620001ea57805160ff19168380011785556200021b565b828001600101855582156200021b579182015b828111156200021a578251825591602001919060010190620001fd565b5b5090506200022a91906200022e565b5090565b5b80821115620002495760008160009055506001016200022f565b5090565b6000815190506200025e816200033d565b92915050565b6000602082840312156200027757600080fd5b600062000287848285016200024d565b91505092915050565b60006200029d82620002b8565b9050919050565b6000620002b18262000290565b9050919050565b600073ffffffffffffffffffffffffffffffffffffffff82169050919050565b60006002820490506001821680620002f157607f821691505b602082108114156200030857620003076200030e565b5b50919050565b7f4e487b7100000000000000000000000000000000000000000000000000000000600052602260045260246000fd5b6200034881620002a4565b81146200035457600080fd5b50565b61257680620003676000396000f3fe608060405234801561001057600080fd5b50600436106101d95760003560e01c80637547c7a311610104578063a5ce413b116100a2578063df136d6511610071578063df136d6514610512578063ebe2b12b14610530578063f2fde38b1461054e578063fd5e6dd11461056a576101d9565b8063a5ce413b1461049c578063c8f33c91146104a6578063c93c8f34146104c4578063cd3daf9d146104f4576101d9565b806380faa57d116100de57806380faa57d14610412578063817b1cd2146104305780638b8763471461044e5780638da5cb5b1461047e576101d9565b80637547c7a3146103ba5780637b0a47ee146103d65780637bf1a627146103f4576101d9565b8063386a95251161017c57806360ab58521161014b57806360ab5852146103465780636f49712b1461035057806370a0823114610380578063715018a6146103b0576101d9565b8063386a9525146102d25780633c6b16ab146102f05780633d18b9121461030c57806345bc78ab14610316576101d9565b80630e15561a116101b85780630e15561a1461025c57806318160ddd1461027a5780631c1f78eb146102985780632e1a7d4d146102b6576101d9565b80628cc262146101de57806306fdde031461020e5780630700037d1461022c575b600080fd5b6101f860048036038101906101f39190611d5d565b61059a565b60405161020591906120db565b60405180910390f35b6102166106b8565b6040516102239190611ff9565b60405180910390f35b61024660048036038101906102419190611d5d565b610746565b60405161025391906120db565b60405180910390f35b61026461075e565b60405161027191906120db565b60405180910390f35b610282610764565b60405161028f91906120db565b60405180910390f35b6102a061076e565b6040516102ad91906120db565b60405180910390f35b6102d060048036038101906102cb9190611daf565b61078c565b005b6102da610aba565b6040516102e791906120db565b60405180910390f35b61030a60048036038101906103059190611daf565b610ac0565b005b610314610d96565b005b610330600480360381019061032b9190611d5d565b611064565b60405161033d91906120db565b60405180910390f35b61034e61107c565b005b61036a60048036038101906103659190611d5d565b611287565b6040516103779190611fc3565b60405180910390f35b61039a60048036038101906103959190611d5d565b6112a7565b6040516103a791906120db565b60405180910390f35b6103b86112f0565b005b6103d460048036038101906103cf9190611daf565b61142a565b005b6103de6118b8565b6040516103eb91906120db565b60405180910390f35b6103fc6118be565b6040516104099190611fde565b60405180910390f35b61041a6118e4565b60405161042791906120db565b60405180910390f35b6104386118f7565b60405161044591906120db565b60405180910390f35b61046860048036038101906104639190611d5d565b6118fd565b60405161047591906120db565b60405180910390f35b610486611915565b6040516104939190611f48565b60405180910390f35b6104a461193e565b005b6104ae6119e8565b6040516104bb91906120db565b60405180910390f35b6104de60048036038101906104d99190611d5d565b6119ee565b6040516104eb9190611fc3565b60405180910390f35b6104fc611a0e565b60405161050991906120db565b60405180910390f35b61051a611a9c565b60405161052791906120db565b60405180910390f35b610538611aa2565b60405161054591906120db565b60405180910390f35b61056860048036038101906105639190611d5d565b611aa8565b005b610584600480360381019061057f9190611daf565b611c51565b6040516105919190611f48565b60405180910390f35b60006106b1600d60008473ffffffffffffffffffffffffffffffffffffffff1673ffffffffffffffffffffffffffffffffffffffff168152602001908152602001600020546106a3670de0b6b3a7640000610695610647600c60008973ffffffffffffffffffffffffffffffffffffffff1673ffffffffffffffffffffffffffffffffffffffff16815260200190815260200160002054610639611a0e565b611c9090919063ffffffff16565b600e60008973ffffffffffffffffffffffffffffffffffffffff1673ffffffffffffffffffffffffffffffffffffffff16815260200190815260200160002054611ca690919063ffffffff16565b611cbc90919063ffffffff16565b611cd290919063ffffffff16565b9050919050565b600280546106c5906122c6565b80601f01602080910402602001604051908101604052809291908181526020018280546106f1906122c6565b801561073e5780601f106107135761010080835404028352916020019161073e565b820191906000526020600020905b81548152906001019060200180831161072157829003601f168201915b505050505081565b600d6020528060005260406000206000915090505481565b60045481565b6000600a54905090565b6000610787600754600654611ca690919063ffffffff16565b905090565b600260015414156107d2576040517f08c379a00000000000000000000000000000000000000000000000000000000081526004016107c9906120bb565b60405180910390fd5b6002600181905550336107e3611a0e565b6009819055506107f16118e4565b600881905550600073ffffffffffffffffffffffffffffffffffffffff168173ffffffffffffffffffffffffffffffffffffffff16146108be576108348161059a565b600d60008373ffffffffffffffffffffffffffffffffffffffff1673ffffffffffffffffffffffffffffffffffffffff16815260200190815260200160002081905550600954600c60008373ffffffffffffffffffffffffffffffffffffffff1673ffffffffffffffffffffffffffffffffffffffff168152602001908152602001600020819055505b60008211610901576040517f08c379a00000000000000000000000000000000000000000000000000000000081526004016108f89061205b565b60405180910390fd5b61091682600a54611c9090919063ffffffff16565b600a8190555061096e82600e60003373ffffffffffffffffffffffffffffffffffffffff1673ffffffffffffffffffffffffffffffffffffffff16815260200190815260200160002054611c9090919063ffffffff16565b600e60003373ffffffffffffffffffffffffffffffffffffffff1673ffffffffffffffffffffffffffffffffffffffff16815260200190815260200160002081905550600360009054906101000a900473ffffffffffffffffffffffffffffffffffffffff1673ffffffffffffffffffffffffffffffffffffffff1663a9059cbb33846040518363ffffffff1660e01b8152600401610a0e929190611f9a565b602060405180830381600087803b158015610a2857600080fd5b505af1158015610a3c573d6000803e3d6000fd5b505050506040513d601f19601f82011682018060405250810190610a609190611d86565b503373ffffffffffffffffffffffffffffffffffffffff167f7084f5476618d8e60b11ef0d7d3f06914655adb8793e28ff7f018d4c76d505d583604051610aa791906120db565b60405180910390a2506001808190555050565b60075481565b6000610aca611a0e565b600981905550610ad86118e4565b600881905550600073ffffffffffffffffffffffffffffffffffffffff168173ffffffffffffffffffffffffffffffffffffffff1614610ba557610b1b8161059a565b600d60008373ffffffffffffffffffffffffffffffffffffffff1673ffffffffffffffffffffffffffffffffffffffff16815260200190815260200160002081905550600954600c60008373ffffffffffffffffffffffffffffffffffffffff1673ffffffffffffffffffffffffffffffffffffffff168152602001908152602001600020819055505b6005544210610bce57610bc360075483611cbc90919063ffffffff16565b600681905550610c30565b6000610be542600554611c9090919063ffffffff16565b90506000610bfe60065483611ca690919063ffffffff16565b9050610c27600754610c198387611cd290919063ffffffff16565b611cbc90919063ffffffff16565b60068190555050505b6000600360009054906101000a900473ffffffffffffffffffffffffffffffffffffffff1673ffffffffffffffffffffffffffffffffffffffff166370a08231306040518263ffffffff1660e01b8152600401610c8d9190611f48565b60206040518083038186803b158015610ca557600080fd5b505afa158015610cb9573d6000803e3d6000fd5b505050506040513d601f19601f82011682018060405250810190610cdd9190611dd8565b9050610cf460075482611cbc90919063ffffffff16565b6006541115610d38576040517f08c379a0000000000000000000000000000000000000000000000000000000008152600401610d2f9061209b565b60405180910390fd5b42600881905550610d5460075442611cd290919063ffffffff16565b6005819055507fde88a922e0d3b88b24e9623efeb464919c6bf9f66857a65e2bfcf2ce87a9433d83604051610d8991906120db565b60405180910390a1505050565b60026001541415610ddc576040517f08c379a0000000000000000000000000000000000000000000000000000000008152600401610dd3906120bb565b60405180910390fd5b600260018190555033610ded611a0e565b600981905550610dfb6118e4565b600881905550600073ffffffffffffffffffffffffffffffffffffffff168173ffffffffffffffffffffffffffffffffffffffff1614610ec857610e3e8161059a565b600d60008373ffffffffffffffffffffffffffffffffffffffff1673ffffffffffffffffffffffffffffffffffffffff16815260200190815260200160002081905550600954600c60008373ffffffffffffffffffffffffffffffffffffffff1673ffffffffffffffffffffffffffffffffffffffff168152602001908152602001600020819055505b6000600d60003373ffffffffffffffffffffffffffffffffffffffff1673ffffffffffffffffffffffffffffffffffffffff1681526020019081526020016000205490506000811115611059576000600d60003373ffffffffffffffffffffffffffffffffffffffff1673ffffffffffffffffffffffffffffffffffffffff16815260200190815260200160002081905550600360009054906101000a900473ffffffffffffffffffffffffffffffffffffffff1673ffffffffffffffffffffffffffffffffffffffff1663a9059cbb33836040518363ffffffff1660e01b8152600401610fb7929190611f9a565b602060405180830381600087803b158015610fd157600080fd5b505af1158015610fe5573d6000803e3d6000fd5b505050506040513d601f19601f820116820180604052508101906110099190611d86565b503373ffffffffffffffffffffffffffffffffffffffff167fe2403640ba68fed3a2f88b7557551d1993f84b99bb10ff833f0cf8db0c5e04868260405161105091906120db565b60405180910390a25b505060018081905550565b600e6020528060005260406000206000915090505481565b611084611ce8565b73ffffffffffffffffffffffffffffffffffffffff166110a2611915565b73ffffffffffffffffffffffffffffffffffffffff16146110f8576040517f08c379a00000000000000000000000000000000000000000000000000000000081526004016110ef9061207b565b60405180910390fd5b60005b600b80549050811015611284576000600b8281548110611144577f4e487b7100000000000000000000000000000000000000000000000000000000600052603260045260246000fd5b9060005260206000200160009054906101000a900473ffffffffffffffffffffffffffffffffffffffff1690506000600e60008373ffffffffffffffffffffffffffffffffffffffff1673ffffffffffffffffffffffffffffffffffffffff168152602001908152602001600020549050600081111561126f57600360009054906101000a900473ffffffffffffffffffffffffffffffffffffffff1673ffffffffffffffffffffffffffffffffffffffff1663a9059cbb83836040518363ffffffff1660e01b815260040161121b929190611f9a565b602060405180830381600087803b15801561123557600080fd5b505af1158015611249573d6000803e3d6000fd5b505050506040513d601f19601f8201168201806040525081019061126d9190611d86565b505b5050808061127c906122f8565b9150506110fb565b50565b60106020528060005260406000206000915054906101000a900460ff1681565b6000600e60008373ffffffffffffffffffffffffffffffffffffffff1673ffffffffffffffffffffffffffffffffffffffff168152602001908152602001600020549050919050565b6112f8611ce8565b73ffffffffffffffffffffffffffffffffffffffff16611316611915565b73ffffffffffffffffffffffffffffffffffffffff161461136c576040517f08c379a00000000000000000000000000000000000000000000000000000000081526004016113639061207b565b60405180910390fd5b600073ffffffffffffffffffffffffffffffffffffffff1660008054906101000a900473ffffffffffffffffffffffffffffffffffffffff1673ffffffffffffffffffffffffffffffffffffffff167f8be0079c531659141344cd1fd0a4f28419497f9722a3daafe3b4186f6b6457e060405160405180910390a360008060006101000a81548173ffffffffffffffffffffffffffffffffffffffff021916908373ffffffffffffffffffffffffffffffffffffffff160217905550565b60026001541415611470576040517f08c379a0000000000000000000000000000000000000000000000000000000008152600401611467906120bb565b60405180910390fd5b600260018190555033611481611a0e565b60098190555061148f6118e4565b600881905550600073ffffffffffffffffffffffffffffffffffffffff168173ffffffffffffffffffffffffffffffffffffffff161461155c576114d28161059a565b600d60008373ffffffffffffffffffffffffffffffffffffffff1673ffffffffffffffffffffffffffffffffffffffff16815260200190815260200160002081905550600954600c60008373ffffffffffffffffffffffffffffffffffffffff1673ffffffffffffffffffffffffffffffffffffffff168152602001908152602001600020819055505b6000821161159f576040517f08c379a00000000000000000000000000000000000000000000000000000000081526004016115969061203b565b60405180910390fd5b6115b482600a54611cd290919063ffffffff16565b600a8190555081600e60003373ffffffffffffffffffffffffffffffffffffffff1673ffffffffffffffffffffffffffffffffffffffff168152602001908152602001600020546116059190612112565b600e60003373ffffffffffffffffffffffffffffffffffffffff1673ffffffffffffffffffffffffffffffffffffffff16815260200190815260200160002081905550600f60003373ffffffffffffffffffffffffffffffffffffffff1673ffffffffffffffffffffffffffffffffffffffff16815260200190815260200160002060009054906101000a900460ff166116fd57600b339080600181540180825580915050600190039060005260206000200160009091909190916101000a81548173ffffffffffffffffffffffffffffffffffffffff021916908373ffffffffffffffffffffffffffffffffffffffff1602179055505b6001601060003373ffffffffffffffffffffffffffffffffffffffff1673ffffffffffffffffffffffffffffffffffffffff16815260200190815260200160002060006101000a81548160ff0219169083151502179055506001600f60003373ffffffffffffffffffffffffffffffffffffffff1673ffffffffffffffffffffffffffffffffffffffff16815260200190815260200160002060006101000a81548160ff021916908315150217905550600360009054906101000a900473ffffffffffffffffffffffffffffffffffffffff1673ffffffffffffffffffffffffffffffffffffffff166323b872dd3330856040518463ffffffff1660e01b815260040161180c93929190611f63565b602060405180830381600087803b15801561182657600080fd5b505af115801561183a573d6000803e3d6000fd5b505050506040513d601f19601f8201168201806040525081019061185e9190611d86565b503373ffffffffffffffffffffffffffffffffffffffff167f9e71bc8eea02a63969f509818f2dafb9254532904319f9dbda79b67bd34a5f3d836040516118a591906120db565b60405180910390a2506001808190555050565b60065481565b600360009054906101000a900473ffffffffffffffffffffffffffffffffffffffff1681565b60006118f242600554611cf0565b905090565b600a5481565b600c6020528060005260406000206000915090505481565b60008060009054906101000a900473ffffffffffffffffffffffffffffffffffffffff16905090565b6000601060003373ffffffffffffffffffffffffffffffffffffffff1673ffffffffffffffffffffffffffffffffffffffff16815260200190815260200160002060006101000a81548160ff0219169083151502179055506119de600e60003373ffffffffffffffffffffffffffffffffffffffff1673ffffffffffffffffffffffffffffffffffffffff1681526020019081526020016000205461078c565b6119e6610d96565b565b60085481565b600f6020528060005260406000206000915054906101000a900460ff1681565b600080600a541415611a24576009549050611a99565b611a96611a85600a54611a77670de0b6b3a7640000611a69600654611a5b600854611a4d6118e4565b611c9090919063ffffffff16565b611ca690919063ffffffff16565b611ca690919063ffffffff16565b611cbc90919063ffffffff16565b600954611cd290919063ffffffff16565b90505b90565b60095481565b60055481565b611ab0611ce8565b73ffffffffffffffffffffffffffffffffffffffff16611ace611915565b73ffffffffffffffffffffffffffffffffffffffff1614611b24576040517f08c379a0000000000000000000000000000000000000000000000000000000008152600401611b1b9061207b565b60405180910390fd5b600073ffffffffffffffffffffffffffffffffffffffff168173ffffffffffffffffffffffffffffffffffffffff161415611b94576040517f08c379a0000000000000000000000000000000000000000000000000000000008152600401611b8b9061201b565b60405180910390fd5b8073ffffffffffffffffffffffffffffffffffffffff1660008054906101000a900473ffffffffffffffffffffffffffffffffffffffff1673ffffffffffffffffffffffffffffffffffffffff167f8be0079c531659141344cd1fd0a4f28419497f9722a3daafe3b4186f6b6457e060405160405180910390a3806000806101000a81548173ffffffffffffffffffffffffffffffffffffffff021916908373ffffffffffffffffffffffffffffffffffffffff16021790555050565b600b8181548110611c6157600080fd5b906000526020600020016000915054906101000a900473ffffffffffffffffffffffffffffffffffffffff1681565b60008183611c9e91906121f3565b905092915050565b60008183611cb49190612199565b905092915050565b60008183611cca9190612168565b905092915050565b60008183611ce09190612112565b905092915050565b600033905090565b6000818310611cff5781611d01565b825b905092915050565b600081359050611d18816124fb565b92915050565b600081519050611d2d81612512565b92915050565b600081359050611d4281612529565b92915050565b600081519050611d5781612529565b92915050565b600060208284031215611d6f57600080fd5b6000611d7d84828501611d09565b91505092915050565b600060208284031215611d9857600080fd5b6000611da684828501611d1e565b91505092915050565b600060208284031215611dc157600080fd5b6000611dcf84828501611d33565b91505092915050565b600060208284031215611dea57600080fd5b6000611df884828501611d48565b91505092915050565b611e0a81612227565b82525050565b611e1981612239565b82525050565b611e288161226f565b82525050565b6000611e39826120f6565b611e438185612101565b9350611e53818560208601612293565b611e5c816123ce565b840191505092915050565b6000611e74602683612101565b9150611e7f826123df565b604082019050919050565b6000611e97600e83612101565b9150611ea28261242e565b602082019050919050565b6000611eba601183612101565b9150611ec582612457565b602082019050919050565b6000611edd602083612101565b9150611ee882612480565b602082019050919050565b6000611f00601883612101565b9150611f0b826124a9565b602082019050919050565b6000611f23601f83612101565b9150611f2e826124d2565b602082019050919050565b611f4281612265565b82525050565b6000602082019050611f5d6000830184611e01565b92915050565b6000606082019050611f786000830186611e01565b611f856020830185611e01565b611f926040830184611f39565b949350505050565b6000604082019050611faf6000830185611e01565b611fbc6020830184611f39565b9392505050565b6000602082019050611fd86000830184611e10565b92915050565b6000602082019050611ff36000830184611e1f565b92915050565b600060208201905081810360008301526120138184611e2e565b905092915050565b6000602082019050818103600083015261203481611e67565b9050919050565b6000602082019050818103600083015261205481611e8a565b9050919050565b6000602082019050818103600083015261207481611ead565b9050919050565b6000602082019050818103600083015261209481611ed0565b9050919050565b600060208201905081810360008301526120b481611ef3565b9050919050565b600060208201905081810360008301526120d481611f16565b9050919050565b60006020820190506120f06000830184611f39565b92915050565b600081519050919050565b600082825260208201905092915050565b600061211d82612265565b915061212883612265565b9250827fffffffffffffffffffffffffffffffffffffffffffffffffffffffffffffffff0382111561215d5761215c612341565b5b828201905092915050565b600061217382612265565b915061217e83612265565b92508261218e5761218d612370565b5b828204905092915050565b60006121a482612265565b91506121af83612265565b9250817fffffffffffffffffffffffffffffffffffffffffffffffffffffffffffffffff04831182151516156121e8576121e7612341565b5b828202905092915050565b60006121fe82612265565b915061220983612265565b92508282101561221c5761221b612341565b5b828203905092915050565b600061223282612245565b9050919050565b60008115159050919050565b600073ffffffffffffffffffffffffffffffffffffffff82169050919050565b6000819050919050565b600061227a82612281565b9050919050565b600061228c82612245565b9050919050565b60005b838110156122b1578082015181840152602081019050612296565b838111156122c0576000848401525b50505050565b600060028204905060018216806122de57607f821691505b602082108114156122f2576122f161239f565b5b50919050565b600061230382612265565b91507fffffffffffffffffffffffffffffffffffffffffffffffffffffffffffffffff82141561233657612335612341565b5b600182019050919050565b7f4e487b7100000000000000000000000000000000000000000000000000000000600052601160045260246000fd5b7f4e487b7100000000000000000000000000000000000000000000000000000000600052601260045260246000fd5b7f4e487b7100000000000000000000000000000000000000000000000000000000600052602260045260246000fd5b6000601f19601f8301169050919050565b7f4f776e61626c653a206e6577206f776e657220697320746865207a65726f206160008201527f6464726573730000000000000000000000000000000000000000000000000000602082015250565b7f43616e6e6f74207374616b652030000000000000000000000000000000000000600082015250565b7f43616e6e6f742077697468647261772030000000000000000000000000000000600082015250565b7f4f776e61626c653a2063616c6c6572206973206e6f7420746865206f776e6572600082015250565b7f50726f76696465642072657761726420746f6f20686967680000000000000000600082015250565b7f5265656e7472616e637947756172643a207265656e7472616e742063616c6c00600082015250565b61250481612227565b811461250f57600080fd5b50565b61251b81612239565b811461252657600080fd5b50565b61253281612265565b811461253d57600080fd5b5056fea264697066735822122025d98d7bcce1521b5a99889748d6dccb663ecd6dd2cc6901760d3eeec32f9e1164736f6c63430008040033",
  "immutableReferences": {},
  "source": "//SPDX-License-Identifier: MIT\npragma solidity ^0.8.0;\n\nimport \"./MEthToken.sol\";\nimport \"@openzeppelin/contracts/utils/math/SafeMath.sol\";\nimport \"@openzeppelin/contracts/utils/math/Math.sol\";\nimport \"@openzeppelin/contracts/access/Ownable.sol\";\nimport \"@openzeppelin/contracts/security/ReentrancyGuard.sol\";\n\ncontract TokenFarm is Ownable, ReentrancyGuard {\n    using SafeMath for uint256;\n\n    /* ========== STATE VARIABLES ========== */\n\n    string public name = \"Eth Staking Farm\";\n    MEthToken public ethToken;\n\n    // total Rewards to be distributed\n    uint256 public totalRewards;\n\n    uint256 public periodFinish = 0;\n    uint256 public rewardRate = 0;\n    uint256 public rewardsDuration = 7 days;\n    uint256 public lastUpdateTime;\n    uint256 public rewardPerTokenStored;\n    uint256 public totalStaked;\n\n    address[] public stakers;\n    mapping(address => uint256) public userRewardPerTokenPaid;\n    mapping(address => uint256) public rewards;\n    mapping(address => uint256) public stakingBalance;\n    mapping(address => bool) public hasStaked;\n    mapping(address => bool) public isStaking;\n\n    /* ========== CONSTRUCTOR ========== */\n\n    constructor(MEthToken _ethToken) {\n        ethToken = _ethToken;\n        //owner = msg.sender;\n    }\n\n    /* ========== EVENTS ========== */\n\n    event RewardAdded(uint256 reward);\n    event Staked(address indexed user, uint256 amount);\n    event Withdrawn(address indexed user, uint256 amount);\n    event RewardPaid(address indexed user, uint256 reward);\n    event RewardsDurationUpdated(uint256 newDuration);\n    event Recovered(address token, uint256 amount);\n\n    /* ========== MODIFIERS ========== */\n\n    modifier updateReward(address account) {\n        rewardPerTokenStored = rewardPerToken();\n        lastUpdateTime = lastTimeRewardApplicable();\n        if (account != address(0)) {\n            rewards[account] = earned(account);\n            userRewardPerTokenPaid[account] = rewardPerTokenStored;\n        }\n        _;\n    }\n\n    /* ========== MUTATIVE FUNCTIONS ========== */\n\n    // 1. Stakes Tokens (Deposit): An investor will deposit the Token into the smart contracts to starting earning rewards\n    function stakeTokens(uint256 _amount)\n        external\n        nonReentrant\n        updateReward(msg.sender)\n    {\n        require(_amount > 0, \"Cannot stake 0\");\n\n        //Update total staked balance\n        totalStaked = totalStaked.add(_amount);\n\n        // Update staking balance\n        stakingBalance[msg.sender] = stakingBalance[msg.sender] + _amount;\n\n        // Add user to stakers array *only* if they haven't staked already\n        if (!hasStaked[msg.sender]) {\n            stakers.push(msg.sender);\n        }\n\n        // update stakng status\n        isStaking[msg.sender] = true;\n        hasStaked[msg.sender] = true;\n\n        // Transfer Mock Eth tokens to this contract for staking\n        ethToken.transferFrom(msg.sender, address(this), _amount);\n\n        // emit staked event\n        emit Staked(msg.sender, _amount);\n    }\n\n    function withdraw(uint256 _amount)\n        public\n        nonReentrant\n        updateReward(msg.sender)\n    {\n        require(_amount > 0, \"Cannot withdraw 0\");\n        totalStaked = totalStaked.sub(_amount);\n        stakingBalance[msg.sender] = stakingBalance[msg.sender].sub(_amount);\n        ethToken.transfer(msg.sender, _amount);\n        emit Withdrawn(msg.sender, _amount);\n    }\n\n    function getReward() public nonReentrant updateReward(msg.sender) {\n        uint256 reward = rewards[msg.sender];\n        if (reward > 0) {\n            rewards[msg.sender] = 0;\n            ethToken.transfer(msg.sender, reward);\n            emit RewardPaid(msg.sender, reward);\n        }\n    }\n\n    // Unstaking Tokens (Withdraw): Withdraw money from Dapp\n    function unstakeTokens() public {\n        // Update staking status\n        isStaking[msg.sender] = false;\n\n        withdraw(stakingBalance[msg.sender]);\n\n        getReward();\n    }\n\n    // Issuing Tokens: Earning interest (issuing tokens for people who stake them, distribute dap tokens as interes and also allow the investor to unstake their tokens from the app, give them intereset using the app)\n    function issueTokens() public onlyOwner {\n        // Issue tokens to all stakers\n        for (uint256 i = 0; i < stakers.length; i++) {\n            address recipient = stakers[i];\n            uint256 balance = stakingBalance[recipient];\n            if (balance > 0) {\n                ethToken.transfer(recipient, balance);\n            }\n        }\n    }\n\n    // owner call this function to add reward amount to the total rewards\n    function notifyRewardAmount(uint256 reward)\n        external\n        updateReward(address(0))\n    {\n        if (block.timestamp >= periodFinish) {\n            rewardRate = reward.div(rewardsDuration);\n        } else {\n            uint256 remaining = periodFinish.sub(block.timestamp);\n            uint256 leftover = remaining.mul(rewardRate);\n            rewardRate = reward.add(leftover).div(rewardsDuration);\n        }\n\n        // Ensure the provided reward amount is not more than the balance in the contract.\n        // This keeps the reward rate in the right range, preventing overflows due to\n        // very high values of rewardRate in the earned and rewardsPerToken functions;\n        // Reward + leftover must be less than 2^256 / 10^18 to avoid overflow.\n        uint256 balance = ethToken.balanceOf(address(this));\n        require(\n            rewardRate <= balance.div(rewardsDuration),\n            \"Provided reward too high\"\n        );\n\n        lastUpdateTime = block.timestamp;\n        periodFinish = block.timestamp.add(rewardsDuration);\n        emit RewardAdded(reward);\n    }\n\n    /* ========== VIEWS ========== */\n\n    function totalSupply() external view returns (uint256) {\n        return totalStaked;\n    }\n\n    function balanceOf(address account) external view returns (uint256) {\n        return stakingBalance[account];\n    }\n\n    function lastTimeRewardApplicable() public view returns (uint256) {\n        return Math.min(block.timestamp, periodFinish);\n    }\n\n    function rewardPerToken() public view returns (uint256) {\n        if (totalStaked == 0) {\n            return rewardPerTokenStored;\n        }\n        return\n            rewardPerTokenStored.add(\n                lastTimeRewardApplicable()\n                    .sub(lastUpdateTime)\n                    .mul(rewardRate)\n                    .mul(1e18)\n                    .div(totalStaked)\n            );\n    }\n\n    function earned(address account) public view returns (uint256) {\n        return\n            stakingBalance[account]\n                .mul(rewardPerToken().sub(userRewardPerTokenPaid[account]))\n                .div(1e18)\n                .add(rewards[account]);\n    }\n\n    function getRewardForDuration() external view returns (uint256) {\n        return rewardRate.mul(rewardsDuration);\n    }\n}\n",
  "sourcePath": "/Users/dingchaoz/Documents/Learning/Blockchain/Solidity/defi_yield_farming-main/src/contracts/TokenFarm.sol",
  "compiler": {
    "name": "solc",
    "version": "0.8.4+commit.c7e474f2.Emscripten.clang"
  },
  "schemaVersion": "3.3.3",
  "updatedAt": "2021-05-29T12:16:58.295Z",
  "devdoc": {
    "kind": "dev",
    "methods": {
      "owner()": {
        "details": "Returns the address of the current owner."
      },
      "renounceOwnership()": {
        "details": "Leaves the contract without owner. It will not be possible to call `onlyOwner` functions anymore. Can only be called by the current owner. NOTE: Renouncing ownership will leave the contract without an owner, thereby removing any functionality that is only available to the owner."
      },
      "transferOwnership(address)": {
        "details": "Transfers ownership of the contract to a new account (`newOwner`). Can only be called by the current owner."
      }
    },
    "version": 1
  },
  "userdoc": {
    "kind": "user",
    "methods": {},
    "version": 1
  }
}