{
  "contractName": "TokenFarm",
  "abi": [
    {
      "inputs": [
        {
          "internalType": "contract MEthToken",
          "name": "_ethToken",
          "type": "address"
        }
      ],
      "stateMutability": "nonpayable",
      "type": "constructor"
    },
    {
      "anonymous": false,
      "inputs": [
        {
          "indexed": true,
          "internalType": "address",
          "name": "previousOwner",
          "type": "address"
        },
        {
          "indexed": true,
          "internalType": "address",
          "name": "newOwner",
          "type": "address"
        }
      ],
      "name": "OwnershipTransferred",
      "type": "event"
    },
    {
      "anonymous": false,
      "inputs": [
        {
          "indexed": false,
          "internalType": "address",
          "name": "token",
          "type": "address"
        },
        {
          "indexed": false,
          "internalType": "uint256",
          "name": "amount",
          "type": "uint256"
        }
      ],
      "name": "Recovered",
      "type": "event"
    },
    {
      "anonymous": false,
      "inputs": [
        {
          "indexed": false,
          "internalType": "uint256",
          "name": "reward",
          "type": "uint256"
        }
      ],
      "name": "RewardAdded",
      "type": "event"
    },
    {
      "anonymous": false,
      "inputs": [
        {
          "indexed": true,
          "internalType": "address",
          "name": "user",
          "type": "address"
        },
        {
          "indexed": false,
          "internalType": "uint256",
          "name": "reward",
          "type": "uint256"
        }
      ],
      "name": "RewardPaid",
      "type": "event"
    },
    {
      "anonymous": false,
      "inputs": [
        {
          "indexed": false,
          "internalType": "uint256",
          "name": "newDuration",
          "type": "uint256"
        }
      ],
      "name": "RewardsDurationUpdated",
      "type": "event"
    },
    {
      "anonymous": false,
      "inputs": [
        {
          "indexed": true,
          "internalType": "address",
          "name": "user",
          "type": "address"
        },
        {
          "indexed": false,
          "internalType": "uint256",
          "name": "amount",
          "type": "uint256"
        }
      ],
      "name": "Staked",
      "type": "event"
    },
    {
      "anonymous": false,
      "inputs": [
        {
          "indexed": true,
          "internalType": "address",
          "name": "user",
          "type": "address"
        },
        {
          "indexed": false,
          "internalType": "uint256",
          "name": "amount",
          "type": "uint256"
        }
      ],
      "name": "Withdrawn",
      "type": "event"
    },
    {
      "inputs": [],
      "name": "NAME",
      "outputs": [
        {
          "internalType": "bytes32",
          "name": "",
          "type": "bytes32"
        }
      ],
      "stateMutability": "view",
      "type": "function"
    },
    {
      "inputs": [
        {
          "internalType": "address",
          "name": "",
          "type": "address"
        }
      ],
      "name": "hasStaked",
      "outputs": [
        {
          "internalType": "bool",
          "name": "",
          "type": "bool"
        }
      ],
      "stateMutability": "view",
      "type": "function"
    },
    {
      "inputs": [
        {
          "internalType": "address",
          "name": "",
          "type": "address"
        }
      ],
      "name": "isStaking",
      "outputs": [
        {
          "internalType": "bool",
          "name": "",
          "type": "bool"
        }
      ],
      "stateMutability": "view",
      "type": "function"
    },
    {
      "inputs": [],
      "name": "lastUpdateTime",
      "outputs": [
        {
          "internalType": "uint256",
          "name": "",
          "type": "uint256"
        }
      ],
      "stateMutability": "view",
      "type": "function"
    },
    {
      "inputs": [],
      "name": "mToken",
      "outputs": [
        {
          "internalType": "contract MEthToken",
          "name": "",
          "type": "address"
        }
      ],
      "stateMutability": "view",
      "type": "function"
    },
    {
      "inputs": [],
      "name": "owner",
      "outputs": [
        {
          "internalType": "address",
          "name": "",
          "type": "address"
        }
      ],
      "stateMutability": "view",
      "type": "function"
    },
    {
      "inputs": [],
      "name": "periodFinish",
      "outputs": [
        {
          "internalType": "uint256",
          "name": "",
          "type": "uint256"
        }
      ],
      "stateMutability": "view",
      "type": "function"
    },
    {
      "inputs": [],
      "name": "renounceOwnership",
      "outputs": [],
      "stateMutability": "nonpayable",
      "type": "function"
    },
    {
      "inputs": [],
      "name": "rewardPerTokenStored",
      "outputs": [
        {
          "internalType": "uint256",
          "name": "",
          "type": "uint256"
        }
      ],
      "stateMutability": "view",
      "type": "function"
    },
    {
      "inputs": [],
      "name": "rewardRate",
      "outputs": [
        {
          "internalType": "uint256",
          "name": "",
          "type": "uint256"
        }
      ],
      "stateMutability": "view",
      "type": "function"
    },
    {
      "inputs": [
        {
          "internalType": "address",
          "name": "",
          "type": "address"
        }
      ],
      "name": "rewards",
      "outputs": [
        {
          "internalType": "uint256",
          "name": "",
          "type": "uint256"
        }
      ],
      "stateMutability": "view",
      "type": "function"
    },
    {
      "inputs": [
        {
          "internalType": "uint256",
          "name": "",
          "type": "uint256"
        }
      ],
      "name": "stakers",
      "outputs": [
        {
          "internalType": "address",
          "name": "",
          "type": "address"
        }
      ],
      "stateMutability": "view",
      "type": "function"
    },
    {
      "inputs": [
        {
          "internalType": "address",
          "name": "",
          "type": "address"
        }
      ],
      "name": "stakingBalance",
      "outputs": [
        {
          "internalType": "uint256",
          "name": "",
          "type": "uint256"
        }
      ],
      "stateMutability": "view",
      "type": "function"
    },
    {
      "inputs": [],
      "name": "token",
      "outputs": [
        {
          "internalType": "contract IERC20",
          "name": "",
          "type": "address"
        }
      ],
      "stateMutability": "view",
      "type": "function"
    },
    {
      "inputs": [],
      "name": "totalStaked",
      "outputs": [
        {
          "internalType": "uint256",
          "name": "",
          "type": "uint256"
        }
      ],
      "stateMutability": "view",
      "type": "function"
    },
    {
      "inputs": [
        {
          "internalType": "address",
          "name": "newOwner",
          "type": "address"
        }
      ],
      "name": "transferOwnership",
      "outputs": [],
      "stateMutability": "nonpayable",
      "type": "function"
    },
    {
      "inputs": [
        {
          "internalType": "address",
          "name": "",
          "type": "address"
        }
      ],
      "name": "userRewardPerTokenPaid",
      "outputs": [
        {
          "internalType": "uint256",
          "name": "",
          "type": "uint256"
        }
      ],
      "stateMutability": "view",
      "type": "function"
    },
    {
      "inputs": [
        {
          "internalType": "uint256",
          "name": "amount",
          "type": "uint256"
        }
      ],
      "name": "stakeTokens",
      "outputs": [],
      "stateMutability": "nonpayable",
      "type": "function"
    },
    {
      "inputs": [
        {
          "internalType": "uint256",
          "name": "amount",
          "type": "uint256"
        }
      ],
      "name": "withdraw",
      "outputs": [],
      "stateMutability": "nonpayable",
      "type": "function"
    },
    {
      "inputs": [],
      "name": "getReward",
      "outputs": [],
      "stateMutability": "nonpayable",
      "type": "function"
    },
    {
      "inputs": [],
      "name": "unstakeTokens",
      "outputs": [],
      "stateMutability": "nonpayable",
      "type": "function"
    },
    {
      "inputs": [],
      "name": "issueTokens",
      "outputs": [],
      "stateMutability": "nonpayable",
      "type": "function"
    },
    {
      "inputs": [
        {
          "internalType": "uint256",
          "name": "reward",
          "type": "uint256"
        }
      ],
      "name": "notifyRewardAmount",
      "outputs": [],
      "stateMutability": "nonpayable",
      "type": "function"
    },
    {
      "inputs": [],
      "name": "name",
      "outputs": [
        {
          "internalType": "bytes32",
          "name": "",
          "type": "bytes32"
        }
      ],
      "stateMutability": "pure",
      "type": "function"
    },
    {
      "inputs": [],
      "name": "rewardsDuration",
      "outputs": [
        {
          "internalType": "uint256",
          "name": "",
          "type": "uint256"
        }
      ],
      "stateMutability": "pure",
      "type": "function"
    },
    {
      "inputs": [],
      "name": "totalSupply",
      "outputs": [
        {
          "internalType": "uint256",
          "name": "",
          "type": "uint256"
        }
      ],
      "stateMutability": "view",
      "type": "function"
    },
    {
      "inputs": [
        {
          "internalType": "address",
          "name": "account",
          "type": "address"
        }
      ],
      "name": "balanceOf",
      "outputs": [
        {
          "internalType": "uint256",
          "name": "",
          "type": "uint256"
        }
      ],
      "stateMutability": "view",
      "type": "function"
    },
    {
      "inputs": [],
      "name": "lastTimeRewardApplicable",
      "outputs": [
        {
          "internalType": "uint256",
          "name": "",
          "type": "uint256"
        }
      ],
      "stateMutability": "view",
      "type": "function"
    },
    {
      "inputs": [],
      "name": "rewardPerToken",
      "outputs": [
        {
          "internalType": "uint256",
          "name": "",
          "type": "uint256"
        }
      ],
      "stateMutability": "view",
      "type": "function"
    },
    {
      "inputs": [
        {
          "internalType": "address",
          "name": "account",
          "type": "address"
        }
      ],
      "name": "earned",
      "outputs": [
        {
          "internalType": "uint256",
          "name": "",
          "type": "uint256"
        }
      ],
      "stateMutability": "view",
      "type": "function"
    },
    {
      "inputs": [],
      "name": "getRewardForDuration",
      "outputs": [
        {
          "internalType": "uint256",
          "name": "",
          "type": "uint256"
        }
      ],
      "stateMutability": "view",
      "type": "function"
    }
  ],
  "bytecode": "0x6080604052600060045560006005553480156200001b57600080fd5b5060405162002c1138038062002c118339818101604052810190620000419190620001c2565b600062000053620001a360201b60201c565b9050806000806101000a81548173ffffffffffffffffffffffffffffffffffffffff021916908373ffffffffffffffffffffffffffffffffffffffff1602179055508073ffffffffffffffffffffffffffffffffffffffff16600073ffffffffffffffffffffffffffffffffffffffff167f8be0079c531659141344cd1fd0a4f28419497f9722a3daafe3b4186f6b6457e060405160405180910390a3506001808190555080600360006101000a81548173ffffffffffffffffffffffffffffffffffffffff021916908373ffffffffffffffffffffffffffffffffffffffff160217905550600360009054906101000a900473ffffffffffffffffffffffffffffffffffffffff16600260006101000a81548173ffffffffffffffffffffffffffffffffffffffff021916908373ffffffffffffffffffffffffffffffffffffffff1602179055505062000250565b600033905090565b600081519050620001bc8162000236565b92915050565b600060208284031215620001d557600080fd5b6000620001e584828501620001ab565b91505092915050565b6000620001fb8262000216565b9050919050565b60006200020f82620001ee565b9050919050565b600073ffffffffffffffffffffffffffffffffffffffff82169050919050565b620002418162000202565b81146200024d57600080fd5b50565b6129b180620002606000396000f3fe608060405234801561001057600080fd5b50600436106101e45760003560e01c80637b0a47ee1161010f578063c8f33c91116100a2578063ebe2b12b11610071578063ebe2b12b1461053b578063f2fde38b14610559578063fc0c546a14610575578063fd5e6dd114610593576101e4565b8063c8f33c91146104b1578063c93c8f34146104cf578063cd3daf9d146104ff578063df136d651461051d576101e4565b80638da5cb5b116100de5780638da5cb5b1461044d578063a3f4df7e1461046b578063a5ce413b14610489578063c3b6f93914610493576101e4565b80637b0a47ee146103c357806380faa57d146103e1578063817b1cd2146103ff5780638b8763471461041d576101e4565b80633c6b16ab116101875780636f49712b116101565780636f49712b1461033d57806370a082311461036d578063715018a61461039d5780637547c7a3146103a7576101e4565b80633c6b16ab146102dd5780633d18b912146102f957806345bc78ab1461030357806360ab585214610333576101e4565b806318160ddd116101c357806318160ddd146102675780631c1f78eb146102855780632e1a7d4d146102a3578063386a9525146102bf576101e4565b80628cc262146101e957806306fdde03146102195780630700037d14610237575b600080fd5b61020360048036038101906101fe9190611f89565b6105c3565b604051610210919061246c565b60405180910390f35b6102216106e1565b60405161022e91906122d9565b60405180910390f35b610251600480360381019061024c9190611f89565b610709565b60405161025e919061246c565b60405180910390f35b61026f610721565b60405161027c919061246c565b60405180910390f35b61028d61072b565b60405161029a919061246c565b60405180910390f35b6102bd60048036038101906102b89190611fdb565b61074a565b005b6102c7610a15565b6040516102d4919061246c565b60405180910390f35b6102f760048036038101906102f29190611fdb565b610a20565b005b610301610d0e565b005b61031d60048036038101906103189190611f89565b610f79565b60405161032a919061246c565b60405180910390f35b61033b610f91565b005b61035760048036038101906103529190611f89565b611139565b60405161036491906122be565b60405180910390f35b61038760048036038101906103829190611f89565b611159565b604051610394919061246c565b60405180910390f35b6103a56111a2565b005b6103c160048036038101906103bc9190611fdb565b6112dc565b005b6103cb611707565b6040516103d8919061246c565b60405180910390f35b6103e961170d565b6040516103f6919061246c565b60405180910390f35b610407611720565b604051610414919061246c565b60405180910390f35b61043760048036038101906104329190611f89565b611726565b604051610444919061246c565b60405180910390f35b61045561173e565b6040516104629190612243565b60405180910390f35b610473611767565b60405161048091906122d9565b60405180910390f35b61049161178b565b005b61049b611835565b6040516104a8919061230f565b60405180910390f35b6104b961185b565b6040516104c6919061246c565b60405180910390f35b6104e960048036038101906104e49190611f89565b611861565b6040516104f691906122be565b60405180910390f35b610507611881565b604051610514919061246c565b60405180910390f35b61052561190f565b604051610532919061246c565b60405180910390f35b610543611915565b604051610550919061246c565b60405180910390f35b610573600480360381019061056e9190611f89565b61191b565b005b61057d611ac4565b60405161058a91906122f4565b60405180910390f35b6105ad60048036038101906105a89190611fdb565b611aea565b6040516105ba9190612243565b60405180910390f35b60006106da600b60008473ffffffffffffffffffffffffffffffffffffffff1673ffffffffffffffffffffffffffffffffffffffff168152602001908152602001600020546106cc670de0b6b3a76400006106be610670600a60008973ffffffffffffffffffffffffffffffffffffffff1673ffffffffffffffffffffffffffffffffffffffff16815260200190815260200160002054610662611881565b611b2990919063ffffffff16565b600c60008973ffffffffffffffffffffffffffffffffffffffff1673ffffffffffffffffffffffffffffffffffffffff16815260200190815260200160002054611b3f90919063ffffffff16565b611b5590919063ffffffff16565b611b6b90919063ffffffff16565b9050919050565b60007f5374616b696e67204661726d0000000000000000000000000000000000000000905090565b600b6020528060005260406000206000915090505481565b6000600854905090565b600061074562093a80600554611b3f90919063ffffffff16565b905090565b60026001541415610790576040517f08c379a00000000000000000000000000000000000000000000000000000000081526004016107879061244c565b60405180910390fd5b6002600181905550336107a1611881565b6007819055506107af61170d565b600681905550600073ffffffffffffffffffffffffffffffffffffffff168173ffffffffffffffffffffffffffffffffffffffff161461087c576107f2816105c3565b600b60008373ffffffffffffffffffffffffffffffffffffffff1673ffffffffffffffffffffffffffffffffffffffff16815260200190815260200160002081905550600754600a60008373ffffffffffffffffffffffffffffffffffffffff1673ffffffffffffffffffffffffffffffffffffffff168152602001908152602001600020819055505b600082116108bf576040517f08c379a00000000000000000000000000000000000000000000000000000000081526004016108b6906123ac565b60405180910390fd5b6108d482600854611b2990919063ffffffff16565b60088190555061092c82600c60003373ffffffffffffffffffffffffffffffffffffffff1673ffffffffffffffffffffffffffffffffffffffff16815260200190815260200160002054611b2990919063ffffffff16565b600c60003373ffffffffffffffffffffffffffffffffffffffff1673ffffffffffffffffffffffffffffffffffffffff168152602001908152602001600020819055506109bc3383600260009054906101000a900473ffffffffffffffffffffffffffffffffffffffff1673ffffffffffffffffffffffffffffffffffffffff16611b819092919063ffffffff16565b3373ffffffffffffffffffffffffffffffffffffffff167f7084f5476618d8e60b11ef0d7d3f06914655adb8793e28ff7f018d4c76d505d583604051610a02919061246c565b60405180910390a2506001808190555050565b600062093a80905090565b6000610a2a611881565b600781905550610a3861170d565b600681905550600073ffffffffffffffffffffffffffffffffffffffff168173ffffffffffffffffffffffffffffffffffffffff1614610b0557610a7b816105c3565b600b60008373ffffffffffffffffffffffffffffffffffffffff1673ffffffffffffffffffffffffffffffffffffffff16815260200190815260200160002081905550600754600a60008373ffffffffffffffffffffffffffffffffffffffff1673ffffffffffffffffffffffffffffffffffffffff168152602001908152602001600020819055505b600454421015610b89576000610b2642600454611b2990919063ffffffff16565b90506000610b5262093a80610b448685611b3f90919063ffffffff16565b611b5590919063ffffffff16565b9050610b7c62093a80610b6e8387611b6b90919063ffffffff16565b611b5590919063ffffffff16565b6005819055505050610ba6565b610b9f62093a8083611b5590919063ffffffff16565b6005819055505b6000600260009054906101000a900473ffffffffffffffffffffffffffffffffffffffff1673ffffffffffffffffffffffffffffffffffffffff166370a08231306040518263ffffffff1660e01b8152600401610c039190612243565b60206040518083038186803b158015610c1b57600080fd5b505afa158015610c2f573d6000803e3d6000fd5b505050506040513d601f19601f82011682018060405250810190610c539190612004565b9050610c6b62093a8082611b5590919063ffffffff16565b6005541115610caf576040517f08c379a0000000000000000000000000000000000000000000000000000000008152600401610ca6906123ec565b60405180910390fd5b42600681905550610ccc62093a8042611b6b90919063ffffffff16565b6004819055507fde88a922e0d3b88b24e9623efeb464919c6bf9f66857a65e2bfcf2ce87a9433d83604051610d01919061246c565b60405180910390a1505050565b60026001541415610d54576040517f08c379a0000000000000000000000000000000000000000000000000000000008152600401610d4b9061244c565b60405180910390fd5b600260018190555033610d65611881565b600781905550610d7361170d565b600681905550600073ffffffffffffffffffffffffffffffffffffffff168173ffffffffffffffffffffffffffffffffffffffff1614610e4057610db6816105c3565b600b60008373ffffffffffffffffffffffffffffffffffffffff1673ffffffffffffffffffffffffffffffffffffffff16815260200190815260200160002081905550600754600a60008373ffffffffffffffffffffffffffffffffffffffff1673ffffffffffffffffffffffffffffffffffffffff168152602001908152602001600020819055505b6000600b60003373ffffffffffffffffffffffffffffffffffffffff1673ffffffffffffffffffffffffffffffffffffffff1681526020019081526020016000205490506000811115610f6e576000600b60003373ffffffffffffffffffffffffffffffffffffffff1673ffffffffffffffffffffffffffffffffffffffff16815260200190815260200160002081905550610f1f3382600260009054906101000a900473ffffffffffffffffffffffffffffffffffffffff1673ffffffffffffffffffffffffffffffffffffffff16611b819092919063ffffffff16565b3373ffffffffffffffffffffffffffffffffffffffff167fe2403640ba68fed3a2f88b7557551d1993f84b99bb10ff833f0cf8db0c5e048682604051610f65919061246c565b60405180910390a25b505060018081905550565b600c6020528060005260406000206000915090505481565b610f99611c07565b73ffffffffffffffffffffffffffffffffffffffff16610fb761173e565b73ffffffffffffffffffffffffffffffffffffffff161461100d576040517f08c379a0000000000000000000000000000000000000000000000000000000008152600401611004906123cc565b60405180910390fd5b60005b60098054905081101561113657600060098281548110611059577f4e487b7100000000000000000000000000000000000000000000000000000000600052603260045260246000fd5b9060005260206000200160009054906101000a900473ffffffffffffffffffffffffffffffffffffffff1690506000600c60008373ffffffffffffffffffffffffffffffffffffffff1673ffffffffffffffffffffffffffffffffffffffff1681526020019081526020016000205490506000811115611121576111208282600260009054906101000a900473ffffffffffffffffffffffffffffffffffffffff1673ffffffffffffffffffffffffffffffffffffffff16611b819092919063ffffffff16565b5b5050808061112e9061269b565b915050611010565b50565b600e6020528060005260406000206000915054906101000a900460ff1681565b6000600c60008373ffffffffffffffffffffffffffffffffffffffff1673ffffffffffffffffffffffffffffffffffffffff168152602001908152602001600020549050919050565b6111aa611c07565b73ffffffffffffffffffffffffffffffffffffffff166111c861173e565b73ffffffffffffffffffffffffffffffffffffffff161461121e576040517f08c379a0000000000000000000000000000000000000000000000000000000008152600401611215906123cc565b60405180910390fd5b600073ffffffffffffffffffffffffffffffffffffffff1660008054906101000a900473ffffffffffffffffffffffffffffffffffffffff1673ffffffffffffffffffffffffffffffffffffffff167f8be0079c531659141344cd1fd0a4f28419497f9722a3daafe3b4186f6b6457e060405160405180910390a360008060006101000a81548173ffffffffffffffffffffffffffffffffffffffff021916908373ffffffffffffffffffffffffffffffffffffffff160217905550565b60026001541415611322576040517f08c379a00000000000000000000000000000000000000000000000000000000081526004016113199061244c565b60405180910390fd5b600260018190555033611333611881565b60078190555061134161170d565b600681905550600073ffffffffffffffffffffffffffffffffffffffff168173ffffffffffffffffffffffffffffffffffffffff161461140e57611384816105c3565b600b60008373ffffffffffffffffffffffffffffffffffffffff1673ffffffffffffffffffffffffffffffffffffffff16815260200190815260200160002081905550600754600a60008373ffffffffffffffffffffffffffffffffffffffff1673ffffffffffffffffffffffffffffffffffffffff168152602001908152602001600020819055505b60008211611451576040517f08c379a00000000000000000000000000000000000000000000000000000000081526004016114489061236c565b60405180910390fd5b61146682600854611b6b90919063ffffffff16565b60088190555081600c60003373ffffffffffffffffffffffffffffffffffffffff1673ffffffffffffffffffffffffffffffffffffffff168152602001908152602001600020546114b791906124b9565b600c60003373ffffffffffffffffffffffffffffffffffffffff1673ffffffffffffffffffffffffffffffffffffffff16815260200190815260200160002081905550600d60003373ffffffffffffffffffffffffffffffffffffffff1673ffffffffffffffffffffffffffffffffffffffff16815260200190815260200160002060009054906101000a900460ff166115af576009339080600181540180825580915050600190039060005260206000200160009091909190916101000a81548173ffffffffffffffffffffffffffffffffffffffff021916908373ffffffffffffffffffffffffffffffffffffffff1602179055505b6001600e60003373ffffffffffffffffffffffffffffffffffffffff1673ffffffffffffffffffffffffffffffffffffffff16815260200190815260200160002060006101000a81548160ff0219169083151502179055506001600d60003373ffffffffffffffffffffffffffffffffffffffff1673ffffffffffffffffffffffffffffffffffffffff16815260200190815260200160002060006101000a81548160ff0219169083151502179055506116ae333084600260009054906101000a900473ffffffffffffffffffffffffffffffffffffffff1673ffffffffffffffffffffffffffffffffffffffff16611c0f909392919063ffffffff16565b3373ffffffffffffffffffffffffffffffffffffffff167f9e71bc8eea02a63969f509818f2dafb9254532904319f9dbda79b67bd34a5f3d836040516116f4919061246c565b60405180910390a2506001808190555050565b60055481565b600061171b42600454611c98565b905090565b60085481565b600a6020528060005260406000206000915090505481565b60008060009054906101000a900473ffffffffffffffffffffffffffffffffffffffff16905090565b7f5374616b696e67204661726d000000000000000000000000000000000000000081565b6000600e60003373ffffffffffffffffffffffffffffffffffffffff1673ffffffffffffffffffffffffffffffffffffffff16815260200190815260200160002060006101000a81548160ff0219169083151502179055506117eb610d0e565b611833600c60003373ffffffffffffffffffffffffffffffffffffffff1673ffffffffffffffffffffffffffffffffffffffff1681526020019081526020016000205461074a565b565b600360009054906101000a900473ffffffffffffffffffffffffffffffffffffffff1681565b60065481565b600d6020528060005260406000206000915054906101000a900460ff1681565b600080600854141561189757600754905061190c565b6119096118f86008546118ea670de0b6b3a76400006118dc6005546118ce6006546118c061170d565b611b2990919063ffffffff16565b611b3f90919063ffffffff16565b611b3f90919063ffffffff16565b611b5590919063ffffffff16565b600754611b6b90919063ffffffff16565b90505b90565b60075481565b60045481565b611923611c07565b73ffffffffffffffffffffffffffffffffffffffff1661194161173e565b73ffffffffffffffffffffffffffffffffffffffff1614611997576040517f08c379a000000000000000000000000000000000000000000000000000000000815260040161198e906123cc565b60405180910390fd5b600073ffffffffffffffffffffffffffffffffffffffff168173ffffffffffffffffffffffffffffffffffffffff161415611a07576040517f08c379a00000000000000000000000000000000000000000000000000000000081526004016119fe9061234c565b60405180910390fd5b8073ffffffffffffffffffffffffffffffffffffffff1660008054906101000a900473ffffffffffffffffffffffffffffffffffffffff1673ffffffffffffffffffffffffffffffffffffffff167f8be0079c531659141344cd1fd0a4f28419497f9722a3daafe3b4186f6b6457e060405160405180910390a3806000806101000a81548173ffffffffffffffffffffffffffffffffffffffff021916908373ffffffffffffffffffffffffffffffffffffffff16021790555050565b600260009054906101000a900473ffffffffffffffffffffffffffffffffffffffff1681565b60098181548110611afa57600080fd5b906000526020600020016000915054906101000a900473ffffffffffffffffffffffffffffffffffffffff1681565b60008183611b37919061259a565b905092915050565b60008183611b4d9190612540565b905092915050565b60008183611b63919061250f565b905092915050565b60008183611b7991906124b9565b905092915050565b611c028363a9059cbb60e01b8484604051602401611ba0929190612295565b604051602081830303815290604052907bffffffffffffffffffffffffffffffffffffffffffffffffffffffff19166020820180517bffffffffffffffffffffffffffffffffffffffffffffffffffffffff8381831617835250505050611cb1565b505050565b600033905090565b611c92846323b872dd60e01b858585604051602401611c309392919061225e565b604051602081830303815290604052907bffffffffffffffffffffffffffffffffffffffffffffffffffffffff19166020820180517bffffffffffffffffffffffffffffffffffffffffffffffffffffffff8381831617835250505050611cb1565b50505050565b6000818310611ca75781611ca9565b825b905092915050565b6000611d13826040518060400160405280602081526020017f5361666545524332303a206c6f772d6c6576656c2063616c6c206661696c65648152508573ffffffffffffffffffffffffffffffffffffffff16611d789092919063ffffffff16565b9050600081511115611d735780806020019051810190611d339190611fb2565b611d72576040517f08c379a0000000000000000000000000000000000000000000000000000000008152600401611d699061242c565b60405180910390fd5b5b505050565b6060611d878484600085611d90565b90509392505050565b6060823073ffffffffffffffffffffffffffffffffffffffff16311015611dec576040517f08c379a0000000000000000000000000000000000000000000000000000000008152600401611de39061238c565b60405180910390fd5b611df585611ebb565b611e34576040517f08c379a0000000000000000000000000000000000000000000000000000000008152600401611e2b9061240c565b60405180910390fd5b6000808673ffffffffffffffffffffffffffffffffffffffff168587604051611e5d919061222c565b60006040518083038185875af1925050503d8060008114611e9a576040519150601f19603f3d011682016040523d82523d6000602084013e611e9f565b606091505b5091509150611eaf828286611ece565b92505050949350505050565b600080823b905060008111915050919050565b60608315611ede57829050611f2e565b600083511115611ef15782518084602001fd5b816040517f08c379a0000000000000000000000000000000000000000000000000000000008152600401611f25919061232a565b60405180910390fd5b9392505050565b600081359050611f4481612936565b92915050565b600081519050611f598161294d565b92915050565b600081359050611f6e81612964565b92915050565b600081519050611f8381612964565b92915050565b600060208284031215611f9b57600080fd5b6000611fa984828501611f35565b91505092915050565b600060208284031215611fc457600080fd5b6000611fd284828501611f4a565b91505092915050565b600060208284031215611fed57600080fd5b6000611ffb84828501611f5f565b91505092915050565b60006020828403121561201657600080fd5b600061202484828501611f74565b91505092915050565b612036816125ce565b82525050565b612045816125e0565b82525050565b612054816125ec565b82525050565b600061206582612487565b61206f818561249d565b935061207f818560208601612668565b80840191505092915050565b61209481612620565b82525050565b6120a381612644565b82525050565b60006120b482612492565b6120be81856124a8565b93506120ce818560208601612668565b6120d781612742565b840191505092915050565b60006120ef6026836124a8565b91506120fa82612753565b604082019050919050565b6000612112600e836124a8565b915061211d826127a2565b602082019050919050565b60006121356026836124a8565b9150612140826127cb565b604082019050919050565b60006121586011836124a8565b91506121638261281a565b602082019050919050565b600061217b6020836124a8565b915061218682612843565b602082019050919050565b600061219e6018836124a8565b91506121a98261286c565b602082019050919050565b60006121c1601d836124a8565b91506121cc82612895565b602082019050919050565b60006121e4602a836124a8565b91506121ef826128be565b604082019050919050565b6000612207601f836124a8565b91506122128261290d565b602082019050919050565b61222681612616565b82525050565b6000612238828461205a565b915081905092915050565b6000602082019050612258600083018461202d565b92915050565b6000606082019050612273600083018661202d565b612280602083018561202d565b61228d604083018461221d565b949350505050565b60006040820190506122aa600083018561202d565b6122b7602083018461221d565b9392505050565b60006020820190506122d3600083018461203c565b92915050565b60006020820190506122ee600083018461204b565b92915050565b6000602082019050612309600083018461208b565b92915050565b6000602082019050612324600083018461209a565b92915050565b6000602082019050818103600083015261234481846120a9565b905092915050565b60006020820190508181036000830152612365816120e2565b9050919050565b6000602082019050818103600083015261238581612105565b9050919050565b600060208201905081810360008301526123a581612128565b9050919050565b600060208201905081810360008301526123c58161214b565b9050919050565b600060208201905081810360008301526123e58161216e565b9050919050565b6000602082019050818103600083015261240581612191565b9050919050565b60006020820190508181036000830152612425816121b4565b9050919050565b60006020820190508181036000830152612445816121d7565b9050919050565b60006020820190508181036000830152612465816121fa565b9050919050565b6000602082019050612481600083018461221d565b92915050565b600081519050919050565b600081519050919050565b600081905092915050565b600082825260208201905092915050565b60006124c482612616565b91506124cf83612616565b9250827fffffffffffffffffffffffffffffffffffffffffffffffffffffffffffffffff03821115612504576125036126e4565b5b828201905092915050565b600061251a82612616565b915061252583612616565b92508261253557612534612713565b5b828204905092915050565b600061254b82612616565b915061255683612616565b9250817fffffffffffffffffffffffffffffffffffffffffffffffffffffffffffffffff048311821515161561258f5761258e6126e4565b5b828202905092915050565b60006125a582612616565b91506125b083612616565b9250828210156125c3576125c26126e4565b5b828203905092915050565b60006125d9826125f6565b9050919050565b60008115159050919050565b6000819050919050565b600073ffffffffffffffffffffffffffffffffffffffff82169050919050565b6000819050919050565b600061262b82612632565b9050919050565b600061263d826125f6565b9050919050565b600061264f82612656565b9050919050565b6000612661826125f6565b9050919050565b60005b8381101561268657808201518184015260208101905061266b565b83811115612695576000848401525b50505050565b60006126a682612616565b91507fffffffffffffffffffffffffffffffffffffffffffffffffffffffffffffffff8214156126d9576126d86126e4565b5b600182019050919050565b7f4e487b7100000000000000000000000000000000000000000000000000000000600052601160045260246000fd5b7f4e487b7100000000000000000000000000000000000000000000000000000000600052601260045260246000fd5b6000601f19601f8301169050919050565b7f4f776e61626c653a206e6577206f776e657220697320746865207a65726f206160008201527f6464726573730000000000000000000000000000000000000000000000000000602082015250565b7f43616e6e6f74207374616b652030000000000000000000000000000000000000600082015250565b7f416464726573733a20696e73756666696369656e742062616c616e636520666f60008201527f722063616c6c0000000000000000000000000000000000000000000000000000602082015250565b7f43616e6e6f742077697468647261772030000000000000000000000000000000600082015250565b7f4f776e61626c653a2063616c6c6572206973206e6f7420746865206f776e6572600082015250565b7f50726f76696465642072657761726420746f6f20686967680000000000000000600082015250565b7f416464726573733a2063616c6c20746f206e6f6e2d636f6e7472616374000000600082015250565b7f5361666545524332303a204552433230206f7065726174696f6e20646964206e60008201527f6f74207375636365656400000000000000000000000000000000000000000000602082015250565b7f5265656e7472616e637947756172643a207265656e7472616e742063616c6c00600082015250565b61293f816125ce565b811461294a57600080fd5b50565b612956816125e0565b811461296157600080fd5b50565b61296d81612616565b811461297857600080fd5b5056fea2646970667358221220df322d02bf9c0222062c8a5c876a43a34c93ec3a937fbd572dc2851fa9e7903164736f6c63430008040033",
  "immutableReferences": {},
  "source": "//SPDX-License-Identifier: MIT\npragma solidity ^0.8.0;\n\nimport \"./MEthToken.sol\";\nimport \"@openzeppelin/contracts/utils/math/SafeMath.sol\";\nimport \"@openzeppelin/contracts/utils/math/Math.sol\";\nimport \"@openzeppelin/contracts/access/Ownable.sol\";\nimport \"@openzeppelin/contracts/security/ReentrancyGuard.sol\";\n\nimport \"@openzeppelin/contracts/token/ERC20/IERC20.sol\";\nimport \"@openzeppelin/contracts/token/ERC20/utils/SafeERC20.sol\";\n\ncontract TokenFarm is Ownable, ReentrancyGuard {\n    using SafeMath for uint256;\n    using SafeERC20 for IERC20;\n\n    /* ========== STATE VARIABLES ========== */\n\n    bytes32 public constant NAME = \"Staking Farm\";\n    IERC20 public token;\n    MEthToken public mToken;\n\n    // total Rewards to be distributed\n    // uint256 public totalRewards;\n\n    uint256 public periodFinish = 0;\n    uint256 public rewardRate = 0;\n    uint256 constant REWARDSDURATION = 7 days;\n    uint256 public lastUpdateTime;\n    uint256 public rewardPerTokenStored;\n    uint256 public totalStaked;\n\n    address[] public stakers;\n    mapping(address => uint256) public userRewardPerTokenPaid;\n    mapping(address => uint256) public rewards;\n    mapping(address => uint256) public stakingBalance;\n    mapping(address => bool) public hasStaked;\n    mapping(address => bool) public isStaking;\n\n    /* ========== CONSTRUCTOR ========== */\n\n    constructor(MEthToken _ethToken) {\n        mToken = _ethToken;\n        token = IERC20(mToken);\n    }\n\n    /* ========== EVENTS ========== */\n\n    event RewardAdded(uint256 reward);\n    event Staked(address indexed user, uint256 amount);\n    event Withdrawn(address indexed user, uint256 amount);\n    event RewardPaid(address indexed user, uint256 reward);\n    event RewardsDurationUpdated(uint256 newDuration);\n    event Recovered(address token, uint256 amount);\n\n    /* ========== MODIFIERS ========== */\n\n    modifier updateReward(address account) {\n        rewardPerTokenStored = rewardPerToken();\n        lastUpdateTime = lastTimeRewardApplicable();\n        if (account != address(0)) {\n            rewards[account] = earned(account);\n            userRewardPerTokenPaid[account] = rewardPerTokenStored;\n        }\n        _;\n    }\n\n    /* ========== MUTATIVE FUNCTIONS ========== */\n\n    // 1. Stakes Tokens (Deposit): An investor will deposit the Token into the smart contracts to starting earning rewards\n    function stakeTokens(uint256 amount)\n        external\n        nonReentrant\n        updateReward(msg.sender)\n    {\n        require(amount > 0, \"Cannot stake 0\");\n\n        //Update total staked balance\n        totalStaked = totalStaked.add(amount);\n\n        // Update staking balance\n        stakingBalance[msg.sender] = stakingBalance[msg.sender] + amount;\n\n        // Add user to stakers array *only* if they haven't staked already\n        if (!hasStaked[msg.sender]) {\n            stakers.push(msg.sender);\n        }\n\n        // update stakng status\n        isStaking[msg.sender] = true;\n        hasStaked[msg.sender] = true;\n\n        // Transfer Mock Eth tokens to this contract for staking\n        // Several tokens do not revert in case of failure and return false. If one of these tokens is used in MyBank, deposit will not revert if the safeTransfer fails, and an attacker can call deposit for free..\n        // Recommendation\n        // Use SafeERC20, or ensure that the safeTransfer/safeTransferFrom return value is checked.\n        token.safeTransferFrom(msg.sender, address(this), amount);\n\n        // emit staked event\n        emit Staked(msg.sender, amount);\n    }\n\n    function withdraw(uint256 amount)\n        public\n        nonReentrant\n        updateReward(msg.sender)\n    {\n        require(amount > 0, \"Cannot withdraw 0\");\n        totalStaked = totalStaked.sub(amount);\n        stakingBalance[msg.sender] = stakingBalance[msg.sender].sub(amount);\n        token.safeTransfer(msg.sender, amount);\n        emit Withdrawn(msg.sender, amount);\n    }\n\n    function getReward() public nonReentrant updateReward(msg.sender) {\n        uint256 reward = rewards[msg.sender];\n        if (reward > 0) {\n            rewards[msg.sender] = 0;\n            token.safeTransfer(msg.sender, reward);\n            emit RewardPaid(msg.sender, reward);\n        }\n    }\n\n    // Unstaking Tokens (Withdraw): Withdraw money from Dapp\n    function unstakeTokens() public {\n        // Update staking status\n        isStaking[msg.sender] = false;\n\n        getReward();\n\n        withdraw(stakingBalance[msg.sender]);\n\n        \n    }\n\n    // Issuing Tokens: Earning interest (issuing tokens for people who stake them, distribute dap tokens as interes and also allow the investor to unstake their tokens from the app, give them intereset using the app)\n    function issueTokens() external onlyOwner {\n        // Issue tokens to all stakers\n        for (uint256 i = 0; i < stakers.length; i++) {\n            address recipient = stakers[i];\n            uint256 balance = stakingBalance[recipient];\n            if (balance > 0) {\n                token.safeTransfer(recipient, balance);\n            }\n        }\n    }\n\n    // owner call this function to add reward amount to the total rewards\n    // Solidity integer division might truncate. As a result, performing multiplication before division can sometimes avoid loss of precision.\n    function notifyRewardAmount(uint256 reward)\n        external\n        updateReward(address(0))\n    {\n\n\n        if (block.timestamp < periodFinish) {\n            uint256 remaining = periodFinish.sub(block.timestamp);\n            // uint256 leftover = remaining.mul(rewardRate);\n            uint256 leftover = remaining.mul(reward).div(REWARDSDURATION);\n            rewardRate = reward.add(leftover).div(REWARDSDURATION);\n            \n        } else {\n            rewardRate = reward.div(REWARDSDURATION);\n        }\n\n        // Ensure the provided reward amount is not more than the balance in the contract.\n        // This keeps the reward rate in the right range, preventing overflows due to\n        // very high values of rewardRate in the earned and rewardsPerToken functions;\n        // Reward + leftover must be less than 2^256 / 10^18 to avoid overflow.\n        uint256 balance = token.balanceOf(address(this));\n        require(\n            rewardRate <= balance.div(REWARDSDURATION),\n            \"Provided reward too high\"\n        );\n\n        lastUpdateTime = block.timestamp;\n        periodFinish = block.timestamp.add(REWARDSDURATION);\n        emit RewardAdded(reward);\n    }\n\n    /* ========== VIEWS ========== */\n\n\n    function name() public pure returns (bytes32) {\n        return NAME;\n    }\n\n    function rewardsDuration() public pure returns (uint256) {\n        return REWARDSDURATION;\n    }\n    function totalSupply() external view returns (uint256) {\n        return totalStaked;\n    }\n\n    function balanceOf(address account) external view returns (uint256) {\n        return stakingBalance[account];\n    }\n\n    function lastTimeRewardApplicable() public view returns (uint256) {\n        return Math.min(block.timestamp, periodFinish);\n    }\n\n    function rewardPerToken() public view returns (uint256) {\n        if (totalStaked == 0) {\n            return rewardPerTokenStored;\n        }\n        return\n            rewardPerTokenStored.add(\n                lastTimeRewardApplicable()\n                    .sub(lastUpdateTime)\n                    .mul(rewardRate)\n                    .mul(1e18)\n                    .div(totalStaked)\n            );\n    }\n\n    function earned(address account) public view returns (uint256) {\n        return\n            stakingBalance[account]\n                .mul(rewardPerToken().sub(userRewardPerTokenPaid[account]))\n                .div(1e18)\n                .add(rewards[account]);\n    }\n\n    function getRewardForDuration() external view returns (uint256) {\n        return rewardRate.mul(REWARDSDURATION);\n    }\n}\n",
  "sourcePath": "/Users/dingchaoz/Documents/Learning/Blockchain/Solidity/defi_yield_farming-main/src/contracts/TokenFarm.sol",
  "compiler": {
    "name": "solc",
    "version": "0.8.4+commit.c7e474f2.Emscripten.clang"
  },
  "schemaVersion": "3.3.3",
  "updatedAt": "2021-05-30T05:43:23.587Z",
  "devdoc": {
    "kind": "dev",
    "methods": {
      "owner()": {
        "details": "Returns the address of the current owner."
      },
      "renounceOwnership()": {
        "details": "Leaves the contract without owner. It will not be possible to call `onlyOwner` functions anymore. Can only be called by the current owner. NOTE: Renouncing ownership will leave the contract without an owner, thereby removing any functionality that is only available to the owner."
      },
      "transferOwnership(address)": {
        "details": "Transfers ownership of the contract to a new account (`newOwner`). Can only be called by the current owner."
      }
    },
    "version": 1
  },
  "userdoc": {
    "kind": "user",
    "methods": {},
    "version": 1
  }
}