{
  "contractName": "TokenFarm",
  "abi": [
    {
      "inputs": [
        {
          "internalType": "contract MEthToken",
          "name": "_ethToken",
          "type": "address"
        }
      ],
      "stateMutability": "nonpayable",
      "type": "constructor"
    },
    {
      "anonymous": false,
      "inputs": [
        {
          "indexed": true,
          "internalType": "address",
          "name": "previousOwner",
          "type": "address"
        },
        {
          "indexed": true,
          "internalType": "address",
          "name": "newOwner",
          "type": "address"
        }
      ],
      "name": "OwnershipTransferred",
      "type": "event"
    },
    {
      "anonymous": false,
      "inputs": [
        {
          "indexed": false,
          "internalType": "address",
          "name": "token",
          "type": "address"
        },
        {
          "indexed": false,
          "internalType": "uint256",
          "name": "amount",
          "type": "uint256"
        }
      ],
      "name": "Recovered",
      "type": "event"
    },
    {
      "anonymous": false,
      "inputs": [
        {
          "indexed": false,
          "internalType": "uint256",
          "name": "reward",
          "type": "uint256"
        }
      ],
      "name": "RewardAdded",
      "type": "event"
    },
    {
      "anonymous": false,
      "inputs": [
        {
          "indexed": true,
          "internalType": "address",
          "name": "user",
          "type": "address"
        },
        {
          "indexed": false,
          "internalType": "uint256",
          "name": "reward",
          "type": "uint256"
        }
      ],
      "name": "RewardPaid",
      "type": "event"
    },
    {
      "anonymous": false,
      "inputs": [
        {
          "indexed": false,
          "internalType": "uint256",
          "name": "newDuration",
          "type": "uint256"
        }
      ],
      "name": "RewardsDurationUpdated",
      "type": "event"
    },
    {
      "anonymous": false,
      "inputs": [
        {
          "indexed": true,
          "internalType": "address",
          "name": "user",
          "type": "address"
        },
        {
          "indexed": false,
          "internalType": "uint256",
          "name": "amount",
          "type": "uint256"
        }
      ],
      "name": "Staked",
      "type": "event"
    },
    {
      "anonymous": false,
      "inputs": [
        {
          "indexed": true,
          "internalType": "address",
          "name": "user",
          "type": "address"
        },
        {
          "indexed": false,
          "internalType": "uint256",
          "name": "amount",
          "type": "uint256"
        }
      ],
      "name": "Withdrawn",
      "type": "event"
    },
    {
      "inputs": [],
      "name": "NAME",
      "outputs": [
        {
          "internalType": "bytes32",
          "name": "",
          "type": "bytes32"
        }
      ],
      "stateMutability": "view",
      "type": "function"
    },
    {
      "inputs": [
        {
          "internalType": "address",
          "name": "",
          "type": "address"
        }
      ],
      "name": "hasStaked",
      "outputs": [
        {
          "internalType": "bool",
          "name": "",
          "type": "bool"
        }
      ],
      "stateMutability": "view",
      "type": "function"
    },
    {
      "inputs": [
        {
          "internalType": "address",
          "name": "",
          "type": "address"
        }
      ],
      "name": "isStaking",
      "outputs": [
        {
          "internalType": "bool",
          "name": "",
          "type": "bool"
        }
      ],
      "stateMutability": "view",
      "type": "function"
    },
    {
      "inputs": [],
      "name": "lastUpdateTime",
      "outputs": [
        {
          "internalType": "uint256",
          "name": "",
          "type": "uint256"
        }
      ],
      "stateMutability": "view",
      "type": "function"
    },
    {
      "inputs": [],
      "name": "mToken",
      "outputs": [
        {
          "internalType": "contract MEthToken",
          "name": "",
          "type": "address"
        }
      ],
      "stateMutability": "view",
      "type": "function"
    },
    {
      "inputs": [],
      "name": "owner",
      "outputs": [
        {
          "internalType": "address",
          "name": "",
          "type": "address"
        }
      ],
      "stateMutability": "view",
      "type": "function"
    },
    {
      "inputs": [],
      "name": "periodFinish",
      "outputs": [
        {
          "internalType": "uint256",
          "name": "",
          "type": "uint256"
        }
      ],
      "stateMutability": "view",
      "type": "function"
    },
    {
      "inputs": [],
      "name": "renounceOwnership",
      "outputs": [],
      "stateMutability": "nonpayable",
      "type": "function"
    },
    {
      "inputs": [],
      "name": "rewardPerTokenStored",
      "outputs": [
        {
          "internalType": "uint256",
          "name": "",
          "type": "uint256"
        }
      ],
      "stateMutability": "view",
      "type": "function"
    },
    {
      "inputs": [],
      "name": "rewardRate",
      "outputs": [
        {
          "internalType": "uint256",
          "name": "",
          "type": "uint256"
        }
      ],
      "stateMutability": "view",
      "type": "function"
    },
    {
      "inputs": [
        {
          "internalType": "address",
          "name": "",
          "type": "address"
        }
      ],
      "name": "rewards",
      "outputs": [
        {
          "internalType": "uint256",
          "name": "",
          "type": "uint256"
        }
      ],
      "stateMutability": "view",
      "type": "function"
    },
    {
      "inputs": [
        {
          "internalType": "uint256",
          "name": "",
          "type": "uint256"
        }
      ],
      "name": "stakers",
      "outputs": [
        {
          "internalType": "address",
          "name": "",
          "type": "address"
        }
      ],
      "stateMutability": "view",
      "type": "function"
    },
    {
      "inputs": [
        {
          "internalType": "address",
          "name": "",
          "type": "address"
        }
      ],
      "name": "stakingBalance",
      "outputs": [
        {
          "internalType": "uint256",
          "name": "",
          "type": "uint256"
        }
      ],
      "stateMutability": "view",
      "type": "function"
    },
    {
      "inputs": [],
      "name": "token",
      "outputs": [
        {
          "internalType": "contract IERC20",
          "name": "",
          "type": "address"
        }
      ],
      "stateMutability": "view",
      "type": "function"
    },
    {
      "inputs": [],
      "name": "totalStaked",
      "outputs": [
        {
          "internalType": "uint256",
          "name": "",
          "type": "uint256"
        }
      ],
      "stateMutability": "view",
      "type": "function"
    },
    {
      "inputs": [
        {
          "internalType": "address",
          "name": "newOwner",
          "type": "address"
        }
      ],
      "name": "transferOwnership",
      "outputs": [],
      "stateMutability": "nonpayable",
      "type": "function"
    },
    {
      "inputs": [
        {
          "internalType": "address",
          "name": "",
          "type": "address"
        }
      ],
      "name": "userRewardPerTokenPaid",
      "outputs": [
        {
          "internalType": "uint256",
          "name": "",
          "type": "uint256"
        }
      ],
      "stateMutability": "view",
      "type": "function"
    },
    {
      "inputs": [
        {
          "internalType": "uint256",
          "name": "amount",
          "type": "uint256"
        }
      ],
      "name": "stakeTokens",
      "outputs": [],
      "stateMutability": "nonpayable",
      "type": "function"
    },
    {
      "inputs": [
        {
          "internalType": "uint256",
          "name": "amount",
          "type": "uint256"
        }
      ],
      "name": "withdraw",
      "outputs": [],
      "stateMutability": "nonpayable",
      "type": "function"
    },
    {
      "inputs": [],
      "name": "getReward",
      "outputs": [],
      "stateMutability": "nonpayable",
      "type": "function"
    },
    {
      "inputs": [],
      "name": "unstakeTokens",
      "outputs": [],
      "stateMutability": "nonpayable",
      "type": "function"
    },
    {
      "inputs": [],
      "name": "issueTokens",
      "outputs": [],
      "stateMutability": "nonpayable",
      "type": "function"
    },
    {
      "inputs": [
        {
          "internalType": "uint256",
          "name": "reward",
          "type": "uint256"
        }
      ],
      "name": "notifyRewardAmount",
      "outputs": [],
      "stateMutability": "nonpayable",
      "type": "function"
    },
    {
      "inputs": [],
      "name": "name",
      "outputs": [
        {
          "internalType": "bytes32",
          "name": "",
          "type": "bytes32"
        }
      ],
      "stateMutability": "pure",
      "type": "function"
    },
    {
      "inputs": [],
      "name": "rewardsDuration",
      "outputs": [
        {
          "internalType": "uint256",
          "name": "",
          "type": "uint256"
        }
      ],
      "stateMutability": "pure",
      "type": "function"
    },
    {
      "inputs": [],
      "name": "totalSupply",
      "outputs": [
        {
          "internalType": "uint256",
          "name": "",
          "type": "uint256"
        }
      ],
      "stateMutability": "view",
      "type": "function"
    },
    {
      "inputs": [
        {
          "internalType": "address",
          "name": "account",
          "type": "address"
        }
      ],
      "name": "balanceOf",
      "outputs": [
        {
          "internalType": "uint256",
          "name": "",
          "type": "uint256"
        }
      ],
      "stateMutability": "view",
      "type": "function"
    },
    {
      "inputs": [],
      "name": "lastTimeRewardApplicable",
      "outputs": [
        {
          "internalType": "uint256",
          "name": "",
          "type": "uint256"
        }
      ],
      "stateMutability": "view",
      "type": "function"
    },
    {
      "inputs": [],
      "name": "rewardPerToken",
      "outputs": [
        {
          "internalType": "uint256",
          "name": "",
          "type": "uint256"
        }
      ],
      "stateMutability": "view",
      "type": "function"
    },
    {
      "inputs": [
        {
          "internalType": "address",
          "name": "account",
          "type": "address"
        }
      ],
      "name": "earned",
      "outputs": [
        {
          "internalType": "uint256",
          "name": "",
          "type": "uint256"
        }
      ],
      "stateMutability": "view",
      "type": "function"
    },
    {
      "inputs": [],
      "name": "getRewardForDuration",
      "outputs": [
        {
          "internalType": "uint256",
          "name": "",
          "type": "uint256"
        }
      ],
      "stateMutability": "view",
      "type": "function"
    }
  ],
  "bytecode": "0x6080604052600060045560006005553480156200001b57600080fd5b5060405162002772380380620027728339818101604052810190620000419190620001c2565b600062000053620001a360201b60201c565b9050806000806101000a81548173ffffffffffffffffffffffffffffffffffffffff021916908373ffffffffffffffffffffffffffffffffffffffff1602179055508073ffffffffffffffffffffffffffffffffffffffff16600073ffffffffffffffffffffffffffffffffffffffff167f8be0079c531659141344cd1fd0a4f28419497f9722a3daafe3b4186f6b6457e060405160405180910390a3506001808190555080600360006101000a81548173ffffffffffffffffffffffffffffffffffffffff021916908373ffffffffffffffffffffffffffffffffffffffff160217905550600360009054906101000a900473ffffffffffffffffffffffffffffffffffffffff16600260006101000a81548173ffffffffffffffffffffffffffffffffffffffff021916908373ffffffffffffffffffffffffffffffffffffffff1602179055505062000250565b600033905090565b600081519050620001bc8162000236565b92915050565b600060208284031215620001d557600080fd5b6000620001e584828501620001ab565b91505092915050565b6000620001fb8262000216565b9050919050565b60006200020f82620001ee565b9050919050565b600073ffffffffffffffffffffffffffffffffffffffff82169050919050565b620002418162000202565b81146200024d57600080fd5b50565b61251280620002606000396000f3fe608060405234801561001057600080fd5b50600436106101e45760003560e01c80637b0a47ee1161010f578063c8f33c91116100a2578063ebe2b12b11610071578063ebe2b12b1461053b578063f2fde38b14610559578063fc0c546a14610575578063fd5e6dd114610593576101e4565b8063c8f33c91146104b1578063c93c8f34146104cf578063cd3daf9d146104ff578063df136d651461051d576101e4565b80638da5cb5b116100de5780638da5cb5b1461044d578063a3f4df7e1461046b578063a5ce413b14610489578063c3b6f93914610493576101e4565b80637b0a47ee146103c357806380faa57d146103e1578063817b1cd2146103ff5780638b8763471461041d576101e4565b80633c6b16ab116101875780636f49712b116101565780636f49712b1461033d57806370a082311461036d578063715018a61461039d5780637547c7a3146103a7576101e4565b80633c6b16ab146102dd5780633d18b912146102f957806345bc78ab1461030357806360ab585214610333576101e4565b806318160ddd116101c357806318160ddd146102675780631c1f78eb146102855780632e1a7d4d146102a3578063386a9525146102bf576101e4565b80628cc262146101e957806306fdde03146102195780630700037d14610237575b600080fd5b61020360048036038101906101fe9190611d82565b6105c3565b60405161021091906120f9565b60405180910390f35b6102216106e1565b60405161022e9190611fe8565b60405180910390f35b610251600480360381019061024c9190611d82565b610709565b60405161025e91906120f9565b60405180910390f35b61026f610721565b60405161027c91906120f9565b60405180910390f35b61028d61072b565b60405161029a91906120f9565b60405180910390f35b6102bd60048036038101906102b89190611dd4565b61074a565b005b6102c7610a78565b6040516102d491906120f9565b60405180910390f35b6102f760048036038101906102f29190611dd4565b610a83565b005b610301610d71565b005b61031d60048036038101906103189190611d82565b61103f565b60405161032a91906120f9565b60405180910390f35b61033b611057565b005b61035760048036038101906103529190611d82565b611262565b6040516103649190611fcd565b60405180910390f35b61038760048036038101906103829190611d82565b611282565b60405161039491906120f9565b60405180910390f35b6103a56112cb565b005b6103c160048036038101906103bc9190611dd4565b611405565b005b6103cb611893565b6040516103d891906120f9565b60405180910390f35b6103e9611899565b6040516103f691906120f9565b60405180910390f35b6104076118ac565b60405161041491906120f9565b60405180910390f35b61043760048036038101906104329190611d82565b6118b2565b60405161044491906120f9565b60405180910390f35b6104556118ca565b6040516104629190611f52565b60405180910390f35b6104736118f3565b6040516104809190611fe8565b60405180910390f35b610491611917565b005b61049b6119c1565b6040516104a8919061201e565b60405180910390f35b6104b96119e7565b6040516104c691906120f9565b60405180910390f35b6104e960048036038101906104e49190611d82565b6119ed565b6040516104f69190611fcd565b60405180910390f35b610507611a0d565b60405161051491906120f9565b60405180910390f35b610525611a9b565b60405161053291906120f9565b60405180910390f35b610543611aa1565b60405161055091906120f9565b60405180910390f35b610573600480360381019061056e9190611d82565b611aa7565b005b61057d611c50565b60405161058a9190612003565b60405180910390f35b6105ad60048036038101906105a89190611dd4565b611c76565b6040516105ba9190611f52565b60405180910390f35b60006106da600b60008473ffffffffffffffffffffffffffffffffffffffff1673ffffffffffffffffffffffffffffffffffffffff168152602001908152602001600020546106cc670de0b6b3a76400006106be610670600a60008973ffffffffffffffffffffffffffffffffffffffff1673ffffffffffffffffffffffffffffffffffffffff16815260200190815260200160002054610662611a0d565b611cb590919063ffffffff16565b600c60008973ffffffffffffffffffffffffffffffffffffffff1673ffffffffffffffffffffffffffffffffffffffff16815260200190815260200160002054611ccb90919063ffffffff16565b611ce190919063ffffffff16565b611cf790919063ffffffff16565b9050919050565b60007f5374616b696e67204661726d0000000000000000000000000000000000000000905090565b600b6020528060005260406000206000915090505481565b6000600854905090565b600061074562093a80600554611ccb90919063ffffffff16565b905090565b60026001541415610790576040517f08c379a0000000000000000000000000000000000000000000000000000000008152600401610787906120d9565b60405180910390fd5b6002600181905550336107a1611a0d565b6007819055506107af611899565b600681905550600073ffffffffffffffffffffffffffffffffffffffff168173ffffffffffffffffffffffffffffffffffffffff161461087c576107f2816105c3565b600b60008373ffffffffffffffffffffffffffffffffffffffff1673ffffffffffffffffffffffffffffffffffffffff16815260200190815260200160002081905550600754600a60008373ffffffffffffffffffffffffffffffffffffffff1673ffffffffffffffffffffffffffffffffffffffff168152602001908152602001600020819055505b600082116108bf576040517f08c379a00000000000000000000000000000000000000000000000000000000081526004016108b690612079565b60405180910390fd5b6108d482600854611cb590919063ffffffff16565b60088190555061092c82600c60003373ffffffffffffffffffffffffffffffffffffffff1673ffffffffffffffffffffffffffffffffffffffff16815260200190815260200160002054611cb590919063ffffffff16565b600c60003373ffffffffffffffffffffffffffffffffffffffff1673ffffffffffffffffffffffffffffffffffffffff16815260200190815260200160002081905550600260009054906101000a900473ffffffffffffffffffffffffffffffffffffffff1673ffffffffffffffffffffffffffffffffffffffff1663a9059cbb33846040518363ffffffff1660e01b81526004016109cc929190611fa4565b602060405180830381600087803b1580156109e657600080fd5b505af11580156109fa573d6000803e3d6000fd5b505050506040513d601f19601f82011682018060405250810190610a1e9190611dab565b503373ffffffffffffffffffffffffffffffffffffffff167f7084f5476618d8e60b11ef0d7d3f06914655adb8793e28ff7f018d4c76d505d583604051610a6591906120f9565b60405180910390a2506001808190555050565b600062093a80905090565b6000610a8d611a0d565b600781905550610a9b611899565b600681905550600073ffffffffffffffffffffffffffffffffffffffff168173ffffffffffffffffffffffffffffffffffffffff1614610b6857610ade816105c3565b600b60008373ffffffffffffffffffffffffffffffffffffffff1673ffffffffffffffffffffffffffffffffffffffff16815260200190815260200160002081905550600754600a60008373ffffffffffffffffffffffffffffffffffffffff1673ffffffffffffffffffffffffffffffffffffffff168152602001908152602001600020819055505b600454421015610bec576000610b8942600454611cb590919063ffffffff16565b90506000610bb562093a80610ba78685611ccb90919063ffffffff16565b611ce190919063ffffffff16565b9050610bdf62093a80610bd18387611cf790919063ffffffff16565b611ce190919063ffffffff16565b6005819055505050610c09565b610c0262093a8083611ce190919063ffffffff16565b6005819055505b6000600260009054906101000a900473ffffffffffffffffffffffffffffffffffffffff1673ffffffffffffffffffffffffffffffffffffffff166370a08231306040518263ffffffff1660e01b8152600401610c669190611f52565b60206040518083038186803b158015610c7e57600080fd5b505afa158015610c92573d6000803e3d6000fd5b505050506040513d601f19601f82011682018060405250810190610cb69190611dfd565b9050610cce62093a8082611ce190919063ffffffff16565b6005541115610d12576040517f08c379a0000000000000000000000000000000000000000000000000000000008152600401610d09906120b9565b60405180910390fd5b42600681905550610d2f62093a8042611cf790919063ffffffff16565b6004819055507fde88a922e0d3b88b24e9623efeb464919c6bf9f66857a65e2bfcf2ce87a9433d83604051610d6491906120f9565b60405180910390a1505050565b60026001541415610db7576040517f08c379a0000000000000000000000000000000000000000000000000000000008152600401610dae906120d9565b60405180910390fd5b600260018190555033610dc8611a0d565b600781905550610dd6611899565b600681905550600073ffffffffffffffffffffffffffffffffffffffff168173ffffffffffffffffffffffffffffffffffffffff1614610ea357610e19816105c3565b600b60008373ffffffffffffffffffffffffffffffffffffffff1673ffffffffffffffffffffffffffffffffffffffff16815260200190815260200160002081905550600754600a60008373ffffffffffffffffffffffffffffffffffffffff1673ffffffffffffffffffffffffffffffffffffffff168152602001908152602001600020819055505b6000600b60003373ffffffffffffffffffffffffffffffffffffffff1673ffffffffffffffffffffffffffffffffffffffff1681526020019081526020016000205490506000811115611034576000600b60003373ffffffffffffffffffffffffffffffffffffffff1673ffffffffffffffffffffffffffffffffffffffff16815260200190815260200160002081905550600260009054906101000a900473ffffffffffffffffffffffffffffffffffffffff1673ffffffffffffffffffffffffffffffffffffffff1663a9059cbb33836040518363ffffffff1660e01b8152600401610f92929190611fa4565b602060405180830381600087803b158015610fac57600080fd5b505af1158015610fc0573d6000803e3d6000fd5b505050506040513d601f19601f82011682018060405250810190610fe49190611dab565b503373ffffffffffffffffffffffffffffffffffffffff167fe2403640ba68fed3a2f88b7557551d1993f84b99bb10ff833f0cf8db0c5e04868260405161102b91906120f9565b60405180910390a25b505060018081905550565b600c6020528060005260406000206000915090505481565b61105f611d0d565b73ffffffffffffffffffffffffffffffffffffffff1661107d6118ca565b73ffffffffffffffffffffffffffffffffffffffff16146110d3576040517f08c379a00000000000000000000000000000000000000000000000000000000081526004016110ca90612099565b60405180910390fd5b60005b60098054905081101561125f5760006009828154811061111f577f4e487b7100000000000000000000000000000000000000000000000000000000600052603260045260246000fd5b9060005260206000200160009054906101000a900473ffffffffffffffffffffffffffffffffffffffff1690506000600c60008373ffffffffffffffffffffffffffffffffffffffff1673ffffffffffffffffffffffffffffffffffffffff168152602001908152602001600020549050600081111561124a57600260009054906101000a900473ffffffffffffffffffffffffffffffffffffffff1673ffffffffffffffffffffffffffffffffffffffff1663a9059cbb83836040518363ffffffff1660e01b81526004016111f6929190611fa4565b602060405180830381600087803b15801561121057600080fd5b505af1158015611224573d6000803e3d6000fd5b505050506040513d601f19601f820116820180604052508101906112489190611dab565b505b50508080611257906122d4565b9150506110d6565b50565b600e6020528060005260406000206000915054906101000a900460ff1681565b6000600c60008373ffffffffffffffffffffffffffffffffffffffff1673ffffffffffffffffffffffffffffffffffffffff168152602001908152602001600020549050919050565b6112d3611d0d565b73ffffffffffffffffffffffffffffffffffffffff166112f16118ca565b73ffffffffffffffffffffffffffffffffffffffff1614611347576040517f08c379a000000000000000000000000000000000000000000000000000000000815260040161133e90612099565b60405180910390fd5b600073ffffffffffffffffffffffffffffffffffffffff1660008054906101000a900473ffffffffffffffffffffffffffffffffffffffff1673ffffffffffffffffffffffffffffffffffffffff167f8be0079c531659141344cd1fd0a4f28419497f9722a3daafe3b4186f6b6457e060405160405180910390a360008060006101000a81548173ffffffffffffffffffffffffffffffffffffffff021916908373ffffffffffffffffffffffffffffffffffffffff160217905550565b6002600154141561144b576040517f08c379a0000000000000000000000000000000000000000000000000000000008152600401611442906120d9565b60405180910390fd5b60026001819055503361145c611a0d565b60078190555061146a611899565b600681905550600073ffffffffffffffffffffffffffffffffffffffff168173ffffffffffffffffffffffffffffffffffffffff1614611537576114ad816105c3565b600b60008373ffffffffffffffffffffffffffffffffffffffff1673ffffffffffffffffffffffffffffffffffffffff16815260200190815260200160002081905550600754600a60008373ffffffffffffffffffffffffffffffffffffffff1673ffffffffffffffffffffffffffffffffffffffff168152602001908152602001600020819055505b6000821161157a576040517f08c379a000000000000000000000000000000000000000000000000000000000815260040161157190612059565b60405180910390fd5b61158f82600854611cf790919063ffffffff16565b60088190555081600c60003373ffffffffffffffffffffffffffffffffffffffff1673ffffffffffffffffffffffffffffffffffffffff168152602001908152602001600020546115e09190612125565b600c60003373ffffffffffffffffffffffffffffffffffffffff1673ffffffffffffffffffffffffffffffffffffffff16815260200190815260200160002081905550600d60003373ffffffffffffffffffffffffffffffffffffffff1673ffffffffffffffffffffffffffffffffffffffff16815260200190815260200160002060009054906101000a900460ff166116d8576009339080600181540180825580915050600190039060005260206000200160009091909190916101000a81548173ffffffffffffffffffffffffffffffffffffffff021916908373ffffffffffffffffffffffffffffffffffffffff1602179055505b6001600e60003373ffffffffffffffffffffffffffffffffffffffff1673ffffffffffffffffffffffffffffffffffffffff16815260200190815260200160002060006101000a81548160ff0219169083151502179055506001600d60003373ffffffffffffffffffffffffffffffffffffffff1673ffffffffffffffffffffffffffffffffffffffff16815260200190815260200160002060006101000a81548160ff021916908315150217905550600260009054906101000a900473ffffffffffffffffffffffffffffffffffffffff1673ffffffffffffffffffffffffffffffffffffffff166323b872dd3330856040518463ffffffff1660e01b81526004016117e793929190611f6d565b602060405180830381600087803b15801561180157600080fd5b505af1158015611815573d6000803e3d6000fd5b505050506040513d601f19601f820116820180604052508101906118399190611dab565b503373ffffffffffffffffffffffffffffffffffffffff167f9e71bc8eea02a63969f509818f2dafb9254532904319f9dbda79b67bd34a5f3d8360405161188091906120f9565b60405180910390a2506001808190555050565b60055481565b60006118a742600454611d15565b905090565b60085481565b600a6020528060005260406000206000915090505481565b60008060009054906101000a900473ffffffffffffffffffffffffffffffffffffffff16905090565b7f5374616b696e67204661726d000000000000000000000000000000000000000081565b6000600e60003373ffffffffffffffffffffffffffffffffffffffff1673ffffffffffffffffffffffffffffffffffffffff16815260200190815260200160002060006101000a81548160ff0219169083151502179055506119b7600c60003373ffffffffffffffffffffffffffffffffffffffff1673ffffffffffffffffffffffffffffffffffffffff1681526020019081526020016000205461074a565b6119bf610d71565b565b600360009054906101000a900473ffffffffffffffffffffffffffffffffffffffff1681565b60065481565b600d6020528060005260406000206000915054906101000a900460ff1681565b6000806008541415611a23576007549050611a98565b611a95611a84600854611a76670de0b6b3a7640000611a68600554611a5a600654611a4c611899565b611cb590919063ffffffff16565b611ccb90919063ffffffff16565b611ccb90919063ffffffff16565b611ce190919063ffffffff16565b600754611cf790919063ffffffff16565b90505b90565b60075481565b60045481565b611aaf611d0d565b73ffffffffffffffffffffffffffffffffffffffff16611acd6118ca565b73ffffffffffffffffffffffffffffffffffffffff1614611b23576040517f08c379a0000000000000000000000000000000000000000000000000000000008152600401611b1a90612099565b60405180910390fd5b600073ffffffffffffffffffffffffffffffffffffffff168173ffffffffffffffffffffffffffffffffffffffff161415611b93576040517f08c379a0000000000000000000000000000000000000000000000000000000008152600401611b8a90612039565b60405180910390fd5b8073ffffffffffffffffffffffffffffffffffffffff1660008054906101000a900473ffffffffffffffffffffffffffffffffffffffff1673ffffffffffffffffffffffffffffffffffffffff167f8be0079c531659141344cd1fd0a4f28419497f9722a3daafe3b4186f6b6457e060405160405180910390a3806000806101000a81548173ffffffffffffffffffffffffffffffffffffffff021916908373ffffffffffffffffffffffffffffffffffffffff16021790555050565b600260009054906101000a900473ffffffffffffffffffffffffffffffffffffffff1681565b60098181548110611c8657600080fd5b906000526020600020016000915054906101000a900473ffffffffffffffffffffffffffffffffffffffff1681565b60008183611cc39190612206565b905092915050565b60008183611cd991906121ac565b905092915050565b60008183611cef919061217b565b905092915050565b60008183611d059190612125565b905092915050565b600033905090565b6000818310611d245781611d26565b825b905092915050565b600081359050611d3d81612497565b92915050565b600081519050611d52816124ae565b92915050565b600081359050611d67816124c5565b92915050565b600081519050611d7c816124c5565b92915050565b600060208284031215611d9457600080fd5b6000611da284828501611d2e565b91505092915050565b600060208284031215611dbd57600080fd5b6000611dcb84828501611d43565b91505092915050565b600060208284031215611de657600080fd5b6000611df484828501611d58565b91505092915050565b600060208284031215611e0f57600080fd5b6000611e1d84828501611d6d565b91505092915050565b611e2f8161223a565b82525050565b611e3e8161224c565b82525050565b611e4d81612258565b82525050565b611e5c8161228c565b82525050565b611e6b816122b0565b82525050565b6000611e7e602683612114565b9150611e898261237b565b604082019050919050565b6000611ea1600e83612114565b9150611eac826123ca565b602082019050919050565b6000611ec4601183612114565b9150611ecf826123f3565b602082019050919050565b6000611ee7602083612114565b9150611ef28261241c565b602082019050919050565b6000611f0a601883612114565b9150611f1582612445565b602082019050919050565b6000611f2d601f83612114565b9150611f388261246e565b602082019050919050565b611f4c81612282565b82525050565b6000602082019050611f676000830184611e26565b92915050565b6000606082019050611f826000830186611e26565b611f8f6020830185611e26565b611f9c6040830184611f43565b949350505050565b6000604082019050611fb96000830185611e26565b611fc66020830184611f43565b9392505050565b6000602082019050611fe26000830184611e35565b92915050565b6000602082019050611ffd6000830184611e44565b92915050565b60006020820190506120186000830184611e53565b92915050565b60006020820190506120336000830184611e62565b92915050565b6000602082019050818103600083015261205281611e71565b9050919050565b6000602082019050818103600083015261207281611e94565b9050919050565b6000602082019050818103600083015261209281611eb7565b9050919050565b600060208201905081810360008301526120b281611eda565b9050919050565b600060208201905081810360008301526120d281611efd565b9050919050565b600060208201905081810360008301526120f281611f20565b9050919050565b600060208201905061210e6000830184611f43565b92915050565b600082825260208201905092915050565b600061213082612282565b915061213b83612282565b9250827fffffffffffffffffffffffffffffffffffffffffffffffffffffffffffffffff038211156121705761216f61231d565b5b828201905092915050565b600061218682612282565b915061219183612282565b9250826121a1576121a061234c565b5b828204905092915050565b60006121b782612282565b91506121c283612282565b9250817fffffffffffffffffffffffffffffffffffffffffffffffffffffffffffffffff04831182151516156121fb576121fa61231d565b5b828202905092915050565b600061221182612282565b915061221c83612282565b92508282101561222f5761222e61231d565b5b828203905092915050565b600061224582612262565b9050919050565b60008115159050919050565b6000819050919050565b600073ffffffffffffffffffffffffffffffffffffffff82169050919050565b6000819050919050565b60006122978261229e565b9050919050565b60006122a982612262565b9050919050565b60006122bb826122c2565b9050919050565b60006122cd82612262565b9050919050565b60006122df82612282565b91507fffffffffffffffffffffffffffffffffffffffffffffffffffffffffffffffff8214156123125761231161231d565b5b600182019050919050565b7f4e487b7100000000000000000000000000000000000000000000000000000000600052601160045260246000fd5b7f4e487b7100000000000000000000000000000000000000000000000000000000600052601260045260246000fd5b7f4f776e61626c653a206e6577206f776e657220697320746865207a65726f206160008201527f6464726573730000000000000000000000000000000000000000000000000000602082015250565b7f43616e6e6f74207374616b652030000000000000000000000000000000000000600082015250565b7f43616e6e6f742077697468647261772030000000000000000000000000000000600082015250565b7f4f776e61626c653a2063616c6c6572206973206e6f7420746865206f776e6572600082015250565b7f50726f76696465642072657761726420746f6f20686967680000000000000000600082015250565b7f5265656e7472616e637947756172643a207265656e7472616e742063616c6c00600082015250565b6124a08161223a565b81146124ab57600080fd5b50565b6124b78161224c565b81146124c257600080fd5b50565b6124ce81612282565b81146124d957600080fd5b5056fea26469706673582212202351ed73b5e260484349cce3e4c19d294acbb84a4bb2729c920780908707d33964736f6c63430008040033",
  "immutableReferences": {},
  "source": "//SPDX-License-Identifier: MIT\npragma solidity ^0.8.0;\n\nimport \"./MEthToken.sol\";\nimport \"@openzeppelin/contracts/utils/math/SafeMath.sol\";\nimport \"@openzeppelin/contracts/utils/math/Math.sol\";\nimport \"@openzeppelin/contracts/access/Ownable.sol\";\nimport \"@openzeppelin/contracts/security/ReentrancyGuard.sol\";\n\nimport \"@openzeppelin/contracts/token/ERC20/IERC20.sol\";\nimport \"@openzeppelin/contracts/token/ERC20/utils/SafeERC20.sol\";\n\ncontract TokenFarm is Ownable, ReentrancyGuard {\n    using SafeMath for uint256;\n    using SafeERC20 for IERC20;\n\n    /* ========== STATE VARIABLES ========== */\n\n    bytes32 public constant NAME = \"Staking Farm\";\n    IERC20 public token;\n    MEthToken public mToken;\n\n    // total Rewards to be distributed\n    // uint256 public totalRewards;\n\n    uint256 public periodFinish = 0;\n    uint256 public rewardRate = 0;\n    uint256 constant REWARDSDURATION = 7 days;\n    uint256 public lastUpdateTime;\n    uint256 public rewardPerTokenStored;\n    uint256 public totalStaked;\n\n    address[] public stakers;\n    mapping(address => uint256) public userRewardPerTokenPaid;\n    mapping(address => uint256) public rewards;\n    mapping(address => uint256) public stakingBalance;\n    mapping(address => bool) public hasStaked;\n    mapping(address => bool) public isStaking;\n\n    /* ========== CONSTRUCTOR ========== */\n\n    constructor(MEthToken _ethToken) {\n        mToken = _ethToken;\n        token = IERC20(mToken);\n    }\n\n    /* ========== EVENTS ========== */\n\n    event RewardAdded(uint256 reward);\n    event Staked(address indexed user, uint256 amount);\n    event Withdrawn(address indexed user, uint256 amount);\n    event RewardPaid(address indexed user, uint256 reward);\n    event RewardsDurationUpdated(uint256 newDuration);\n    event Recovered(address token, uint256 amount);\n\n    /* ========== MODIFIERS ========== */\n\n    modifier updateReward(address account) {\n        rewardPerTokenStored = rewardPerToken();\n        lastUpdateTime = lastTimeRewardApplicable();\n        if (account != address(0)) {\n            rewards[account] = earned(account);\n            userRewardPerTokenPaid[account] = rewardPerTokenStored;\n        }\n        _;\n    }\n\n    /* ========== MUTATIVE FUNCTIONS ========== */\n\n    // 1. Stakes Tokens (Deposit): An investor will deposit the Token into the smart contracts to starting earning rewards\n    function stakeTokens(uint256 amount)\n        external\n        nonReentrant\n        updateReward(msg.sender)\n    {\n        require(amount > 0, \"Cannot stake 0\");\n\n        //Update total staked balance\n        totalStaked = totalStaked.add(amount);\n\n        // Update staking balance\n        stakingBalance[msg.sender] = stakingBalance[msg.sender] + amount;\n\n        // Add user to stakers array *only* if they haven't staked already\n        if (!hasStaked[msg.sender]) {\n            stakers.push(msg.sender);\n        }\n\n        // update stakng status\n        isStaking[msg.sender] = true;\n        hasStaked[msg.sender] = true;\n\n        // Transfer Mock Eth tokens to this contract for staking\n        // Several tokens do not revert in case of failure and return false. If one of these tokens is used in MyBank, deposit will not revert if the transfer fails, and an attacker can call deposit for free..\n        // Recommendation\n        // Use SafeERC20, or ensure that the transfer/transferFrom return value is checked.\n        token.transferFrom(msg.sender, address(this), amount);\n\n        // emit staked event\n        emit Staked(msg.sender, amount);\n    }\n\n    function withdraw(uint256 amount)\n        public\n        nonReentrant\n        updateReward(msg.sender)\n    {\n        require(amount > 0, \"Cannot withdraw 0\");\n        totalStaked = totalStaked.sub(amount);\n        stakingBalance[msg.sender] = stakingBalance[msg.sender].sub(amount);\n        token.transfer(msg.sender, amount);\n        emit Withdrawn(msg.sender, amount);\n    }\n\n    function getReward() public nonReentrant updateReward(msg.sender) {\n        uint256 reward = rewards[msg.sender];\n        if (reward > 0) {\n            rewards[msg.sender] = 0;\n            token.transfer(msg.sender, reward);\n            emit RewardPaid(msg.sender, reward);\n        }\n    }\n\n    // Unstaking Tokens (Withdraw): Withdraw money from Dapp\n    function unstakeTokens() public {\n        // Update staking status\n        isStaking[msg.sender] = false;\n\n        withdraw(stakingBalance[msg.sender]);\n\n        getReward();\n    }\n\n    // Issuing Tokens: Earning interest (issuing tokens for people who stake them, distribute dap tokens as interes and also allow the investor to unstake their tokens from the app, give them intereset using the app)\n    function issueTokens() external onlyOwner {\n        // Issue tokens to all stakers\n        for (uint256 i = 0; i < stakers.length; i++) {\n            address recipient = stakers[i];\n            uint256 balance = stakingBalance[recipient];\n            if (balance > 0) {\n                token.transfer(recipient, balance);\n            }\n        }\n    }\n\n    // owner call this function to add reward amount to the total rewards\n    // Solidity integer division might truncate. As a result, performing multiplication before division can sometimes avoid loss of precision.\n    function notifyRewardAmount(uint256 reward)\n        external\n        updateReward(address(0))\n    {\n\n\n        if (block.timestamp < periodFinish) {\n            uint256 remaining = periodFinish.sub(block.timestamp);\n            // uint256 leftover = remaining.mul(rewardRate);\n            uint256 leftover = remaining.mul(reward).div(REWARDSDURATION);\n            rewardRate = reward.add(leftover).div(REWARDSDURATION);\n            \n        } else {\n            rewardRate = reward.div(REWARDSDURATION);\n        }\n\n        // Ensure the provided reward amount is not more than the balance in the contract.\n        // This keeps the reward rate in the right range, preventing overflows due to\n        // very high values of rewardRate in the earned and rewardsPerToken functions;\n        // Reward + leftover must be less than 2^256 / 10^18 to avoid overflow.\n        uint256 balance = token.balanceOf(address(this));\n        require(\n            rewardRate <= balance.div(REWARDSDURATION),\n            \"Provided reward too high\"\n        );\n\n        lastUpdateTime = block.timestamp;\n        periodFinish = block.timestamp.add(REWARDSDURATION);\n        emit RewardAdded(reward);\n    }\n\n    /* ========== VIEWS ========== */\n\n\n    function name() public pure returns (bytes32) {\n        return NAME;\n    }\n\n    function rewardsDuration() public pure returns (uint256) {\n        return REWARDSDURATION;\n    }\n    function totalSupply() external view returns (uint256) {\n        return totalStaked;\n    }\n\n    function balanceOf(address account) external view returns (uint256) {\n        return stakingBalance[account];\n    }\n\n    function lastTimeRewardApplicable() public view returns (uint256) {\n        return Math.min(block.timestamp, periodFinish);\n    }\n\n    function rewardPerToken() public view returns (uint256) {\n        if (totalStaked == 0) {\n            return rewardPerTokenStored;\n        }\n        return\n            rewardPerTokenStored.add(\n                lastTimeRewardApplicable()\n                    .sub(lastUpdateTime)\n                    .mul(rewardRate)\n                    .mul(1e18)\n                    .div(totalStaked)\n            );\n    }\n\n    function earned(address account) public view returns (uint256) {\n        return\n            stakingBalance[account]\n                .mul(rewardPerToken().sub(userRewardPerTokenPaid[account]))\n                .div(1e18)\n                .add(rewards[account]);\n    }\n\n    function getRewardForDuration() external view returns (uint256) {\n        return rewardRate.mul(REWARDSDURATION);\n    }\n}\n",
  "sourcePath": "/Users/dingchaoz/Documents/Learning/Blockchain/Solidity/defi_yield_farming-main/src/contracts/TokenFarm.sol",
  "compiler": {
    "name": "solc",
    "version": "0.8.4+commit.c7e474f2.Emscripten.clang"
  },
  "schemaVersion": "3.4.1",
  "updatedAt": "2021-05-30T05:27:10.988Z",
  "devdoc": {
    "kind": "dev",
    "methods": {
      "owner()": {
        "details": "Returns the address of the current owner."
      },
      "renounceOwnership()": {
        "details": "Leaves the contract without owner. It will not be possible to call `onlyOwner` functions anymore. Can only be called by the current owner. NOTE: Renouncing ownership will leave the contract without an owner, thereby removing any functionality that is only available to the owner."
      },
      "transferOwnership(address)": {
        "details": "Transfers ownership of the contract to a new account (`newOwner`). Can only be called by the current owner."
      }
    },
    "version": 1
  },
  "userdoc": {
    "kind": "user",
    "methods": {},
    "version": 1
  }
}