{
  "contractName": "TokenFarm",
  "abi": [
    {
      "inputs": [
        {
          "internalType": "contract MEthToken",
          "name": "_ethToken",
          "type": "address"
        }
      ],
      "stateMutability": "nonpayable",
      "type": "constructor"
    },
    {
      "anonymous": false,
      "inputs": [
        {
          "indexed": true,
          "internalType": "address",
          "name": "previousOwner",
          "type": "address"
        },
        {
          "indexed": true,
          "internalType": "address",
          "name": "newOwner",
          "type": "address"
        }
      ],
      "name": "OwnershipTransferred",
      "type": "event"
    },
    {
      "anonymous": false,
      "inputs": [
        {
          "indexed": false,
          "internalType": "address",
          "name": "token",
          "type": "address"
        },
        {
          "indexed": false,
          "internalType": "uint256",
          "name": "amount",
          "type": "uint256"
        }
      ],
      "name": "Recovered",
      "type": "event"
    },
    {
      "anonymous": false,
      "inputs": [
        {
          "indexed": false,
          "internalType": "uint256",
          "name": "reward",
          "type": "uint256"
        }
      ],
      "name": "RewardAdded",
      "type": "event"
    },
    {
      "anonymous": false,
      "inputs": [
        {
          "indexed": true,
          "internalType": "address",
          "name": "user",
          "type": "address"
        },
        {
          "indexed": false,
          "internalType": "uint256",
          "name": "reward",
          "type": "uint256"
        }
      ],
      "name": "RewardPaid",
      "type": "event"
    },
    {
      "anonymous": false,
      "inputs": [
        {
          "indexed": false,
          "internalType": "uint256",
          "name": "newDuration",
          "type": "uint256"
        }
      ],
      "name": "RewardsDurationUpdated",
      "type": "event"
    },
    {
      "anonymous": false,
      "inputs": [
        {
          "indexed": true,
          "internalType": "address",
          "name": "user",
          "type": "address"
        },
        {
          "indexed": false,
          "internalType": "uint256",
          "name": "amount",
          "type": "uint256"
        }
      ],
      "name": "Staked",
      "type": "event"
    },
    {
      "anonymous": false,
      "inputs": [
        {
          "indexed": true,
          "internalType": "address",
          "name": "user",
          "type": "address"
        },
        {
          "indexed": false,
          "internalType": "uint256",
          "name": "amount",
          "type": "uint256"
        }
      ],
      "name": "Withdrawn",
      "type": "event"
    },
    {
      "inputs": [],
      "name": "NAME",
      "outputs": [
        {
          "internalType": "bytes32",
          "name": "",
          "type": "bytes32"
        }
      ],
      "stateMutability": "view",
      "type": "function"
    },
    {
      "inputs": [],
      "name": "ethToken",
      "outputs": [
        {
          "internalType": "contract MEthToken",
          "name": "",
          "type": "address"
        }
      ],
      "stateMutability": "view",
      "type": "function"
    },
    {
      "inputs": [
        {
          "internalType": "address",
          "name": "",
          "type": "address"
        }
      ],
      "name": "hasStaked",
      "outputs": [
        {
          "internalType": "bool",
          "name": "",
          "type": "bool"
        }
      ],
      "stateMutability": "view",
      "type": "function"
    },
    {
      "inputs": [
        {
          "internalType": "address",
          "name": "",
          "type": "address"
        }
      ],
      "name": "isStaking",
      "outputs": [
        {
          "internalType": "bool",
          "name": "",
          "type": "bool"
        }
      ],
      "stateMutability": "view",
      "type": "function"
    },
    {
      "inputs": [],
      "name": "lastUpdateTime",
      "outputs": [
        {
          "internalType": "uint256",
          "name": "",
          "type": "uint256"
        }
      ],
      "stateMutability": "view",
      "type": "function"
    },
    {
      "inputs": [],
      "name": "owner",
      "outputs": [
        {
          "internalType": "address",
          "name": "",
          "type": "address"
        }
      ],
      "stateMutability": "view",
      "type": "function"
    },
    {
      "inputs": [],
      "name": "periodFinish",
      "outputs": [
        {
          "internalType": "uint256",
          "name": "",
          "type": "uint256"
        }
      ],
      "stateMutability": "view",
      "type": "function"
    },
    {
      "inputs": [],
      "name": "renounceOwnership",
      "outputs": [],
      "stateMutability": "nonpayable",
      "type": "function"
    },
    {
      "inputs": [],
      "name": "rewardPerTokenStored",
      "outputs": [
        {
          "internalType": "uint256",
          "name": "",
          "type": "uint256"
        }
      ],
      "stateMutability": "view",
      "type": "function"
    },
    {
      "inputs": [],
      "name": "rewardRate",
      "outputs": [
        {
          "internalType": "uint256",
          "name": "",
          "type": "uint256"
        }
      ],
      "stateMutability": "view",
      "type": "function"
    },
    {
      "inputs": [
        {
          "internalType": "address",
          "name": "",
          "type": "address"
        }
      ],
      "name": "rewards",
      "outputs": [
        {
          "internalType": "uint256",
          "name": "",
          "type": "uint256"
        }
      ],
      "stateMutability": "view",
      "type": "function"
    },
    {
      "inputs": [
        {
          "internalType": "uint256",
          "name": "",
          "type": "uint256"
        }
      ],
      "name": "stakers",
      "outputs": [
        {
          "internalType": "address",
          "name": "",
          "type": "address"
        }
      ],
      "stateMutability": "view",
      "type": "function"
    },
    {
      "inputs": [
        {
          "internalType": "address",
          "name": "",
          "type": "address"
        }
      ],
      "name": "stakingBalance",
      "outputs": [
        {
          "internalType": "uint256",
          "name": "",
          "type": "uint256"
        }
      ],
      "stateMutability": "view",
      "type": "function"
    },
    {
      "inputs": [],
      "name": "totalStaked",
      "outputs": [
        {
          "internalType": "uint256",
          "name": "",
          "type": "uint256"
        }
      ],
      "stateMutability": "view",
      "type": "function"
    },
    {
      "inputs": [
        {
          "internalType": "address",
          "name": "newOwner",
          "type": "address"
        }
      ],
      "name": "transferOwnership",
      "outputs": [],
      "stateMutability": "nonpayable",
      "type": "function"
    },
    {
      "inputs": [
        {
          "internalType": "address",
          "name": "",
          "type": "address"
        }
      ],
      "name": "userRewardPerTokenPaid",
      "outputs": [
        {
          "internalType": "uint256",
          "name": "",
          "type": "uint256"
        }
      ],
      "stateMutability": "view",
      "type": "function"
    },
    {
      "inputs": [
        {
          "internalType": "uint256",
          "name": "amount",
          "type": "uint256"
        }
      ],
      "name": "stakeTokens",
      "outputs": [],
      "stateMutability": "nonpayable",
      "type": "function"
    },
    {
      "inputs": [
        {
          "internalType": "uint256",
          "name": "amount",
          "type": "uint256"
        }
      ],
      "name": "withdraw",
      "outputs": [],
      "stateMutability": "nonpayable",
      "type": "function"
    },
    {
      "inputs": [],
      "name": "getReward",
      "outputs": [],
      "stateMutability": "nonpayable",
      "type": "function"
    },
    {
      "inputs": [],
      "name": "unstakeTokens",
      "outputs": [],
      "stateMutability": "nonpayable",
      "type": "function"
    },
    {
      "inputs": [],
      "name": "issueTokens",
      "outputs": [],
      "stateMutability": "nonpayable",
      "type": "function"
    },
    {
      "inputs": [
        {
          "internalType": "uint256",
          "name": "reward",
          "type": "uint256"
        }
      ],
      "name": "notifyRewardAmount",
      "outputs": [],
      "stateMutability": "nonpayable",
      "type": "function"
    },
    {
      "inputs": [],
      "name": "name",
      "outputs": [
        {
          "internalType": "bytes32",
          "name": "",
          "type": "bytes32"
        }
      ],
      "stateMutability": "pure",
      "type": "function"
    },
    {
      "inputs": [],
      "name": "rewardsDuration",
      "outputs": [
        {
          "internalType": "uint256",
          "name": "",
          "type": "uint256"
        }
      ],
      "stateMutability": "pure",
      "type": "function"
    },
    {
      "inputs": [],
      "name": "totalSupply",
      "outputs": [
        {
          "internalType": "uint256",
          "name": "",
          "type": "uint256"
        }
      ],
      "stateMutability": "view",
      "type": "function"
    },
    {
      "inputs": [
        {
          "internalType": "address",
          "name": "account",
          "type": "address"
        }
      ],
      "name": "balanceOf",
      "outputs": [
        {
          "internalType": "uint256",
          "name": "",
          "type": "uint256"
        }
      ],
      "stateMutability": "view",
      "type": "function"
    },
    {
      "inputs": [],
      "name": "lastTimeRewardApplicable",
      "outputs": [
        {
          "internalType": "uint256",
          "name": "",
          "type": "uint256"
        }
      ],
      "stateMutability": "view",
      "type": "function"
    },
    {
      "inputs": [],
      "name": "rewardPerToken",
      "outputs": [
        {
          "internalType": "uint256",
          "name": "",
          "type": "uint256"
        }
      ],
      "stateMutability": "view",
      "type": "function"
    },
    {
      "inputs": [
        {
          "internalType": "address",
          "name": "account",
          "type": "address"
        }
      ],
      "name": "earned",
      "outputs": [
        {
          "internalType": "uint256",
          "name": "",
          "type": "uint256"
        }
      ],
      "stateMutability": "view",
      "type": "function"
    },
    {
      "inputs": [],
      "name": "getRewardForDuration",
      "outputs": [
        {
          "internalType": "uint256",
          "name": "",
          "type": "uint256"
        }
      ],
      "stateMutability": "view",
      "type": "function"
    }
  ],
  "bytecode": "0x6080604052600060035560006004553480156200001b57600080fd5b50604051620026723803806200267283398181016040528101906200004191906200015f565b6000620000536200014060201b60201c565b9050806000806101000a81548173ffffffffffffffffffffffffffffffffffffffff021916908373ffffffffffffffffffffffffffffffffffffffff1602179055508073ffffffffffffffffffffffffffffffffffffffff16600073ffffffffffffffffffffffffffffffffffffffff167f8be0079c531659141344cd1fd0a4f28419497f9722a3daafe3b4186f6b6457e060405160405180910390a3506001808190555080600260006101000a81548173ffffffffffffffffffffffffffffffffffffffff021916908373ffffffffffffffffffffffffffffffffffffffff16021790555050620001ed565b600033905090565b6000815190506200015981620001d3565b92915050565b6000602082840312156200017257600080fd5b6000620001828482850162000148565b91505092915050565b60006200019882620001b3565b9050919050565b6000620001ac826200018b565b9050919050565b600073ffffffffffffffffffffffffffffffffffffffff82169050919050565b620001de816200019f565b8114620001ea57600080fd5b50565b61247580620001fd6000396000f3fe608060405234801561001057600080fd5b50600436106101d95760003560e01c80637b0a47ee11610104578063a5ce413b116100a2578063df136d6511610071578063df136d6514610512578063ebe2b12b14610530578063f2fde38b1461054e578063fd5e6dd11461056a576101d9565b8063a5ce413b1461049c578063c8f33c91146104a6578063c93c8f34146104c4578063cd3daf9d146104f4576101d9565b8063817b1cd2116100de578063817b1cd2146104125780638b876347146104305780638da5cb5b14610460578063a3f4df7e1461047e576101d9565b80637b0a47ee146103b85780637bf1a627146103d657806380faa57d146103f4576101d9565b80633c6b16ab1161017c5780636f49712b1161014b5780636f49712b1461033257806370a0823114610362578063715018a6146103925780637547c7a31461039c576101d9565b80633c6b16ab146102d25780633d18b912146102ee57806345bc78ab146102f857806360ab585214610328576101d9565b806318160ddd116101b857806318160ddd1461025c5780631c1f78eb1461027a5780632e1a7d4d14610298578063386a9525146102b4576101d9565b80628cc262146101de57806306fdde031461020e5780630700037d1461022c575b600080fd5b6101f860048036038101906101f39190611d33565b61059a565b6040516102059190612080565b60405180910390f35b6102166106b8565b6040516102239190611f8a565b60405180910390f35b61024660048036038101906102419190611d33565b6106e0565b6040516102539190612080565b60405180910390f35b6102646106f8565b6040516102719190612080565b60405180910390f35b610282610702565b60405161028f9190612080565b60405180910390f35b6102b260048036038101906102ad9190611d85565b610721565b005b6102bc610a4f565b6040516102c99190612080565b60405180910390f35b6102ec60048036038101906102e79190611d85565b610a5a565b005b6102f6610d48565b005b610312600480360381019061030d9190611d33565b611016565b60405161031f9190612080565b60405180910390f35b61033061102e565b005b61034c60048036038101906103479190611d33565b611239565b6040516103599190611f6f565b60405180910390f35b61037c60048036038101906103779190611d33565b611259565b6040516103899190612080565b60405180910390f35b61039a6112a2565b005b6103b660048036038101906103b19190611d85565b6113dc565b005b6103c061186a565b6040516103cd9190612080565b60405180910390f35b6103de611870565b6040516103eb9190611fa5565b60405180910390f35b6103fc611896565b6040516104099190612080565b60405180910390f35b61041a6118a9565b6040516104279190612080565b60405180910390f35b61044a60048036038101906104459190611d33565b6118af565b6040516104579190612080565b60405180910390f35b6104686118c7565b6040516104759190611ef4565b60405180910390f35b6104866118f0565b6040516104939190611f8a565b60405180910390f35b6104a4611914565b005b6104ae6119be565b6040516104bb9190612080565b60405180910390f35b6104de60048036038101906104d99190611d33565b6119c4565b6040516104eb9190611f6f565b60405180910390f35b6104fc6119e4565b6040516105099190612080565b60405180910390f35b61051a611a72565b6040516105279190612080565b60405180910390f35b610538611a78565b6040516105459190612080565b60405180910390f35b61056860048036038101906105639190611d33565b611a7e565b005b610584600480360381019061057f9190611d85565b611c27565b6040516105919190611ef4565b60405180910390f35b60006106b1600a60008473ffffffffffffffffffffffffffffffffffffffff1673ffffffffffffffffffffffffffffffffffffffff168152602001908152602001600020546106a3670de0b6b3a7640000610695610647600960008973ffffffffffffffffffffffffffffffffffffffff1673ffffffffffffffffffffffffffffffffffffffff168152602001908152602001600020546106396119e4565b611c6690919063ffffffff16565b600b60008973ffffffffffffffffffffffffffffffffffffffff1673ffffffffffffffffffffffffffffffffffffffff16815260200190815260200160002054611c7c90919063ffffffff16565b611c9290919063ffffffff16565b611ca890919063ffffffff16565b9050919050565b60007f5374616b696e67204661726d0000000000000000000000000000000000000000905090565b600a6020528060005260406000206000915090505481565b6000600754905090565b600061071c62093a80600454611c7c90919063ffffffff16565b905090565b60026001541415610767576040517f08c379a000000000000000000000000000000000000000000000000000000000815260040161075e90612060565b60405180910390fd5b6002600181905550336107786119e4565b600681905550610786611896565b600581905550600073ffffffffffffffffffffffffffffffffffffffff168173ffffffffffffffffffffffffffffffffffffffff1614610853576107c98161059a565b600a60008373ffffffffffffffffffffffffffffffffffffffff1673ffffffffffffffffffffffffffffffffffffffff16815260200190815260200160002081905550600654600960008373ffffffffffffffffffffffffffffffffffffffff1673ffffffffffffffffffffffffffffffffffffffff168152602001908152602001600020819055505b60008211610896576040517f08c379a000000000000000000000000000000000000000000000000000000000815260040161088d90612000565b60405180910390fd5b6108ab82600754611c6690919063ffffffff16565b60078190555061090382600b60003373ffffffffffffffffffffffffffffffffffffffff1673ffffffffffffffffffffffffffffffffffffffff16815260200190815260200160002054611c6690919063ffffffff16565b600b60003373ffffffffffffffffffffffffffffffffffffffff1673ffffffffffffffffffffffffffffffffffffffff16815260200190815260200160002081905550600260009054906101000a900473ffffffffffffffffffffffffffffffffffffffff1673ffffffffffffffffffffffffffffffffffffffff1663a9059cbb33846040518363ffffffff1660e01b81526004016109a3929190611f46565b602060405180830381600087803b1580156109bd57600080fd5b505af11580156109d1573d6000803e3d6000fd5b505050506040513d601f19601f820116820180604052508101906109f59190611d5c565b503373ffffffffffffffffffffffffffffffffffffffff167f7084f5476618d8e60b11ef0d7d3f06914655adb8793e28ff7f018d4c76d505d583604051610a3c9190612080565b60405180910390a2506001808190555050565b600062093a80905090565b6000610a646119e4565b600681905550610a72611896565b600581905550600073ffffffffffffffffffffffffffffffffffffffff168173ffffffffffffffffffffffffffffffffffffffff1614610b3f57610ab58161059a565b600a60008373ffffffffffffffffffffffffffffffffffffffff1673ffffffffffffffffffffffffffffffffffffffff16815260200190815260200160002081905550600654600960008373ffffffffffffffffffffffffffffffffffffffff1673ffffffffffffffffffffffffffffffffffffffff168152602001908152602001600020819055505b600354421015610bc3576000610b6042600354611c6690919063ffffffff16565b90506000610b8c62093a80610b7e8685611c7c90919063ffffffff16565b611c9290919063ffffffff16565b9050610bb662093a80610ba88387611ca890919063ffffffff16565b611c9290919063ffffffff16565b6004819055505050610be0565b610bd962093a8083611c9290919063ffffffff16565b6004819055505b6000600260009054906101000a900473ffffffffffffffffffffffffffffffffffffffff1673ffffffffffffffffffffffffffffffffffffffff166370a08231306040518263ffffffff1660e01b8152600401610c3d9190611ef4565b60206040518083038186803b158015610c5557600080fd5b505afa158015610c69573d6000803e3d6000fd5b505050506040513d601f19601f82011682018060405250810190610c8d9190611dae565b9050610ca562093a8082611c9290919063ffffffff16565b6004541115610ce9576040517f08c379a0000000000000000000000000000000000000000000000000000000008152600401610ce090612040565b60405180910390fd5b42600581905550610d0662093a8042611ca890919063ffffffff16565b6003819055507fde88a922e0d3b88b24e9623efeb464919c6bf9f66857a65e2bfcf2ce87a9433d83604051610d3b9190612080565b60405180910390a1505050565b60026001541415610d8e576040517f08c379a0000000000000000000000000000000000000000000000000000000008152600401610d8590612060565b60405180910390fd5b600260018190555033610d9f6119e4565b600681905550610dad611896565b600581905550600073ffffffffffffffffffffffffffffffffffffffff168173ffffffffffffffffffffffffffffffffffffffff1614610e7a57610df08161059a565b600a60008373ffffffffffffffffffffffffffffffffffffffff1673ffffffffffffffffffffffffffffffffffffffff16815260200190815260200160002081905550600654600960008373ffffffffffffffffffffffffffffffffffffffff1673ffffffffffffffffffffffffffffffffffffffff168152602001908152602001600020819055505b6000600a60003373ffffffffffffffffffffffffffffffffffffffff1673ffffffffffffffffffffffffffffffffffffffff168152602001908152602001600020549050600081111561100b576000600a60003373ffffffffffffffffffffffffffffffffffffffff1673ffffffffffffffffffffffffffffffffffffffff16815260200190815260200160002081905550600260009054906101000a900473ffffffffffffffffffffffffffffffffffffffff1673ffffffffffffffffffffffffffffffffffffffff1663a9059cbb33836040518363ffffffff1660e01b8152600401610f69929190611f46565b602060405180830381600087803b158015610f8357600080fd5b505af1158015610f97573d6000803e3d6000fd5b505050506040513d601f19601f82011682018060405250810190610fbb9190611d5c565b503373ffffffffffffffffffffffffffffffffffffffff167fe2403640ba68fed3a2f88b7557551d1993f84b99bb10ff833f0cf8db0c5e0486826040516110029190612080565b60405180910390a25b505060018081905550565b600b6020528060005260406000206000915090505481565b611036611cbe565b73ffffffffffffffffffffffffffffffffffffffff166110546118c7565b73ffffffffffffffffffffffffffffffffffffffff16146110aa576040517f08c379a00000000000000000000000000000000000000000000000000000000081526004016110a190612020565b60405180910390fd5b60005b600880549050811015611236576000600882815481106110f6577f4e487b7100000000000000000000000000000000000000000000000000000000600052603260045260246000fd5b9060005260206000200160009054906101000a900473ffffffffffffffffffffffffffffffffffffffff1690506000600b60008373ffffffffffffffffffffffffffffffffffffffff1673ffffffffffffffffffffffffffffffffffffffff168152602001908152602001600020549050600081111561122157600260009054906101000a900473ffffffffffffffffffffffffffffffffffffffff1673ffffffffffffffffffffffffffffffffffffffff1663a9059cbb83836040518363ffffffff1660e01b81526004016111cd929190611f46565b602060405180830381600087803b1580156111e757600080fd5b505af11580156111fb573d6000803e3d6000fd5b505050506040513d601f19601f8201168201806040525081019061121f9190611d5c565b505b5050808061122e90612237565b9150506110ad565b50565b600d6020528060005260406000206000915054906101000a900460ff1681565b6000600b60008373ffffffffffffffffffffffffffffffffffffffff1673ffffffffffffffffffffffffffffffffffffffff168152602001908152602001600020549050919050565b6112aa611cbe565b73ffffffffffffffffffffffffffffffffffffffff166112c86118c7565b73ffffffffffffffffffffffffffffffffffffffff161461131e576040517f08c379a000000000000000000000000000000000000000000000000000000000815260040161131590612020565b60405180910390fd5b600073ffffffffffffffffffffffffffffffffffffffff1660008054906101000a900473ffffffffffffffffffffffffffffffffffffffff1673ffffffffffffffffffffffffffffffffffffffff167f8be0079c531659141344cd1fd0a4f28419497f9722a3daafe3b4186f6b6457e060405160405180910390a360008060006101000a81548173ffffffffffffffffffffffffffffffffffffffff021916908373ffffffffffffffffffffffffffffffffffffffff160217905550565b60026001541415611422576040517f08c379a000000000000000000000000000000000000000000000000000000000815260040161141990612060565b60405180910390fd5b6002600181905550336114336119e4565b600681905550611441611896565b600581905550600073ffffffffffffffffffffffffffffffffffffffff168173ffffffffffffffffffffffffffffffffffffffff161461150e576114848161059a565b600a60008373ffffffffffffffffffffffffffffffffffffffff1673ffffffffffffffffffffffffffffffffffffffff16815260200190815260200160002081905550600654600960008373ffffffffffffffffffffffffffffffffffffffff1673ffffffffffffffffffffffffffffffffffffffff168152602001908152602001600020819055505b60008211611551576040517f08c379a000000000000000000000000000000000000000000000000000000000815260040161154890611fe0565b60405180910390fd5b61156682600754611ca890919063ffffffff16565b60078190555081600b60003373ffffffffffffffffffffffffffffffffffffffff1673ffffffffffffffffffffffffffffffffffffffff168152602001908152602001600020546115b791906120ac565b600b60003373ffffffffffffffffffffffffffffffffffffffff1673ffffffffffffffffffffffffffffffffffffffff16815260200190815260200160002081905550600c60003373ffffffffffffffffffffffffffffffffffffffff1673ffffffffffffffffffffffffffffffffffffffff16815260200190815260200160002060009054906101000a900460ff166116af576008339080600181540180825580915050600190039060005260206000200160009091909190916101000a81548173ffffffffffffffffffffffffffffffffffffffff021916908373ffffffffffffffffffffffffffffffffffffffff1602179055505b6001600d60003373ffffffffffffffffffffffffffffffffffffffff1673ffffffffffffffffffffffffffffffffffffffff16815260200190815260200160002060006101000a81548160ff0219169083151502179055506001600c60003373ffffffffffffffffffffffffffffffffffffffff1673ffffffffffffffffffffffffffffffffffffffff16815260200190815260200160002060006101000a81548160ff021916908315150217905550600260009054906101000a900473ffffffffffffffffffffffffffffffffffffffff1673ffffffffffffffffffffffffffffffffffffffff166323b872dd3330856040518463ffffffff1660e01b81526004016117be93929190611f0f565b602060405180830381600087803b1580156117d857600080fd5b505af11580156117ec573d6000803e3d6000fd5b505050506040513d601f19601f820116820180604052508101906118109190611d5c565b503373ffffffffffffffffffffffffffffffffffffffff167f9e71bc8eea02a63969f509818f2dafb9254532904319f9dbda79b67bd34a5f3d836040516118579190612080565b60405180910390a2506001808190555050565b60045481565b600260009054906101000a900473ffffffffffffffffffffffffffffffffffffffff1681565b60006118a442600354611cc6565b905090565b60075481565b60096020528060005260406000206000915090505481565b60008060009054906101000a900473ffffffffffffffffffffffffffffffffffffffff16905090565b7f5374616b696e67204661726d000000000000000000000000000000000000000081565b6000600d60003373ffffffffffffffffffffffffffffffffffffffff1673ffffffffffffffffffffffffffffffffffffffff16815260200190815260200160002060006101000a81548160ff0219169083151502179055506119b4600b60003373ffffffffffffffffffffffffffffffffffffffff1673ffffffffffffffffffffffffffffffffffffffff16815260200190815260200160002054610721565b6119bc610d48565b565b60055481565b600c6020528060005260406000206000915054906101000a900460ff1681565b60008060075414156119fa576006549050611a6f565b611a6c611a5b600754611a4d670de0b6b3a7640000611a3f600454611a31600554611a23611896565b611c6690919063ffffffff16565b611c7c90919063ffffffff16565b611c7c90919063ffffffff16565b611c9290919063ffffffff16565b600654611ca890919063ffffffff16565b90505b90565b60065481565b60035481565b611a86611cbe565b73ffffffffffffffffffffffffffffffffffffffff16611aa46118c7565b73ffffffffffffffffffffffffffffffffffffffff1614611afa576040517f08c379a0000000000000000000000000000000000000000000000000000000008152600401611af190612020565b60405180910390fd5b600073ffffffffffffffffffffffffffffffffffffffff168173ffffffffffffffffffffffffffffffffffffffff161415611b6a576040517f08c379a0000000000000000000000000000000000000000000000000000000008152600401611b6190611fc0565b60405180910390fd5b8073ffffffffffffffffffffffffffffffffffffffff1660008054906101000a900473ffffffffffffffffffffffffffffffffffffffff1673ffffffffffffffffffffffffffffffffffffffff167f8be0079c531659141344cd1fd0a4f28419497f9722a3daafe3b4186f6b6457e060405160405180910390a3806000806101000a81548173ffffffffffffffffffffffffffffffffffffffff021916908373ffffffffffffffffffffffffffffffffffffffff16021790555050565b60088181548110611c3757600080fd5b906000526020600020016000915054906101000a900473ffffffffffffffffffffffffffffffffffffffff1681565b60008183611c74919061218d565b905092915050565b60008183611c8a9190612133565b905092915050565b60008183611ca09190612102565b905092915050565b60008183611cb691906120ac565b905092915050565b600033905090565b6000818310611cd55781611cd7565b825b905092915050565b600081359050611cee816123fa565b92915050565b600081519050611d0381612411565b92915050565b600081359050611d1881612428565b92915050565b600081519050611d2d81612428565b92915050565b600060208284031215611d4557600080fd5b6000611d5384828501611cdf565b91505092915050565b600060208284031215611d6e57600080fd5b6000611d7c84828501611cf4565b91505092915050565b600060208284031215611d9757600080fd5b6000611da584828501611d09565b91505092915050565b600060208284031215611dc057600080fd5b6000611dce84828501611d1e565b91505092915050565b611de0816121c1565b82525050565b611def816121d3565b82525050565b611dfe816121df565b82525050565b611e0d81612213565b82525050565b6000611e2060268361209b565b9150611e2b826122de565b604082019050919050565b6000611e43600e8361209b565b9150611e4e8261232d565b602082019050919050565b6000611e6660118361209b565b9150611e7182612356565b602082019050919050565b6000611e8960208361209b565b9150611e948261237f565b602082019050919050565b6000611eac60188361209b565b9150611eb7826123a8565b602082019050919050565b6000611ecf601f8361209b565b9150611eda826123d1565b602082019050919050565b611eee81612209565b82525050565b6000602082019050611f096000830184611dd7565b92915050565b6000606082019050611f246000830186611dd7565b611f316020830185611dd7565b611f3e6040830184611ee5565b949350505050565b6000604082019050611f5b6000830185611dd7565b611f686020830184611ee5565b9392505050565b6000602082019050611f846000830184611de6565b92915050565b6000602082019050611f9f6000830184611df5565b92915050565b6000602082019050611fba6000830184611e04565b92915050565b60006020820190508181036000830152611fd981611e13565b9050919050565b60006020820190508181036000830152611ff981611e36565b9050919050565b6000602082019050818103600083015261201981611e59565b9050919050565b6000602082019050818103600083015261203981611e7c565b9050919050565b6000602082019050818103600083015261205981611e9f565b9050919050565b6000602082019050818103600083015261207981611ec2565b9050919050565b60006020820190506120956000830184611ee5565b92915050565b600082825260208201905092915050565b60006120b782612209565b91506120c283612209565b9250827fffffffffffffffffffffffffffffffffffffffffffffffffffffffffffffffff038211156120f7576120f6612280565b5b828201905092915050565b600061210d82612209565b915061211883612209565b925082612128576121276122af565b5b828204905092915050565b600061213e82612209565b915061214983612209565b9250817fffffffffffffffffffffffffffffffffffffffffffffffffffffffffffffffff048311821515161561218257612181612280565b5b828202905092915050565b600061219882612209565b91506121a383612209565b9250828210156121b6576121b5612280565b5b828203905092915050565b60006121cc826121e9565b9050919050565b60008115159050919050565b6000819050919050565b600073ffffffffffffffffffffffffffffffffffffffff82169050919050565b6000819050919050565b600061221e82612225565b9050919050565b6000612230826121e9565b9050919050565b600061224282612209565b91507fffffffffffffffffffffffffffffffffffffffffffffffffffffffffffffffff82141561227557612274612280565b5b600182019050919050565b7f4e487b7100000000000000000000000000000000000000000000000000000000600052601160045260246000fd5b7f4e487b7100000000000000000000000000000000000000000000000000000000600052601260045260246000fd5b7f4f776e61626c653a206e6577206f776e657220697320746865207a65726f206160008201527f6464726573730000000000000000000000000000000000000000000000000000602082015250565b7f43616e6e6f74207374616b652030000000000000000000000000000000000000600082015250565b7f43616e6e6f742077697468647261772030000000000000000000000000000000600082015250565b7f4f776e61626c653a2063616c6c6572206973206e6f7420746865206f776e6572600082015250565b7f50726f76696465642072657761726420746f6f20686967680000000000000000600082015250565b7f5265656e7472616e637947756172643a207265656e7472616e742063616c6c00600082015250565b612403816121c1565b811461240e57600080fd5b50565b61241a816121d3565b811461242557600080fd5b50565b61243181612209565b811461243c57600080fd5b5056fea2646970667358221220c1f21cb5b321df3e2124ddc0aec3dd0462f4a90229226af8170aa673854768e664736f6c63430008040033",
  "immutableReferences": {},
  "source": "//SPDX-License-Identifier: MIT\npragma solidity ^0.8.0;\n\nimport \"./MEthToken.sol\";\nimport \"@openzeppelin/contracts/utils/math/SafeMath.sol\";\nimport \"@openzeppelin/contracts/utils/math/Math.sol\";\nimport \"@openzeppelin/contracts/access/Ownable.sol\";\nimport \"@openzeppelin/contracts/security/ReentrancyGuard.sol\";\n\ncontract TokenFarm is Ownable, ReentrancyGuard {\n    using SafeMath for uint256;\n\n    /* ========== STATE VARIABLES ========== */\n\n    bytes32 public constant NAME = \"Staking Farm\";\n    MEthToken public ethToken;\n\n    // total Rewards to be distributed\n    // uint256 public totalRewards;\n\n    uint256 public periodFinish = 0;\n    uint256 public rewardRate = 0;\n    uint256 constant REWARDSDURATION = 7 days;\n    uint256 public lastUpdateTime;\n    uint256 public rewardPerTokenStored;\n    uint256 public totalStaked;\n\n    address[] public stakers;\n    mapping(address => uint256) public userRewardPerTokenPaid;\n    mapping(address => uint256) public rewards;\n    mapping(address => uint256) public stakingBalance;\n    mapping(address => bool) public hasStaked;\n    mapping(address => bool) public isStaking;\n\n    /* ========== CONSTRUCTOR ========== */\n\n    constructor(MEthToken _ethToken) {\n        ethToken = _ethToken;\n        //owner = msg.sender;\n    }\n\n    /* ========== EVENTS ========== */\n\n    event RewardAdded(uint256 reward);\n    event Staked(address indexed user, uint256 amount);\n    event Withdrawn(address indexed user, uint256 amount);\n    event RewardPaid(address indexed user, uint256 reward);\n    event RewardsDurationUpdated(uint256 newDuration);\n    event Recovered(address token, uint256 amount);\n\n    /* ========== MODIFIERS ========== */\n\n    modifier updateReward(address account) {\n        rewardPerTokenStored = rewardPerToken();\n        lastUpdateTime = lastTimeRewardApplicable();\n        if (account != address(0)) {\n            rewards[account] = earned(account);\n            userRewardPerTokenPaid[account] = rewardPerTokenStored;\n        }\n        _;\n    }\n\n    /* ========== MUTATIVE FUNCTIONS ========== */\n\n    // 1. Stakes Tokens (Deposit): An investor will deposit the Token into the smart contracts to starting earning rewards\n    function stakeTokens(uint256 amount)\n        external\n        nonReentrant\n        updateReward(msg.sender)\n    {\n        require(amount > 0, \"Cannot stake 0\");\n\n        //Update total staked balance\n        totalStaked = totalStaked.add(amount);\n\n        // Update staking balance\n        stakingBalance[msg.sender] = stakingBalance[msg.sender] + amount;\n\n        // Add user to stakers array *only* if they haven't staked already\n        if (!hasStaked[msg.sender]) {\n            stakers.push(msg.sender);\n        }\n\n        // update stakng status\n        isStaking[msg.sender] = true;\n        hasStaked[msg.sender] = true;\n\n        // Transfer Mock Eth tokens to this contract for staking\n        // Several tokens do not revert in case of failure and return false. If one of these tokens is used in MyBank, deposit will not revert if the transfer fails, and an attacker can call deposit for free..\n        // Recommendation\n        // Use SafeERC20, or ensure that the transfer/transferFrom return value is checked.\n        ethToken.transferFrom(msg.sender, address(this), amount);\n\n        // emit staked event\n        emit Staked(msg.sender, amount);\n    }\n\n    function withdraw(uint256 amount)\n        public\n        nonReentrant\n        updateReward(msg.sender)\n    {\n        require(amount > 0, \"Cannot withdraw 0\");\n        totalStaked = totalStaked.sub(amount);\n        stakingBalance[msg.sender] = stakingBalance[msg.sender].sub(amount);\n        ethToken.transfer(msg.sender, amount);\n        emit Withdrawn(msg.sender, amount);\n    }\n\n    function getReward() public nonReentrant updateReward(msg.sender) {\n        uint256 reward = rewards[msg.sender];\n        if (reward > 0) {\n            rewards[msg.sender] = 0;\n            ethToken.transfer(msg.sender, reward);\n            emit RewardPaid(msg.sender, reward);\n        }\n    }\n\n    // Unstaking Tokens (Withdraw): Withdraw money from Dapp\n    function unstakeTokens() public {\n        // Update staking status\n        isStaking[msg.sender] = false;\n\n        withdraw(stakingBalance[msg.sender]);\n\n        getReward();\n    }\n\n    // Issuing Tokens: Earning interest (issuing tokens for people who stake them, distribute dap tokens as interes and also allow the investor to unstake their tokens from the app, give them intereset using the app)\n    function issueTokens() external onlyOwner {\n        // Issue tokens to all stakers\n        for (uint256 i = 0; i < stakers.length; i++) {\n            address recipient = stakers[i];\n            uint256 balance = stakingBalance[recipient];\n            if (balance > 0) {\n                ethToken.transfer(recipient, balance);\n            }\n        }\n    }\n\n    // owner call this function to add reward amount to the total rewards\n    // Solidity integer division might truncate. As a result, performing multiplication before division can sometimes avoid loss of precision.\n    function notifyRewardAmount(uint256 reward)\n        external\n        updateReward(address(0))\n    {\n\n\n        if (block.timestamp < periodFinish) {\n            uint256 remaining = periodFinish.sub(block.timestamp);\n            // uint256 leftover = remaining.mul(rewardRate);\n            uint256 leftover = remaining.mul(reward).div(REWARDSDURATION);\n            rewardRate = reward.add(leftover).div(REWARDSDURATION);\n            \n        } else {\n            rewardRate = reward.div(REWARDSDURATION);\n        }\n\n        // Ensure the provided reward amount is not more than the balance in the contract.\n        // This keeps the reward rate in the right range, preventing overflows due to\n        // very high values of rewardRate in the earned and rewardsPerToken functions;\n        // Reward + leftover must be less than 2^256 / 10^18 to avoid overflow.\n        uint256 balance = ethToken.balanceOf(address(this));\n        require(\n            rewardRate <= balance.div(REWARDSDURATION),\n            \"Provided reward too high\"\n        );\n\n        lastUpdateTime = block.timestamp;\n        periodFinish = block.timestamp.add(REWARDSDURATION);\n        emit RewardAdded(reward);\n    }\n\n    /* ========== VIEWS ========== */\n\n\n    function name() public pure returns (bytes32) {\n        return NAME;\n    }\n\n    function rewardsDuration() public pure returns (uint256) {\n        return REWARDSDURATION;\n    }\n    function totalSupply() external view returns (uint256) {\n        return totalStaked;\n    }\n\n    function balanceOf(address account) external view returns (uint256) {\n        return stakingBalance[account];\n    }\n\n    function lastTimeRewardApplicable() public view returns (uint256) {\n        return Math.min(block.timestamp, periodFinish);\n    }\n\n    function rewardPerToken() public view returns (uint256) {\n        if (totalStaked == 0) {\n            return rewardPerTokenStored;\n        }\n        return\n            rewardPerTokenStored.add(\n                lastTimeRewardApplicable()\n                    .sub(lastUpdateTime)\n                    .mul(rewardRate)\n                    .mul(1e18)\n                    .div(totalStaked)\n            );\n    }\n\n    function earned(address account) public view returns (uint256) {\n        return\n            stakingBalance[account]\n                .mul(rewardPerToken().sub(userRewardPerTokenPaid[account]))\n                .div(1e18)\n                .add(rewards[account]);\n    }\n\n    function getRewardForDuration() external view returns (uint256) {\n        return rewardRate.mul(REWARDSDURATION);\n    }\n}\n",
  "sourcePath": "/Users/dingchaoz/Documents/Learning/Blockchain/Solidity/defi_yield_farming-main/src/contracts/TokenFarm.sol",
  "compiler": {
    "name": "solc",
    "version": "0.8.4+commit.c7e474f2.Emscripten.clang"
  },
  "schemaVersion": "3.3.3",
  "updatedAt": "2021-05-30T00:33:03.194Z",
  "devdoc": {
    "kind": "dev",
    "methods": {
      "owner()": {
        "details": "Returns the address of the current owner."
      },
      "renounceOwnership()": {
        "details": "Leaves the contract without owner. It will not be possible to call `onlyOwner` functions anymore. Can only be called by the current owner. NOTE: Renouncing ownership will leave the contract without an owner, thereby removing any functionality that is only available to the owner."
      },
      "transferOwnership(address)": {
        "details": "Transfers ownership of the contract to a new account (`newOwner`). Can only be called by the current owner."
      }
    },
    "version": 1
  },
  "userdoc": {
    "kind": "user",
    "methods": {},
    "version": 1
  }
}